{
  "contracts/DigitalEvidenceContract.sol": {
    "DigitalEvidenceContract": {
      "abi": [
        {
          "inputs": [],
          "stateMutability": "nonpayable",
          "type": "constructor"
        },
        {
          "anonymous": false,
          "inputs": [
            {
              "indexed": false,
              "internalType": "uint256",
              "name": "id",
              "type": "uint256"
            },
            {
              "indexed": false,
              "internalType": "string",
              "name": "typeUser",
              "type": "string"
            },
            {
              "indexed": false,
              "internalType": "string",
              "name": "typeIde",
              "type": "string"
            },
            {
              "indexed": false,
              "internalType": "uint256",
              "name": "identification",
              "type": "uint256"
            },
            {
              "indexed": false,
              "internalType": "string",
              "name": "names",
              "type": "string"
            },
            {
              "indexed": false,
              "internalType": "string",
              "name": "lastNames",
              "type": "string"
            },
            {
              "indexed": false,
              "internalType": "string",
              "name": "dateRequest",
              "type": "string"
            },
            {
              "indexed": false,
              "internalType": "uint256",
              "name": "timeBlock",
              "type": "uint256"
            },
            {
              "indexed": false,
              "internalType": "bool",
              "name": "verified",
              "type": "bool"
            }
          ],
          "name": "createdED",
          "type": "event"
        },
        {
          "anonymous": false,
          "inputs": [
            {
              "indexed": false,
              "internalType": "uint256",
              "name": "id",
              "type": "uint256"
            },
            {
              "indexed": false,
              "internalType": "bool",
              "name": "verified",
              "type": "bool"
            }
          ],
          "name": "statusED",
          "type": "event"
        },
        {
          "inputs": [
            {
              "internalType": "uint256",
              "name": "",
              "type": "uint256"
            }
          ],
          "name": "arrayEvidence",
          "outputs": [
            {
              "internalType": "uint256",
              "name": "id",
              "type": "uint256"
            },
            {
              "internalType": "string",
              "name": "typeUser",
              "type": "string"
            },
            {
              "internalType": "string",
              "name": "typeIde",
              "type": "string"
            },
            {
              "internalType": "uint256",
              "name": "identification",
              "type": "uint256"
            },
            {
              "internalType": "string",
              "name": "names",
              "type": "string"
            },
            {
              "internalType": "string",
              "name": "lastNames",
              "type": "string"
            },
            {
              "internalType": "string",
              "name": "dateRequest",
              "type": "string"
            },
            {
              "internalType": "uint256",
              "name": "timeBlock",
              "type": "uint256"
            },
            {
              "internalType": "bool",
              "name": "verified",
              "type": "bool"
            }
          ],
          "stateMutability": "view",
          "type": "function"
        },
        {
          "inputs": [
            {
              "internalType": "uint256",
              "name": "_id",
              "type": "uint256"
            }
          ],
          "name": "changeStatus",
          "outputs": [],
          "stateMutability": "nonpayable",
          "type": "function"
        },
        {
          "inputs": [
            {
              "internalType": "string",
              "name": "_typeUser",
              "type": "string"
            },
            {
              "internalType": "string",
              "name": "_typeIde",
              "type": "string"
            },
            {
              "internalType": "uint256",
              "name": "_identification",
              "type": "uint256"
            },
            {
              "internalType": "string",
              "name": "_names",
              "type": "string"
            },
            {
              "internalType": "string",
              "name": "_lastNames",
              "type": "string"
            },
            {
              "internalType": "string",
              "name": "_dateRequest",
              "type": "string"
            }
          ],
          "name": "createEvidence",
          "outputs": [
            {
              "internalType": "bool",
              "name": "",
              "type": "bool"
            }
          ],
          "stateMutability": "nonpayable",
          "type": "function"
        },
        {
          "inputs": [
            {
              "internalType": "uint256",
              "name": "_id",
              "type": "uint256"
            }
          ],
          "name": "getId",
          "outputs": [
            {
              "internalType": "uint256",
              "name": "",
              "type": "uint256"
            }
          ],
          "stateMutability": "view",
          "type": "function"
        },
        {
          "inputs": [
            {
              "internalType": "uint256",
              "name": "_id",
              "type": "uint256"
            }
          ],
          "name": "getName",
          "outputs": [
            {
              "internalType": "string",
              "name": "",
              "type": "string"
            }
          ],
          "stateMutability": "view",
          "type": "function"
        },
        {
          "inputs": [],
          "name": "getRecordsEvidence",
          "outputs": [
            {
              "components": [
                {
                  "internalType": "uint256",
                  "name": "id",
                  "type": "uint256"
                },
                {
                  "internalType": "string",
                  "name": "typeUser",
                  "type": "string"
                },
                {
                  "internalType": "string",
                  "name": "typeIde",
                  "type": "string"
                },
                {
                  "internalType": "uint256",
                  "name": "identification",
                  "type": "uint256"
                },
                {
                  "internalType": "string",
                  "name": "names",
                  "type": "string"
                },
                {
                  "internalType": "string",
                  "name": "lastNames",
                  "type": "string"
                },
                {
                  "internalType": "string",
                  "name": "dateRequest",
                  "type": "string"
                },
                {
                  "internalType": "uint256",
                  "name": "timeBlock",
                  "type": "uint256"
                },
                {
                  "internalType": "bool",
                  "name": "verified",
                  "type": "bool"
                }
              ],
              "internalType": "struct DataEvidence[]",
              "name": "",
              "type": "tuple[]"
            }
          ],
          "stateMutability": "view",
          "type": "function"
        },
        {
          "inputs": [],
          "name": "nameContract",
          "outputs": [
            {
              "internalType": "string",
              "name": "",
              "type": "string"
            }
          ],
          "stateMutability": "view",
          "type": "function"
        },
        {
          "inputs": [],
          "name": "owner",
          "outputs": [
            {
              "internalType": "address",
              "name": "",
              "type": "address"
            }
          ],
          "stateMutability": "view",
          "type": "function"
        },
        {
          "inputs": [
            {
              "internalType": "uint256",
              "name": "",
              "type": "uint256"
            }
          ],
          "name": "recordsEvidence",
          "outputs": [
            {
              "internalType": "uint256",
              "name": "id",
              "type": "uint256"
            },
            {
              "internalType": "string",
              "name": "typeUser",
              "type": "string"
            },
            {
              "internalType": "string",
              "name": "typeIde",
              "type": "string"
            },
            {
              "internalType": "uint256",
              "name": "identification",
              "type": "uint256"
            },
            {
              "internalType": "string",
              "name": "names",
              "type": "string"
            },
            {
              "internalType": "string",
              "name": "lastNames",
              "type": "string"
            },
            {
              "internalType": "string",
              "name": "dateRequest",
              "type": "string"
            },
            {
              "internalType": "uint256",
              "name": "timeBlock",
              "type": "uint256"
            },
            {
              "internalType": "bool",
              "name": "verified",
              "type": "bool"
            }
          ],
          "stateMutability": "view",
          "type": "function"
        }
      ],
      "evm": {
        "bytecode": {
          "linkReferences": {},
          "object": "60806040523480156200001157600080fd5b50604051806060016040528060318152602001620034d360319139600290816200003c919062000855565b5033600160006101000a81548173ffffffffffffffffffffffffffffffffffffffff021916908373ffffffffffffffffffffffffffffffffffffffff16021790555060008081905550620001a56040518060400160405280600a81526020017f4e6f6e63655f696e6974000000000000000000000000000000000000000000008152506040518060400160405280600181526020017f2d0000000000000000000000000000000000000000000000000000000000000081525060016040518060400160405280600181526020017f2d000000000000000000000000000000000000000000000000000000000000008152506040518060400160405280600181526020017f2d000000000000000000000000000000000000000000000000000000000000008152506040518060400160405280600181526020017f2d00000000000000000000000000000000000000000000000000000000000000815250620001ac60201b60201c565b5062000f22565b600080875111620001f4576040517f08c379a0000000000000000000000000000000000000000000000000000000008152600401620001eb906200099d565b60405180910390fd5b60008651116200023b576040517f08c379a0000000000000000000000000000000000000000000000000000000008152600401620002329062000a0f565b60405180910390fd5b6000851162000281576040517f08c379a0000000000000000000000000000000000000000000000000000000008152600401620002789062000aa7565b60405180910390fd5b6000845111620002c8576040517f08c379a0000000000000000000000000000000000000000000000000000000008152600401620002bf9062000b19565b60405180910390fd5b60008351116200030f576040517f08c379a0000000000000000000000000000000000000000000000000000000008152600401620003069062000b8b565b60405180910390fd5b600082511162000356576040517f08c379a00000000000000000000000000000000000000000000000000000000081526004016200034d9062000bfd565b60405180910390fd5b6040518061012001604052806000548152602001888152602001878152602001868152602001858152602001848152602001838152602001428152602001600015158152506004600080548152602001908152602001600020600082015181600001556020820151816001019081620003d0919062000855565b506040820151816002019081620003e8919062000855565b506060820151816003015560808201518160040190816200040a919062000855565b5060a082015181600501908162000422919062000855565b5060c08201518160060190816200043a919062000855565b5060e082015181600701556101008201518160080160006101000a81548160ff0219169083151502179055509050506003600460008054815260200190815260200160002090806001815401808255809150506001900390600052602060002090600902016000909190919091506000820154816000015560018201816001019081620004c8919062000c37565b5060028201816002019081620004df919062000c37565b50600382015481600301556004820181600401908162000500919062000c37565b506005820181600501908162000517919062000c37565b50600682018160060190816200052e919062000c37565b50600782015481600701556008820160009054906101000a900460ff168160080160006101000a81548160ff02191690831515021790555050506000808154809291906200057c9062000d67565b91905055507f8fac587d8e0d9c1391a1c70968ea4a41af4e79696fe91d79db7605e431b00e49600054888888888888426000604051620005c59998979695949392919062000e60565b60405180910390a1600190509695505050505050565b600081519050919050565b7f4e487b7100000000000000000000000000000000000000000000000000000000600052604160045260246000fd5b7f4e487b7100000000000000000000000000000000000000000000000000000000600052602260045260246000fd5b600060028204905060018216806200065d57607f821691505b60208210810362000673576200067262000615565b5b50919050565b60008190508160005260206000209050919050565b60006020601f8301049050919050565b600082821b905092915050565b600060088302620006dd7fffffffffffffffffffffffffffffffffffffffffffffffffffffffffffffffff826200069e565b620006e986836200069e565b95508019841693508086168417925050509392505050565b6000819050919050565b6000819050919050565b600062000736620007306200072a8462000701565b6200070b565b62000701565b9050919050565b6000819050919050565b620007528362000715565b6200076a62000761826200073d565b848454620006ab565b825550505050565b600090565b6200078162000772565b6200078e81848462000747565b505050565b5b81811015620007b657620007aa60008262000777565b60018101905062000794565b5050565b601f8211156200080557620007cf8162000679565b620007da846200068e565b81016020851015620007ea578190505b62000802620007f9856200068e565b83018262000793565b50505b505050565b600082821c905092915050565b60006200082a600019846008026200080a565b1980831691505092915050565b600062000845838362000817565b9150826002028217905092915050565b6200086082620005db565b67ffffffffffffffff8111156200087c576200087b620005e6565b5b62000888825462000644565b62000895828285620007ba565b600060209050601f831160018114620008cd5760008415620008b8578287015190505b620008c4858262000837565b86555062000934565b601f198416620008dd8662000679565b60005b828110156200090757848901518255600182019150602085019450602081019050620008e0565b8683101562000927578489015162000923601f89168262000817565b8355505b6001600288020188555050505b505050505050565b600082825260208201905092915050565b7f54797065557365722063616e6e6f7420626520656d7074790000000000000000600082015250565b6000620009856018836200093c565b915062000992826200094d565b602082019050919050565b60006020820190508181036000830152620009b88162000976565b9050919050565b7f547970654964652063616e6e6f7420626520656d707479000000000000000000600082015250565b6000620009f76017836200093c565b915062000a0482620009bf565b602082019050919050565b6000602082019050818103600083015262000a2a81620009e8565b9050919050565b7f4964656e74696669636174696f6e206d7573742062652067726561746572207460008201527f68616e2030000000000000000000000000000000000000000000000000000000602082015250565b600062000a8f6025836200093c565b915062000a9c8262000a31565b604082019050919050565b6000602082019050818103600083015262000ac28162000a80565b9050919050565b7f4e616d65732063616e6e6f7420626520656d7074790000000000000000000000600082015250565b600062000b016015836200093c565b915062000b0e8262000ac9565b602082019050919050565b6000602082019050818103600083015262000b348162000af2565b9050919050565b7f4c6173744e616d65732063616e6e6f7420626520656d70747900000000000000600082015250565b600062000b736019836200093c565b915062000b808262000b3b565b602082019050919050565b6000602082019050818103600083015262000ba68162000b64565b9050919050565b7f44617465526571756573742063616e6e6f7420626520656d7074790000000000600082015250565b600062000be5601b836200093c565b915062000bf28262000bad565b602082019050919050565b6000602082019050818103600083015262000c188162000bd6565b9050919050565b60008154905062000c308162000644565b9050919050565b81810362000c4757505062000d36565b62000c528262000c1f565b67ffffffffffffffff81111562000c6e5762000c6d620005e6565b5b62000c7a825462000644565b62000c87828285620007ba565b6000601f83116001811462000cbb576000841562000ca6578287015490505b62000cb2858262000837565b86555062000d2f565b601f19841662000ccb8762000679565b965062000cd88662000679565b60005b8281101562000d025784890154825560018201915060018501945060208101905062000cdb565b8683101562000d22578489015462000d1e601f89168262000817565b8355505b6001600288020188555050505b5050505050505b565b7f4e487b7100000000000000000000000000000000000000000000000000000000600052601160045260246000fd5b600062000d748262000701565b91507fffffffffffffffffffffffffffffffffffffffffffffffffffffffffffffffff820362000da95762000da862000d38565b5b600182019050919050565b62000dbf8162000701565b82525050565b60005b8381101562000de557808201518184015260208101905062000dc8565b60008484015250505050565b6000601f19601f8301169050919050565b600062000e0f82620005db565b62000e1b81856200093c565b935062000e2d81856020860162000dc5565b62000e388162000df1565b840191505092915050565b60008115159050919050565b62000e5a8162000e43565b82525050565b60006101208201905062000e78600083018c62000db4565b818103602083015262000e8c818b62000e02565b9050818103604083015262000ea2818a62000e02565b905062000eb3606083018962000db4565b818103608083015262000ec7818862000e02565b905081810360a083015262000edd818762000e02565b905081810360c083015262000ef3818662000e02565b905062000f0460e083018562000db4565b62000f1461010083018462000e4f565b9a9950505050505050505050565b6125a18062000f326000396000f3fe608060405234801561001057600080fd5b50600436106100935760003560e01c80638da5cb5b116100665780638da5cb5b1461014e5780638ec28a0b1461016c578063cb782a661461019c578063e8025d77146101d4578063f0eb62cf146101f057610093565b806312194e3014610098578063392b30d9146100d0578063545a153a146100ee5780636b8ff5741461011e575b600080fd5b6100b260048036038101906100ad91906116e0565b61020e565b6040516100c7999897969594939291906117c7565b60405180910390f35b6100d8610521565b6040516100e59190611a82565b60405180910390f35b610108600480360381019061010391906116e0565b610924565b6040516101159190611aa4565b60405180910390f35b610138600480360381019061013391906116e0565b6109d4565b6040516101459190611abf565b60405180910390f35b610156610b18565b6040516101639190611b22565b60405180910390f35b61018660048036038101906101819190611c72565b610b3e565b6040516101939190611d8b565b60405180910390f35b6101b660048036038101906101b191906116e0565b610f43565b6040516101cb999897969594939291906117c7565b60405180910390f35b6101ee60048036038101906101e991906116e0565b611246565b005b6101f8611608565b6040516102059190611abf565b60405180910390f35b6003818154811061021e57600080fd5b906000526020600020906009020160009150905080600001549080600101805461024790611dd5565b80601f016020809104026020016040519081016040528092919081815260200182805461027390611dd5565b80156102c05780601f10610295576101008083540402835291602001916102c0565b820191906000526020600020905b8154815290600101906020018083116102a357829003601f168201915b5050505050908060020180546102d590611dd5565b80601f016020809104026020016040519081016040528092919081815260200182805461030190611dd5565b801561034e5780601f106103235761010080835404028352916020019161034e565b820191906000526020600020905b81548152906001019060200180831161033157829003601f168201915b50505050509080600301549080600401805461036990611dd5565b80601f016020809104026020016040519081016040528092919081815260200182805461039590611dd5565b80156103e25780601f106103b7576101008083540402835291602001916103e2565b820191906000526020600020905b8154815290600101906020018083116103c557829003601f168201915b5050505050908060050180546103f790611dd5565b80601f016020809104026020016040519081016040528092919081815260200182805461042390611dd5565b80156104705780601f1061044557610100808354040283529160200191610470565b820191906000526020600020905b81548152906001019060200180831161045357829003601f168201915b50505050509080600601805461048590611dd5565b80601f01602080910402602001604051908101604052809291908181526020018280546104b190611dd5565b80156104fe5780601f106104d3576101008083540402835291602001916104fe565b820191906000526020600020905b8154815290600101906020018083116104e157829003601f168201915b5050505050908060070154908060080160009054906101000a900460ff16905089565b6060600160009054906101000a900473ffffffffffffffffffffffffffffffffffffffff1673ffffffffffffffffffffffffffffffffffffffff163373ffffffffffffffffffffffffffffffffffffffff16146105b3576040517f08c379a00000000000000000000000000000000000000000000000000000000081526004016105aa90611e52565b60405180910390fd5b6003805480602002602001604051908101604052809291908181526020016000905b8282101561091b5783829060005260206000209060090201604051806101200160405290816000820154815260200160018201805461061390611dd5565b80601f016020809104026020016040519081016040528092919081815260200182805461063f90611dd5565b801561068c5780601f106106615761010080835404028352916020019161068c565b820191906000526020600020905b81548152906001019060200180831161066f57829003601f168201915b505050505081526020016002820180546106a590611dd5565b80601f01602080910402602001604051908101604052809291908181526020018280546106d190611dd5565b801561071e5780601f106106f35761010080835404028352916020019161071e565b820191906000526020600020905b81548152906001019060200180831161070157829003601f168201915b505050505081526020016003820154815260200160048201805461074190611dd5565b80601f016020809104026020016040519081016040528092919081815260200182805461076d90611dd5565b80156107ba5780601f1061078f576101008083540402835291602001916107ba565b820191906000526020600020905b81548152906001019060200180831161079d57829003601f168201915b505050505081526020016005820180546107d390611dd5565b80601f01602080910402602001604051908101604052809291908181526020018280546107ff90611dd5565b801561084c5780601f106108215761010080835404028352916020019161084c565b820191906000526020600020905b81548152906001019060200180831161082f57829003601f168201915b5050505050815260200160068201805461086590611dd5565b80601f016020809104026020016040519081016040528092919081815260200182805461089190611dd5565b80156108de5780601f106108b3576101008083540402835291602001916108de565b820191906000526020600020905b8154815290600101906020018083116108c157829003601f168201915b50505050508152602001600782015481526020016008820160009054906101000a900460ff161515151581525050815260200190600101906105d5565b50505050905090565b6000600160009054906101000a900473ffffffffffffffffffffffffffffffffffffffff1673ffffffffffffffffffffffffffffffffffffffff163373ffffffffffffffffffffffffffffffffffffffff16146109b6576040517f08c379a00000000000000000000000000000000000000000000000000000000081526004016109ad90611e52565b60405180910390fd5b60046000838152602001908152602001600020600001549050919050565b606060006040518060400160405280600c81526020017f4e6f206578697374652e2e2e0000000000000000000000000000000000000000815250905060005b600380549050811015610b0e578360038281548110610a3557610a34611e72565b5b90600052602060002090600902016000015403610b015760038181548110610a6057610a5f611e72565b5b90600052602060002090600902016004018054610a7c90611dd5565b80601f0160208091040260200160405190810160405280929190818152602001828054610aa890611dd5565b8015610af55780601f10610aca57610100808354040283529160200191610af5565b820191906000526020600020905b815481529060010190602001808311610ad857829003601f168201915b50505050509150610b0e565b8080600101915050610a13565b5080915050919050565b600160009054906101000a900473ffffffffffffffffffffffffffffffffffffffff1681565b600080875111610b83576040517f08c379a0000000000000000000000000000000000000000000000000000000008152600401610b7a90611eed565b60405180910390fd5b6000865111610bc7576040517f08c379a0000000000000000000000000000000000000000000000000000000008152600401610bbe90611f59565b60405180910390fd5b60008511610c0a576040517f08c379a0000000000000000000000000000000000000000000000000000000008152600401610c0190611feb565b60405180910390fd5b6000845111610c4e576040517f08c379a0000000000000000000000000000000000000000000000000000000008152600401610c4590612057565b60405180910390fd5b6000835111610c92576040517f08c379a0000000000000000000000000000000000000000000000000000000008152600401610c89906120c3565b60405180910390fd5b6000825111610cd6576040517f08c379a0000000000000000000000000000000000000000000000000000000008152600401610ccd9061212f565b60405180910390fd5b6040518061012001604052806000548152602001888152602001878152602001868152602001858152602001848152602001838152602001428152602001600015158152506004600080548152602001908152602001600020600082015181600001556020820151816001019081610d4e91906122fb565b506040820151816002019081610d6491906122fb565b50606082015181600301556080820151816004019081610d8491906122fb565b5060a0820151816005019081610d9a91906122fb565b5060c0820151816006019081610db091906122fb565b5060e082015181600701556101008201518160080160006101000a81548160ff0219169083151502179055509050506003600460008054815260200190815260200160002090806001815401808255809150506001900390600052602060002090600902016000909190919091506000820154816000015560018201816001019081610e3c91906123e3565b5060028201816002019081610e5191906123e3565b506003820154816003015560048201816004019081610e7091906123e3565b5060058201816005019081610e8591906123e3565b5060068201816006019081610e9a91906123e3565b50600782015481600701556008820160009054906101000a900460ff168160080160006101000a81548160ff0219169083151502179055505050600080815480929190610ee6906124fa565b91905055507f8fac587d8e0d9c1391a1c70968ea4a41af4e79696fe91d79db7605e431b00e49600054888888888888426000604051610f2d999897969594939291906117c7565b60405180910390a1600190509695505050505050565b6004602052806000526040600020600091509050806000015490806001018054610f6c90611dd5565b80601f0160208091040260200160405190810160405280929190818152602001828054610f9890611dd5565b8015610fe55780601f10610fba57610100808354040283529160200191610fe5565b820191906000526020600020905b815481529060010190602001808311610fc857829003601f168201915b505050505090806002018054610ffa90611dd5565b80601f016020809104026020016040519081016040528092919081815260200182805461102690611dd5565b80156110735780601f1061104857610100808354040283529160200191611073565b820191906000526020600020905b81548152906001019060200180831161105657829003601f168201915b50505050509080600301549080600401805461108e90611dd5565b80601f01602080910402602001604051908101604052809291908181526020018280546110ba90611dd5565b80156111075780601f106110dc57610100808354040283529160200191611107565b820191906000526020600020905b8154815290600101906020018083116110ea57829003601f168201915b50505050509080600501805461111c90611dd5565b80601f016020809104026020016040519081016040528092919081815260200182805461114890611dd5565b80156111955780601f1061116a57610100808354040283529160200191611195565b820191906000526020600020905b81548152906001019060200180831161117857829003601f168201915b5050505050908060060180546111aa90611dd5565b80601f01602080910402602001604051908101604052809291908181526020018280546111d690611dd5565b80156112235780601f106111f857610100808354040283529160200191611223565b820191906000526020600020905b81548152906001019060200180831161120657829003601f168201915b5050505050908060070154908060080160009054906101000a900460ff16905089565b600060046000838152602001908152602001600020604051806101200160405290816000820154815260200160018201805461128190611dd5565b80601f01602080910402602001604051908101604052809291908181526020018280546112ad90611dd5565b80156112fa5780601f106112cf576101008083540402835291602001916112fa565b820191906000526020600020905b8154815290600101906020018083116112dd57829003601f168201915b5050505050815260200160028201805461131390611dd5565b80601f016020809104026020016040519081016040528092919081815260200182805461133f90611dd5565b801561138c5780601f106113615761010080835404028352916020019161138c565b820191906000526020600020905b81548152906001019060200180831161136f57829003601f168201915b50505050508152602001600382015481526020016004820180546113af90611dd5565b80601f01602080910402602001604051908101604052809291908181526020018280546113db90611dd5565b80156114285780601f106113fd57610100808354040283529160200191611428565b820191906000526020600020905b81548152906001019060200180831161140b57829003601f168201915b5050505050815260200160058201805461144190611dd5565b80601f016020809104026020016040519081016040528092919081815260200182805461146d90611dd5565b80156114ba5780601f1061148f576101008083540402835291602001916114ba565b820191906000526020600020905b81548152906001019060200180831161149d57829003601f168201915b505050505081526020016006820180546114d390611dd5565b80601f01602080910402602001604051908101604052809291908181526020018280546114ff90611dd5565b801561154c5780601f106115215761010080835404028352916020019161154c565b820191906000526020600020905b81548152906001019060200180831161152f57829003601f168201915b50505050508152602001600782015481526020016008820160009054906101000a900460ff161515151581525050905080610100015115816101000190151590811515815250508061010001516004600084815260200190815260200160002060080160006101000a81548160ff0219169083151502179055507f82ec7c8fbcae453c45b4ed065081cc4b9c46ecbf6f9b22c05c769d4fc1b270c8828261010001516040516115fc929190612542565b60405180910390a15050565b6002805461161590611dd5565b80601f016020809104026020016040519081016040528092919081815260200182805461164190611dd5565b801561168e5780601f106116635761010080835404028352916020019161168e565b820191906000526020600020905b81548152906001019060200180831161167157829003601f168201915b505050505081565b6000604051905090565b600080fd5b600080fd5b6000819050919050565b6116bd816116aa565b81146116c857600080fd5b50565b6000813590506116da816116b4565b92915050565b6000602082840312156116f6576116f56116a0565b5b6000611704848285016116cb565b91505092915050565b611716816116aa565b82525050565b600081519050919050565b600082825260208201905092915050565b60005b8381101561175657808201518184015260208101905061173b565b60008484015250505050565b6000601f19601f8301169050919050565b600061177e8261171c565b6117888185611727565b9350611798818560208601611738565b6117a181611762565b840191505092915050565b60008115159050919050565b6117c1816117ac565b82525050565b6000610120820190506117dd600083018c61170d565b81810360208301526117ef818b611773565b90508181036040830152611803818a611773565b9050611812606083018961170d565b81810360808301526118248188611773565b905081810360a08301526118388187611773565b905081810360c083015261184c8186611773565b905061185b60e083018561170d565b6118696101008301846117b8565b9a9950505050505050505050565b600081519050919050565b600082825260208201905092915050565b6000819050602082019050919050565b6118ac816116aa565b82525050565b600082825260208201905092915050565b60006118ce8261171c565b6118d881856118b2565b93506118e8818560208601611738565b6118f181611762565b840191505092915050565b611905816117ac565b82525050565b60006101208301600083015161192460008601826118a3565b506020830151848203602086015261193c82826118c3565b9150506040830151848203604086015261195682826118c3565b915050606083015161196b60608601826118a3565b506080830151848203608086015261198382826118c3565b91505060a083015184820360a086015261199d82826118c3565b91505060c083015184820360c08601526119b782826118c3565b91505060e08301516119cc60e08601826118a3565b506101008301516119e16101008601826118fc565b508091505092915050565b60006119f8838361190b565b905092915050565b6000602082019050919050565b6000611a1882611877565b611a228185611882565b935083602082028501611a3485611893565b8060005b85811015611a705784840389528151611a5185826119ec565b9450611a5c83611a00565b925060208a01995050600181019050611a38565b50829750879550505050505092915050565b60006020820190508181036000830152611a9c8184611a0d565b905092915050565b6000602082019050611ab9600083018461170d565b92915050565b60006020820190508181036000830152611ad98184611773565b905092915050565b600073ffffffffffffffffffffffffffffffffffffffff82169050919050565b6000611b0c82611ae1565b9050919050565b611b1c81611b01565b82525050565b6000602082019050611b376000830184611b13565b92915050565b600080fd5b600080fd5b7f4e487b7100000000000000000000000000000000000000000000000000000000600052604160045260246000fd5b611b7f82611762565b810181811067ffffffffffffffff82111715611b9e57611b9d611b47565b5b80604052505050565b6000611bb1611696565b9050611bbd8282611b76565b919050565b600067ffffffffffffffff821115611bdd57611bdc611b47565b5b611be682611762565b9050602081019050919050565b82818337600083830152505050565b6000611c15611c1084611bc2565b611ba7565b905082815260208101848484011115611c3157611c30611b42565b5b611c3c848285611bf3565b509392505050565b600082601f830112611c5957611c58611b3d565b5b8135611c69848260208601611c02565b91505092915050565b60008060008060008060c08789031215611c8f57611c8e6116a0565b5b600087013567ffffffffffffffff811115611cad57611cac6116a5565b5b611cb989828a01611c44565b965050602087013567ffffffffffffffff811115611cda57611cd96116a5565b5b611ce689828a01611c44565b9550506040611cf789828a016116cb565b945050606087013567ffffffffffffffff811115611d1857611d176116a5565b5b611d2489828a01611c44565b935050608087013567ffffffffffffffff811115611d4557611d446116a5565b5b611d5189828a01611c44565b92505060a087013567ffffffffffffffff811115611d7257611d716116a5565b5b611d7e89828a01611c44565b9150509295509295509295565b6000602082019050611da060008301846117b8565b92915050565b7f4e487b7100000000000000000000000000000000000000000000000000000000600052602260045260246000fd5b60006002820490506001821680611ded57607f821691505b602082108103611e0057611dff611da6565b5b50919050565b7f6f6e6c7920746865206f776e65722063616e2065786563757465207461736b00600082015250565b6000611e3c601f83611727565b9150611e4782611e06565b602082019050919050565b60006020820190508181036000830152611e6b81611e2f565b9050919050565b7f4e487b7100000000000000000000000000000000000000000000000000000000600052603260045260246000fd5b7f54797065557365722063616e6e6f7420626520656d7074790000000000000000600082015250565b6000611ed7601883611727565b9150611ee282611ea1565b602082019050919050565b60006020820190508181036000830152611f0681611eca565b9050919050565b7f547970654964652063616e6e6f7420626520656d707479000000000000000000600082015250565b6000611f43601783611727565b9150611f4e82611f0d565b602082019050919050565b60006020820190508181036000830152611f7281611f36565b9050919050565b7f4964656e74696669636174696f6e206d7573742062652067726561746572207460008201527f68616e2030000000000000000000000000000000000000000000000000000000602082015250565b6000611fd5602583611727565b9150611fe082611f79565b604082019050919050565b6000602082019050818103600083015261200481611fc8565b9050919050565b7f4e616d65732063616e6e6f7420626520656d7074790000000000000000000000600082015250565b6000612041601583611727565b915061204c8261200b565b602082019050919050565b6000602082019050818103600083015261207081612034565b9050919050565b7f4c6173744e616d65732063616e6e6f7420626520656d70747900000000000000600082015250565b60006120ad601983611727565b91506120b882612077565b602082019050919050565b600060208201905081810360008301526120dc816120a0565b9050919050565b7f44617465526571756573742063616e6e6f7420626520656d7074790000000000600082015250565b6000612119601b83611727565b9150612124826120e3565b602082019050919050565b600060208201905081810360008301526121488161210c565b9050919050565b60008190508160005260206000209050919050565b60006020601f8301049050919050565b600082821b905092915050565b6000600883026121b17fffffffffffffffffffffffffffffffffffffffffffffffffffffffffffffffff82612174565b6121bb8683612174565b95508019841693508086168417925050509392505050565b6000819050919050565b60006121f86121f36121ee846116aa565b6121d3565b6116aa565b9050919050565b6000819050919050565b612212836121dd565b61222661221e826121ff565b848454612181565b825550505050565b600090565b61223b61222e565b612246818484612209565b505050565b5b8181101561226a5761225f600082612233565b60018101905061224c565b5050565b601f8211156122af576122808161214f565b61228984612164565b81016020851015612298578190505b6122ac6122a485612164565b83018261224b565b50505b505050565b600082821c905092915050565b60006122d2600019846008026122b4565b1980831691505092915050565b60006122eb83836122c1565b9150826002028217905092915050565b6123048261171c565b67ffffffffffffffff81111561231d5761231c611b47565b5b6123278254611dd5565b61233282828561226e565b600060209050601f8311600181146123655760008415612353578287015190505b61235d85826122df565b8655506123c5565b601f1984166123738661214f565b60005b8281101561239b57848901518255600182019150602085019450602081019050612376565b868310156123b857848901516123b4601f8916826122c1565b8355505b6001600288020188555050505b505050505050565b6000815490506123dc81611dd5565b9050919050565b8181036123f15750506124c9565b6123fa826123cd565b67ffffffffffffffff81111561241357612412611b47565b5b61241d8254611dd5565b61242882828561226e565b6000601f8311600181146124575760008415612445578287015490505b61244f85826122df565b8655506124c2565b601f1984166124658761214f565b96506124708661214f565b60005b8281101561249857848901548255600182019150600185019450602081019050612473565b868310156124b557848901546124b1601f8916826122c1565b8355505b6001600288020188555050505b5050505050505b565b7f4e487b7100000000000000000000000000000000000000000000000000000000600052601160045260246000fd5b6000612505826116aa565b91507fffffffffffffffffffffffffffffffffffffffffffffffffffffffffffffffff8203612537576125366124cb565b5b600182019050919050565b6000604082019050612557600083018561170d565b61256460208301846117b8565b939250505056fea2646970667358221220b2831540bb710932e98a901b7848ba57c8e222109a360e145d94b11e648bf4a264736f6c63430008180033436f6e747261637420666f72207265636f7264696e67206f66206469676974616c2065766964656e6365205564656e6172",
          "opcodes": "PUSH1 0x80 PUSH1 0x40 MSTORE CALLVALUE DUP1 ISZERO PUSH3 0x11 JUMPI PUSH1 0x0 DUP1 REVERT JUMPDEST POP PUSH1 0x40 MLOAD DUP1 PUSH1 0x60 ADD PUSH1 0x40 MSTORE DUP1 PUSH1 0x31 DUP2 MSTORE PUSH1 0x20 ADD PUSH3 0x34D3 PUSH1 0x31 SWAP2 CODECOPY PUSH1 0x2 SWAP1 DUP2 PUSH3 0x3C SWAP2 SWAP1 PUSH3 0x855 JUMP JUMPDEST POP CALLER PUSH1 0x1 PUSH1 0x0 PUSH2 0x100 EXP DUP2 SLOAD DUP2 PUSH20 0xFFFFFFFFFFFFFFFFFFFFFFFFFFFFFFFFFFFFFFFF MUL NOT AND SWAP1 DUP4 PUSH20 0xFFFFFFFFFFFFFFFFFFFFFFFFFFFFFFFFFFFFFFFF AND MUL OR SWAP1 SSTORE POP PUSH1 0x0 DUP1 DUP2 SWAP1 SSTORE POP PUSH3 0x1A5 PUSH1 0x40 MLOAD DUP1 PUSH1 0x40 ADD PUSH1 0x40 MSTORE DUP1 PUSH1 0xA DUP2 MSTORE PUSH1 0x20 ADD PUSH32 0x4E6F6E63655F696E697400000000000000000000000000000000000000000000 DUP2 MSTORE POP PUSH1 0x40 MLOAD DUP1 PUSH1 0x40 ADD PUSH1 0x40 MSTORE DUP1 PUSH1 0x1 DUP2 MSTORE PUSH1 0x20 ADD PUSH32 0x2D00000000000000000000000000000000000000000000000000000000000000 DUP2 MSTORE POP PUSH1 0x1 PUSH1 0x40 MLOAD DUP1 PUSH1 0x40 ADD PUSH1 0x40 MSTORE DUP1 PUSH1 0x1 DUP2 MSTORE PUSH1 0x20 ADD PUSH32 0x2D00000000000000000000000000000000000000000000000000000000000000 DUP2 MSTORE POP PUSH1 0x40 MLOAD DUP1 PUSH1 0x40 ADD PUSH1 0x40 MSTORE DUP1 PUSH1 0x1 DUP2 MSTORE PUSH1 0x20 ADD PUSH32 0x2D00000000000000000000000000000000000000000000000000000000000000 DUP2 MSTORE POP PUSH1 0x40 MLOAD DUP1 PUSH1 0x40 ADD PUSH1 0x40 MSTORE DUP1 PUSH1 0x1 DUP2 MSTORE PUSH1 0x20 ADD PUSH32 0x2D00000000000000000000000000000000000000000000000000000000000000 DUP2 MSTORE POP PUSH3 0x1AC PUSH1 0x20 SHL PUSH1 0x20 SHR JUMP JUMPDEST POP PUSH3 0xF22 JUMP JUMPDEST PUSH1 0x0 DUP1 DUP8 MLOAD GT PUSH3 0x1F4 JUMPI PUSH1 0x40 MLOAD PUSH32 0x8C379A000000000000000000000000000000000000000000000000000000000 DUP2 MSTORE PUSH1 0x4 ADD PUSH3 0x1EB SWAP1 PUSH3 0x99D JUMP JUMPDEST PUSH1 0x40 MLOAD DUP1 SWAP2 SUB SWAP1 REVERT JUMPDEST PUSH1 0x0 DUP7 MLOAD GT PUSH3 0x23B JUMPI PUSH1 0x40 MLOAD PUSH32 0x8C379A000000000000000000000000000000000000000000000000000000000 DUP2 MSTORE PUSH1 0x4 ADD PUSH3 0x232 SWAP1 PUSH3 0xA0F JUMP JUMPDEST PUSH1 0x40 MLOAD DUP1 SWAP2 SUB SWAP1 REVERT JUMPDEST PUSH1 0x0 DUP6 GT PUSH3 0x281 JUMPI PUSH1 0x40 MLOAD PUSH32 0x8C379A000000000000000000000000000000000000000000000000000000000 DUP2 MSTORE PUSH1 0x4 ADD PUSH3 0x278 SWAP1 PUSH3 0xAA7 JUMP JUMPDEST PUSH1 0x40 MLOAD DUP1 SWAP2 SUB SWAP1 REVERT JUMPDEST PUSH1 0x0 DUP5 MLOAD GT PUSH3 0x2C8 JUMPI PUSH1 0x40 MLOAD PUSH32 0x8C379A000000000000000000000000000000000000000000000000000000000 DUP2 MSTORE PUSH1 0x4 ADD PUSH3 0x2BF SWAP1 PUSH3 0xB19 JUMP JUMPDEST PUSH1 0x40 MLOAD DUP1 SWAP2 SUB SWAP1 REVERT JUMPDEST PUSH1 0x0 DUP4 MLOAD GT PUSH3 0x30F JUMPI PUSH1 0x40 MLOAD PUSH32 0x8C379A000000000000000000000000000000000000000000000000000000000 DUP2 MSTORE PUSH1 0x4 ADD PUSH3 0x306 SWAP1 PUSH3 0xB8B JUMP JUMPDEST PUSH1 0x40 MLOAD DUP1 SWAP2 SUB SWAP1 REVERT JUMPDEST PUSH1 0x0 DUP3 MLOAD GT PUSH3 0x356 JUMPI PUSH1 0x40 MLOAD PUSH32 0x8C379A000000000000000000000000000000000000000000000000000000000 DUP2 MSTORE PUSH1 0x4 ADD PUSH3 0x34D SWAP1 PUSH3 0xBFD JUMP JUMPDEST PUSH1 0x40 MLOAD DUP1 SWAP2 SUB SWAP1 REVERT JUMPDEST PUSH1 0x40 MLOAD DUP1 PUSH2 0x120 ADD PUSH1 0x40 MSTORE DUP1 PUSH1 0x0 SLOAD DUP2 MSTORE PUSH1 0x20 ADD DUP9 DUP2 MSTORE PUSH1 0x20 ADD DUP8 DUP2 MSTORE PUSH1 0x20 ADD DUP7 DUP2 MSTORE PUSH1 0x20 ADD DUP6 DUP2 MSTORE PUSH1 0x20 ADD DUP5 DUP2 MSTORE PUSH1 0x20 ADD DUP4 DUP2 MSTORE PUSH1 0x20 ADD TIMESTAMP DUP2 MSTORE PUSH1 0x20 ADD PUSH1 0x0 ISZERO ISZERO DUP2 MSTORE POP PUSH1 0x4 PUSH1 0x0 DUP1 SLOAD DUP2 MSTORE PUSH1 0x20 ADD SWAP1 DUP2 MSTORE PUSH1 0x20 ADD PUSH1 0x0 KECCAK256 PUSH1 0x0 DUP3 ADD MLOAD DUP2 PUSH1 0x0 ADD SSTORE PUSH1 0x20 DUP3 ADD MLOAD DUP2 PUSH1 0x1 ADD SWAP1 DUP2 PUSH3 0x3D0 SWAP2 SWAP1 PUSH3 0x855 JUMP JUMPDEST POP PUSH1 0x40 DUP3 ADD MLOAD DUP2 PUSH1 0x2 ADD SWAP1 DUP2 PUSH3 0x3E8 SWAP2 SWAP1 PUSH3 0x855 JUMP JUMPDEST POP PUSH1 0x60 DUP3 ADD MLOAD DUP2 PUSH1 0x3 ADD SSTORE PUSH1 0x80 DUP3 ADD MLOAD DUP2 PUSH1 0x4 ADD SWAP1 DUP2 PUSH3 0x40A SWAP2 SWAP1 PUSH3 0x855 JUMP JUMPDEST POP PUSH1 0xA0 DUP3 ADD MLOAD DUP2 PUSH1 0x5 ADD SWAP1 DUP2 PUSH3 0x422 SWAP2 SWAP1 PUSH3 0x855 JUMP JUMPDEST POP PUSH1 0xC0 DUP3 ADD MLOAD DUP2 PUSH1 0x6 ADD SWAP1 DUP2 PUSH3 0x43A SWAP2 SWAP1 PUSH3 0x855 JUMP JUMPDEST POP PUSH1 0xE0 DUP3 ADD MLOAD DUP2 PUSH1 0x7 ADD SSTORE PUSH2 0x100 DUP3 ADD MLOAD DUP2 PUSH1 0x8 ADD PUSH1 0x0 PUSH2 0x100 EXP DUP2 SLOAD DUP2 PUSH1 0xFF MUL NOT AND SWAP1 DUP4 ISZERO ISZERO MUL OR SWAP1 SSTORE POP SWAP1 POP POP PUSH1 0x3 PUSH1 0x4 PUSH1 0x0 DUP1 SLOAD DUP2 MSTORE PUSH1 0x20 ADD SWAP1 DUP2 MSTORE PUSH1 0x20 ADD PUSH1 0x0 KECCAK256 SWAP1 DUP1 PUSH1 0x1 DUP2 SLOAD ADD DUP1 DUP3 SSTORE DUP1 SWAP2 POP POP PUSH1 0x1 SWAP1 SUB SWAP1 PUSH1 0x0 MSTORE PUSH1 0x20 PUSH1 0x0 KECCAK256 SWAP1 PUSH1 0x9 MUL ADD PUSH1 0x0 SWAP1 SWAP2 SWAP1 SWAP2 SWAP1 SWAP2 POP PUSH1 0x0 DUP3 ADD SLOAD DUP2 PUSH1 0x0 ADD SSTORE PUSH1 0x1 DUP3 ADD DUP2 PUSH1 0x1 ADD SWAP1 DUP2 PUSH3 0x4C8 SWAP2 SWAP1 PUSH3 0xC37 JUMP JUMPDEST POP PUSH1 0x2 DUP3 ADD DUP2 PUSH1 0x2 ADD SWAP1 DUP2 PUSH3 0x4DF SWAP2 SWAP1 PUSH3 0xC37 JUMP JUMPDEST POP PUSH1 0x3 DUP3 ADD SLOAD DUP2 PUSH1 0x3 ADD SSTORE PUSH1 0x4 DUP3 ADD DUP2 PUSH1 0x4 ADD SWAP1 DUP2 PUSH3 0x500 SWAP2 SWAP1 PUSH3 0xC37 JUMP JUMPDEST POP PUSH1 0x5 DUP3 ADD DUP2 PUSH1 0x5 ADD SWAP1 DUP2 PUSH3 0x517 SWAP2 SWAP1 PUSH3 0xC37 JUMP JUMPDEST POP PUSH1 0x6 DUP3 ADD DUP2 PUSH1 0x6 ADD SWAP1 DUP2 PUSH3 0x52E SWAP2 SWAP1 PUSH3 0xC37 JUMP JUMPDEST POP PUSH1 0x7 DUP3 ADD SLOAD DUP2 PUSH1 0x7 ADD SSTORE PUSH1 0x8 DUP3 ADD PUSH1 0x0 SWAP1 SLOAD SWAP1 PUSH2 0x100 EXP SWAP1 DIV PUSH1 0xFF AND DUP2 PUSH1 0x8 ADD PUSH1 0x0 PUSH2 0x100 EXP DUP2 SLOAD DUP2 PUSH1 0xFF MUL NOT AND SWAP1 DUP4 ISZERO ISZERO MUL OR SWAP1 SSTORE POP POP POP PUSH1 0x0 DUP1 DUP2 SLOAD DUP1 SWAP3 SWAP2 SWAP1 PUSH3 0x57C SWAP1 PUSH3 0xD67 JUMP JUMPDEST SWAP2 SWAP1 POP SSTORE POP PUSH32 0x8FAC587D8E0D9C1391A1C70968EA4A41AF4E79696FE91D79DB7605E431B00E49 PUSH1 0x0 SLOAD DUP9 DUP9 DUP9 DUP9 DUP9 DUP9 TIMESTAMP PUSH1 0x0 PUSH1 0x40 MLOAD PUSH3 0x5C5 SWAP10 SWAP9 SWAP8 SWAP7 SWAP6 SWAP5 SWAP4 SWAP3 SWAP2 SWAP1 PUSH3 0xE60 JUMP JUMPDEST PUSH1 0x40 MLOAD DUP1 SWAP2 SUB SWAP1 LOG1 PUSH1 0x1 SWAP1 POP SWAP7 SWAP6 POP POP POP POP POP POP JUMP JUMPDEST PUSH1 0x0 DUP2 MLOAD SWAP1 POP SWAP2 SWAP1 POP JUMP JUMPDEST PUSH32 0x4E487B7100000000000000000000000000000000000000000000000000000000 PUSH1 0x0 MSTORE PUSH1 0x41 PUSH1 0x4 MSTORE PUSH1 0x24 PUSH1 0x0 REVERT JUMPDEST PUSH32 0x4E487B7100000000000000000000000000000000000000000000000000000000 PUSH1 0x0 MSTORE PUSH1 0x22 PUSH1 0x4 MSTORE PUSH1 0x24 PUSH1 0x0 REVERT JUMPDEST PUSH1 0x0 PUSH1 0x2 DUP3 DIV SWAP1 POP PUSH1 0x1 DUP3 AND DUP1 PUSH3 0x65D JUMPI PUSH1 0x7F DUP3 AND SWAP2 POP JUMPDEST PUSH1 0x20 DUP3 LT DUP2 SUB PUSH3 0x673 JUMPI PUSH3 0x672 PUSH3 0x615 JUMP JUMPDEST JUMPDEST POP SWAP2 SWAP1 POP JUMP JUMPDEST PUSH1 0x0 DUP2 SWAP1 POP DUP2 PUSH1 0x0 MSTORE PUSH1 0x20 PUSH1 0x0 KECCAK256 SWAP1 POP SWAP2 SWAP1 POP JUMP JUMPDEST PUSH1 0x0 PUSH1 0x20 PUSH1 0x1F DUP4 ADD DIV SWAP1 POP SWAP2 SWAP1 POP JUMP JUMPDEST PUSH1 0x0 DUP3 DUP3 SHL SWAP1 POP SWAP3 SWAP2 POP POP JUMP JUMPDEST PUSH1 0x0 PUSH1 0x8 DUP4 MUL PUSH3 0x6DD PUSH32 0xFFFFFFFFFFFFFFFFFFFFFFFFFFFFFFFFFFFFFFFFFFFFFFFFFFFFFFFFFFFFFFFF DUP3 PUSH3 0x69E JUMP JUMPDEST PUSH3 0x6E9 DUP7 DUP4 PUSH3 0x69E JUMP JUMPDEST SWAP6 POP DUP1 NOT DUP5 AND SWAP4 POP DUP1 DUP7 AND DUP5 OR SWAP3 POP POP POP SWAP4 SWAP3 POP POP POP JUMP JUMPDEST PUSH1 0x0 DUP2 SWAP1 POP SWAP2 SWAP1 POP JUMP JUMPDEST PUSH1 0x0 DUP2 SWAP1 POP SWAP2 SWAP1 POP JUMP JUMPDEST PUSH1 0x0 PUSH3 0x736 PUSH3 0x730 PUSH3 0x72A DUP5 PUSH3 0x701 JUMP JUMPDEST PUSH3 0x70B JUMP JUMPDEST PUSH3 0x701 JUMP JUMPDEST SWAP1 POP SWAP2 SWAP1 POP JUMP JUMPDEST PUSH1 0x0 DUP2 SWAP1 POP SWAP2 SWAP1 POP JUMP JUMPDEST PUSH3 0x752 DUP4 PUSH3 0x715 JUMP JUMPDEST PUSH3 0x76A PUSH3 0x761 DUP3 PUSH3 0x73D JUMP JUMPDEST DUP5 DUP5 SLOAD PUSH3 0x6AB JUMP JUMPDEST DUP3 SSTORE POP POP POP POP JUMP JUMPDEST PUSH1 0x0 SWAP1 JUMP JUMPDEST PUSH3 0x781 PUSH3 0x772 JUMP JUMPDEST PUSH3 0x78E DUP2 DUP5 DUP5 PUSH3 0x747 JUMP JUMPDEST POP POP POP JUMP JUMPDEST JUMPDEST DUP2 DUP2 LT ISZERO PUSH3 0x7B6 JUMPI PUSH3 0x7AA PUSH1 0x0 DUP3 PUSH3 0x777 JUMP JUMPDEST PUSH1 0x1 DUP2 ADD SWAP1 POP PUSH3 0x794 JUMP JUMPDEST POP POP JUMP JUMPDEST PUSH1 0x1F DUP3 GT ISZERO PUSH3 0x805 JUMPI PUSH3 0x7CF DUP2 PUSH3 0x679 JUMP JUMPDEST PUSH3 0x7DA DUP5 PUSH3 0x68E JUMP JUMPDEST DUP2 ADD PUSH1 0x20 DUP6 LT ISZERO PUSH3 0x7EA JUMPI DUP2 SWAP1 POP JUMPDEST PUSH3 0x802 PUSH3 0x7F9 DUP6 PUSH3 0x68E JUMP JUMPDEST DUP4 ADD DUP3 PUSH3 0x793 JUMP JUMPDEST POP POP JUMPDEST POP POP POP JUMP JUMPDEST PUSH1 0x0 DUP3 DUP3 SHR SWAP1 POP SWAP3 SWAP2 POP POP JUMP JUMPDEST PUSH1 0x0 PUSH3 0x82A PUSH1 0x0 NOT DUP5 PUSH1 0x8 MUL PUSH3 0x80A JUMP JUMPDEST NOT DUP1 DUP4 AND SWAP2 POP POP SWAP3 SWAP2 POP POP JUMP JUMPDEST PUSH1 0x0 PUSH3 0x845 DUP4 DUP4 PUSH3 0x817 JUMP JUMPDEST SWAP2 POP DUP3 PUSH1 0x2 MUL DUP3 OR SWAP1 POP SWAP3 SWAP2 POP POP JUMP JUMPDEST PUSH3 0x860 DUP3 PUSH3 0x5DB JUMP JUMPDEST PUSH8 0xFFFFFFFFFFFFFFFF DUP2 GT ISZERO PUSH3 0x87C JUMPI PUSH3 0x87B PUSH3 0x5E6 JUMP JUMPDEST JUMPDEST PUSH3 0x888 DUP3 SLOAD PUSH3 0x644 JUMP JUMPDEST PUSH3 0x895 DUP3 DUP3 DUP6 PUSH3 0x7BA JUMP JUMPDEST PUSH1 0x0 PUSH1 0x20 SWAP1 POP PUSH1 0x1F DUP4 GT PUSH1 0x1 DUP2 EQ PUSH3 0x8CD JUMPI PUSH1 0x0 DUP5 ISZERO PUSH3 0x8B8 JUMPI DUP3 DUP8 ADD MLOAD SWAP1 POP JUMPDEST PUSH3 0x8C4 DUP6 DUP3 PUSH3 0x837 JUMP JUMPDEST DUP7 SSTORE POP PUSH3 0x934 JUMP JUMPDEST PUSH1 0x1F NOT DUP5 AND PUSH3 0x8DD DUP7 PUSH3 0x679 JUMP JUMPDEST PUSH1 0x0 JUMPDEST DUP3 DUP2 LT ISZERO PUSH3 0x907 JUMPI DUP5 DUP10 ADD MLOAD DUP3 SSTORE PUSH1 0x1 DUP3 ADD SWAP2 POP PUSH1 0x20 DUP6 ADD SWAP5 POP PUSH1 0x20 DUP2 ADD SWAP1 POP PUSH3 0x8E0 JUMP JUMPDEST DUP7 DUP4 LT ISZERO PUSH3 0x927 JUMPI DUP5 DUP10 ADD MLOAD PUSH3 0x923 PUSH1 0x1F DUP10 AND DUP3 PUSH3 0x817 JUMP JUMPDEST DUP4 SSTORE POP JUMPDEST PUSH1 0x1 PUSH1 0x2 DUP9 MUL ADD DUP9 SSTORE POP POP POP JUMPDEST POP POP POP POP POP POP JUMP JUMPDEST PUSH1 0x0 DUP3 DUP3 MSTORE PUSH1 0x20 DUP3 ADD SWAP1 POP SWAP3 SWAP2 POP POP JUMP JUMPDEST PUSH32 0x54797065557365722063616E6E6F7420626520656D7074790000000000000000 PUSH1 0x0 DUP3 ADD MSTORE POP JUMP JUMPDEST PUSH1 0x0 PUSH3 0x985 PUSH1 0x18 DUP4 PUSH3 0x93C JUMP JUMPDEST SWAP2 POP PUSH3 0x992 DUP3 PUSH3 0x94D JUMP JUMPDEST PUSH1 0x20 DUP3 ADD SWAP1 POP SWAP2 SWAP1 POP JUMP JUMPDEST PUSH1 0x0 PUSH1 0x20 DUP3 ADD SWAP1 POP DUP2 DUP2 SUB PUSH1 0x0 DUP4 ADD MSTORE PUSH3 0x9B8 DUP2 PUSH3 0x976 JUMP JUMPDEST SWAP1 POP SWAP2 SWAP1 POP JUMP JUMPDEST PUSH32 0x547970654964652063616E6E6F7420626520656D707479000000000000000000 PUSH1 0x0 DUP3 ADD MSTORE POP JUMP JUMPDEST PUSH1 0x0 PUSH3 0x9F7 PUSH1 0x17 DUP4 PUSH3 0x93C JUMP JUMPDEST SWAP2 POP PUSH3 0xA04 DUP3 PUSH3 0x9BF JUMP JUMPDEST PUSH1 0x20 DUP3 ADD SWAP1 POP SWAP2 SWAP1 POP JUMP JUMPDEST PUSH1 0x0 PUSH1 0x20 DUP3 ADD SWAP1 POP DUP2 DUP2 SUB PUSH1 0x0 DUP4 ADD MSTORE PUSH3 0xA2A DUP2 PUSH3 0x9E8 JUMP JUMPDEST SWAP1 POP SWAP2 SWAP1 POP JUMP JUMPDEST PUSH32 0x4964656E74696669636174696F6E206D75737420626520677265617465722074 PUSH1 0x0 DUP3 ADD MSTORE PUSH32 0x68616E2030000000000000000000000000000000000000000000000000000000 PUSH1 0x20 DUP3 ADD MSTORE POP JUMP JUMPDEST PUSH1 0x0 PUSH3 0xA8F PUSH1 0x25 DUP4 PUSH3 0x93C JUMP JUMPDEST SWAP2 POP PUSH3 0xA9C DUP3 PUSH3 0xA31 JUMP JUMPDEST PUSH1 0x40 DUP3 ADD SWAP1 POP SWAP2 SWAP1 POP JUMP JUMPDEST PUSH1 0x0 PUSH1 0x20 DUP3 ADD SWAP1 POP DUP2 DUP2 SUB PUSH1 0x0 DUP4 ADD MSTORE PUSH3 0xAC2 DUP2 PUSH3 0xA80 JUMP JUMPDEST SWAP1 POP SWAP2 SWAP1 POP JUMP JUMPDEST PUSH32 0x4E616D65732063616E6E6F7420626520656D7074790000000000000000000000 PUSH1 0x0 DUP3 ADD MSTORE POP JUMP JUMPDEST PUSH1 0x0 PUSH3 0xB01 PUSH1 0x15 DUP4 PUSH3 0x93C JUMP JUMPDEST SWAP2 POP PUSH3 0xB0E DUP3 PUSH3 0xAC9 JUMP JUMPDEST PUSH1 0x20 DUP3 ADD SWAP1 POP SWAP2 SWAP1 POP JUMP JUMPDEST PUSH1 0x0 PUSH1 0x20 DUP3 ADD SWAP1 POP DUP2 DUP2 SUB PUSH1 0x0 DUP4 ADD MSTORE PUSH3 0xB34 DUP2 PUSH3 0xAF2 JUMP JUMPDEST SWAP1 POP SWAP2 SWAP1 POP JUMP JUMPDEST PUSH32 0x4C6173744E616D65732063616E6E6F7420626520656D70747900000000000000 PUSH1 0x0 DUP3 ADD MSTORE POP JUMP JUMPDEST PUSH1 0x0 PUSH3 0xB73 PUSH1 0x19 DUP4 PUSH3 0x93C JUMP JUMPDEST SWAP2 POP PUSH3 0xB80 DUP3 PUSH3 0xB3B JUMP JUMPDEST PUSH1 0x20 DUP3 ADD SWAP1 POP SWAP2 SWAP1 POP JUMP JUMPDEST PUSH1 0x0 PUSH1 0x20 DUP3 ADD SWAP1 POP DUP2 DUP2 SUB PUSH1 0x0 DUP4 ADD MSTORE PUSH3 0xBA6 DUP2 PUSH3 0xB64 JUMP JUMPDEST SWAP1 POP SWAP2 SWAP1 POP JUMP JUMPDEST PUSH32 0x44617465526571756573742063616E6E6F7420626520656D7074790000000000 PUSH1 0x0 DUP3 ADD MSTORE POP JUMP JUMPDEST PUSH1 0x0 PUSH3 0xBE5 PUSH1 0x1B DUP4 PUSH3 0x93C JUMP JUMPDEST SWAP2 POP PUSH3 0xBF2 DUP3 PUSH3 0xBAD JUMP JUMPDEST PUSH1 0x20 DUP3 ADD SWAP1 POP SWAP2 SWAP1 POP JUMP JUMPDEST PUSH1 0x0 PUSH1 0x20 DUP3 ADD SWAP1 POP DUP2 DUP2 SUB PUSH1 0x0 DUP4 ADD MSTORE PUSH3 0xC18 DUP2 PUSH3 0xBD6 JUMP JUMPDEST SWAP1 POP SWAP2 SWAP1 POP JUMP JUMPDEST PUSH1 0x0 DUP2 SLOAD SWAP1 POP PUSH3 0xC30 DUP2 PUSH3 0x644 JUMP JUMPDEST SWAP1 POP SWAP2 SWAP1 POP JUMP JUMPDEST DUP2 DUP2 SUB PUSH3 0xC47 JUMPI POP POP PUSH3 0xD36 JUMP JUMPDEST PUSH3 0xC52 DUP3 PUSH3 0xC1F JUMP JUMPDEST PUSH8 0xFFFFFFFFFFFFFFFF DUP2 GT ISZERO PUSH3 0xC6E JUMPI PUSH3 0xC6D PUSH3 0x5E6 JUMP JUMPDEST JUMPDEST PUSH3 0xC7A DUP3 SLOAD PUSH3 0x644 JUMP JUMPDEST PUSH3 0xC87 DUP3 DUP3 DUP6 PUSH3 0x7BA JUMP JUMPDEST PUSH1 0x0 PUSH1 0x1F DUP4 GT PUSH1 0x1 DUP2 EQ PUSH3 0xCBB JUMPI PUSH1 0x0 DUP5 ISZERO PUSH3 0xCA6 JUMPI DUP3 DUP8 ADD SLOAD SWAP1 POP JUMPDEST PUSH3 0xCB2 DUP6 DUP3 PUSH3 0x837 JUMP JUMPDEST DUP7 SSTORE POP PUSH3 0xD2F JUMP JUMPDEST PUSH1 0x1F NOT DUP5 AND PUSH3 0xCCB DUP8 PUSH3 0x679 JUMP JUMPDEST SWAP7 POP PUSH3 0xCD8 DUP7 PUSH3 0x679 JUMP JUMPDEST PUSH1 0x0 JUMPDEST DUP3 DUP2 LT ISZERO PUSH3 0xD02 JUMPI DUP5 DUP10 ADD SLOAD DUP3 SSTORE PUSH1 0x1 DUP3 ADD SWAP2 POP PUSH1 0x1 DUP6 ADD SWAP5 POP PUSH1 0x20 DUP2 ADD SWAP1 POP PUSH3 0xCDB JUMP JUMPDEST DUP7 DUP4 LT ISZERO PUSH3 0xD22 JUMPI DUP5 DUP10 ADD SLOAD PUSH3 0xD1E PUSH1 0x1F DUP10 AND DUP3 PUSH3 0x817 JUMP JUMPDEST DUP4 SSTORE POP JUMPDEST PUSH1 0x1 PUSH1 0x2 DUP9 MUL ADD DUP9 SSTORE POP POP POP JUMPDEST POP POP POP POP POP POP JUMPDEST JUMP JUMPDEST PUSH32 0x4E487B7100000000000000000000000000000000000000000000000000000000 PUSH1 0x0 MSTORE PUSH1 0x11 PUSH1 0x4 MSTORE PUSH1 0x24 PUSH1 0x0 REVERT JUMPDEST PUSH1 0x0 PUSH3 0xD74 DUP3 PUSH3 0x701 JUMP JUMPDEST SWAP2 POP PUSH32 0xFFFFFFFFFFFFFFFFFFFFFFFFFFFFFFFFFFFFFFFFFFFFFFFFFFFFFFFFFFFFFFFF DUP3 SUB PUSH3 0xDA9 JUMPI PUSH3 0xDA8 PUSH3 0xD38 JUMP JUMPDEST JUMPDEST PUSH1 0x1 DUP3 ADD SWAP1 POP SWAP2 SWAP1 POP JUMP JUMPDEST PUSH3 0xDBF DUP2 PUSH3 0x701 JUMP JUMPDEST DUP3 MSTORE POP POP JUMP JUMPDEST PUSH1 0x0 JUMPDEST DUP4 DUP2 LT ISZERO PUSH3 0xDE5 JUMPI DUP1 DUP3 ADD MLOAD DUP2 DUP5 ADD MSTORE PUSH1 0x20 DUP2 ADD SWAP1 POP PUSH3 0xDC8 JUMP JUMPDEST PUSH1 0x0 DUP5 DUP5 ADD MSTORE POP POP POP POP JUMP JUMPDEST PUSH1 0x0 PUSH1 0x1F NOT PUSH1 0x1F DUP4 ADD AND SWAP1 POP SWAP2 SWAP1 POP JUMP JUMPDEST PUSH1 0x0 PUSH3 0xE0F DUP3 PUSH3 0x5DB JUMP JUMPDEST PUSH3 0xE1B DUP2 DUP6 PUSH3 0x93C JUMP JUMPDEST SWAP4 POP PUSH3 0xE2D DUP2 DUP6 PUSH1 0x20 DUP7 ADD PUSH3 0xDC5 JUMP JUMPDEST PUSH3 0xE38 DUP2 PUSH3 0xDF1 JUMP JUMPDEST DUP5 ADD SWAP2 POP POP SWAP3 SWAP2 POP POP JUMP JUMPDEST PUSH1 0x0 DUP2 ISZERO ISZERO SWAP1 POP SWAP2 SWAP1 POP JUMP JUMPDEST PUSH3 0xE5A DUP2 PUSH3 0xE43 JUMP JUMPDEST DUP3 MSTORE POP POP JUMP JUMPDEST PUSH1 0x0 PUSH2 0x120 DUP3 ADD SWAP1 POP PUSH3 0xE78 PUSH1 0x0 DUP4 ADD DUP13 PUSH3 0xDB4 JUMP JUMPDEST DUP2 DUP2 SUB PUSH1 0x20 DUP4 ADD MSTORE PUSH3 0xE8C DUP2 DUP12 PUSH3 0xE02 JUMP JUMPDEST SWAP1 POP DUP2 DUP2 SUB PUSH1 0x40 DUP4 ADD MSTORE PUSH3 0xEA2 DUP2 DUP11 PUSH3 0xE02 JUMP JUMPDEST SWAP1 POP PUSH3 0xEB3 PUSH1 0x60 DUP4 ADD DUP10 PUSH3 0xDB4 JUMP JUMPDEST DUP2 DUP2 SUB PUSH1 0x80 DUP4 ADD MSTORE PUSH3 0xEC7 DUP2 DUP9 PUSH3 0xE02 JUMP JUMPDEST SWAP1 POP DUP2 DUP2 SUB PUSH1 0xA0 DUP4 ADD MSTORE PUSH3 0xEDD DUP2 DUP8 PUSH3 0xE02 JUMP JUMPDEST SWAP1 POP DUP2 DUP2 SUB PUSH1 0xC0 DUP4 ADD MSTORE PUSH3 0xEF3 DUP2 DUP7 PUSH3 0xE02 JUMP JUMPDEST SWAP1 POP PUSH3 0xF04 PUSH1 0xE0 DUP4 ADD DUP6 PUSH3 0xDB4 JUMP JUMPDEST PUSH3 0xF14 PUSH2 0x100 DUP4 ADD DUP5 PUSH3 0xE4F JUMP JUMPDEST SWAP11 SWAP10 POP POP POP POP POP POP POP POP POP POP JUMP JUMPDEST PUSH2 0x25A1 DUP1 PUSH3 0xF32 PUSH1 0x0 CODECOPY PUSH1 0x0 RETURN INVALID PUSH1 0x80 PUSH1 0x40 MSTORE CALLVALUE DUP1 ISZERO PUSH2 0x10 JUMPI PUSH1 0x0 DUP1 REVERT JUMPDEST POP PUSH1 0x4 CALLDATASIZE LT PUSH2 0x93 JUMPI PUSH1 0x0 CALLDATALOAD PUSH1 0xE0 SHR DUP1 PUSH4 0x8DA5CB5B GT PUSH2 0x66 JUMPI DUP1 PUSH4 0x8DA5CB5B EQ PUSH2 0x14E JUMPI DUP1 PUSH4 0x8EC28A0B EQ PUSH2 0x16C JUMPI DUP1 PUSH4 0xCB782A66 EQ PUSH2 0x19C JUMPI DUP1 PUSH4 0xE8025D77 EQ PUSH2 0x1D4 JUMPI DUP1 PUSH4 0xF0EB62CF EQ PUSH2 0x1F0 JUMPI PUSH2 0x93 JUMP JUMPDEST DUP1 PUSH4 0x12194E30 EQ PUSH2 0x98 JUMPI DUP1 PUSH4 0x392B30D9 EQ PUSH2 0xD0 JUMPI DUP1 PUSH4 0x545A153A EQ PUSH2 0xEE JUMPI DUP1 PUSH4 0x6B8FF574 EQ PUSH2 0x11E JUMPI JUMPDEST PUSH1 0x0 DUP1 REVERT JUMPDEST PUSH2 0xB2 PUSH1 0x4 DUP1 CALLDATASIZE SUB DUP2 ADD SWAP1 PUSH2 0xAD SWAP2 SWAP1 PUSH2 0x16E0 JUMP JUMPDEST PUSH2 0x20E JUMP JUMPDEST PUSH1 0x40 MLOAD PUSH2 0xC7 SWAP10 SWAP9 SWAP8 SWAP7 SWAP6 SWAP5 SWAP4 SWAP3 SWAP2 SWAP1 PUSH2 0x17C7 JUMP JUMPDEST PUSH1 0x40 MLOAD DUP1 SWAP2 SUB SWAP1 RETURN JUMPDEST PUSH2 0xD8 PUSH2 0x521 JUMP JUMPDEST PUSH1 0x40 MLOAD PUSH2 0xE5 SWAP2 SWAP1 PUSH2 0x1A82 JUMP JUMPDEST PUSH1 0x40 MLOAD DUP1 SWAP2 SUB SWAP1 RETURN JUMPDEST PUSH2 0x108 PUSH1 0x4 DUP1 CALLDATASIZE SUB DUP2 ADD SWAP1 PUSH2 0x103 SWAP2 SWAP1 PUSH2 0x16E0 JUMP JUMPDEST PUSH2 0x924 JUMP JUMPDEST PUSH1 0x40 MLOAD PUSH2 0x115 SWAP2 SWAP1 PUSH2 0x1AA4 JUMP JUMPDEST PUSH1 0x40 MLOAD DUP1 SWAP2 SUB SWAP1 RETURN JUMPDEST PUSH2 0x138 PUSH1 0x4 DUP1 CALLDATASIZE SUB DUP2 ADD SWAP1 PUSH2 0x133 SWAP2 SWAP1 PUSH2 0x16E0 JUMP JUMPDEST PUSH2 0x9D4 JUMP JUMPDEST PUSH1 0x40 MLOAD PUSH2 0x145 SWAP2 SWAP1 PUSH2 0x1ABF JUMP JUMPDEST PUSH1 0x40 MLOAD DUP1 SWAP2 SUB SWAP1 RETURN JUMPDEST PUSH2 0x156 PUSH2 0xB18 JUMP JUMPDEST PUSH1 0x40 MLOAD PUSH2 0x163 SWAP2 SWAP1 PUSH2 0x1B22 JUMP JUMPDEST PUSH1 0x40 MLOAD DUP1 SWAP2 SUB SWAP1 RETURN JUMPDEST PUSH2 0x186 PUSH1 0x4 DUP1 CALLDATASIZE SUB DUP2 ADD SWAP1 PUSH2 0x181 SWAP2 SWAP1 PUSH2 0x1C72 JUMP JUMPDEST PUSH2 0xB3E JUMP JUMPDEST PUSH1 0x40 MLOAD PUSH2 0x193 SWAP2 SWAP1 PUSH2 0x1D8B JUMP JUMPDEST PUSH1 0x40 MLOAD DUP1 SWAP2 SUB SWAP1 RETURN JUMPDEST PUSH2 0x1B6 PUSH1 0x4 DUP1 CALLDATASIZE SUB DUP2 ADD SWAP1 PUSH2 0x1B1 SWAP2 SWAP1 PUSH2 0x16E0 JUMP JUMPDEST PUSH2 0xF43 JUMP JUMPDEST PUSH1 0x40 MLOAD PUSH2 0x1CB SWAP10 SWAP9 SWAP8 SWAP7 SWAP6 SWAP5 SWAP4 SWAP3 SWAP2 SWAP1 PUSH2 0x17C7 JUMP JUMPDEST PUSH1 0x40 MLOAD DUP1 SWAP2 SUB SWAP1 RETURN JUMPDEST PUSH2 0x1EE PUSH1 0x4 DUP1 CALLDATASIZE SUB DUP2 ADD SWAP1 PUSH2 0x1E9 SWAP2 SWAP1 PUSH2 0x16E0 JUMP JUMPDEST PUSH2 0x1246 JUMP JUMPDEST STOP JUMPDEST PUSH2 0x1F8 PUSH2 0x1608 JUMP JUMPDEST PUSH1 0x40 MLOAD PUSH2 0x205 SWAP2 SWAP1 PUSH2 0x1ABF JUMP JUMPDEST PUSH1 0x40 MLOAD DUP1 SWAP2 SUB SWAP1 RETURN JUMPDEST PUSH1 0x3 DUP2 DUP2 SLOAD DUP2 LT PUSH2 0x21E JUMPI PUSH1 0x0 DUP1 REVERT JUMPDEST SWAP1 PUSH1 0x0 MSTORE PUSH1 0x20 PUSH1 0x0 KECCAK256 SWAP1 PUSH1 0x9 MUL ADD PUSH1 0x0 SWAP2 POP SWAP1 POP DUP1 PUSH1 0x0 ADD SLOAD SWAP1 DUP1 PUSH1 0x1 ADD DUP1 SLOAD PUSH2 0x247 SWAP1 PUSH2 0x1DD5 JUMP JUMPDEST DUP1 PUSH1 0x1F ADD PUSH1 0x20 DUP1 SWAP2 DIV MUL PUSH1 0x20 ADD PUSH1 0x40 MLOAD SWAP1 DUP2 ADD PUSH1 0x40 MSTORE DUP1 SWAP3 SWAP2 SWAP1 DUP2 DUP2 MSTORE PUSH1 0x20 ADD DUP3 DUP1 SLOAD PUSH2 0x273 SWAP1 PUSH2 0x1DD5 JUMP JUMPDEST DUP1 ISZERO PUSH2 0x2C0 JUMPI DUP1 PUSH1 0x1F LT PUSH2 0x295 JUMPI PUSH2 0x100 DUP1 DUP4 SLOAD DIV MUL DUP4 MSTORE SWAP2 PUSH1 0x20 ADD SWAP2 PUSH2 0x2C0 JUMP JUMPDEST DUP3 ADD SWAP2 SWAP1 PUSH1 0x0 MSTORE PUSH1 0x20 PUSH1 0x0 KECCAK256 SWAP1 JUMPDEST DUP2 SLOAD DUP2 MSTORE SWAP1 PUSH1 0x1 ADD SWAP1 PUSH1 0x20 ADD DUP1 DUP4 GT PUSH2 0x2A3 JUMPI DUP3 SWAP1 SUB PUSH1 0x1F AND DUP3 ADD SWAP2 JUMPDEST POP POP POP POP POP SWAP1 DUP1 PUSH1 0x2 ADD DUP1 SLOAD PUSH2 0x2D5 SWAP1 PUSH2 0x1DD5 JUMP JUMPDEST DUP1 PUSH1 0x1F ADD PUSH1 0x20 DUP1 SWAP2 DIV MUL PUSH1 0x20 ADD PUSH1 0x40 MLOAD SWAP1 DUP2 ADD PUSH1 0x40 MSTORE DUP1 SWAP3 SWAP2 SWAP1 DUP2 DUP2 MSTORE PUSH1 0x20 ADD DUP3 DUP1 SLOAD PUSH2 0x301 SWAP1 PUSH2 0x1DD5 JUMP JUMPDEST DUP1 ISZERO PUSH2 0x34E JUMPI DUP1 PUSH1 0x1F LT PUSH2 0x323 JUMPI PUSH2 0x100 DUP1 DUP4 SLOAD DIV MUL DUP4 MSTORE SWAP2 PUSH1 0x20 ADD SWAP2 PUSH2 0x34E JUMP JUMPDEST DUP3 ADD SWAP2 SWAP1 PUSH1 0x0 MSTORE PUSH1 0x20 PUSH1 0x0 KECCAK256 SWAP1 JUMPDEST DUP2 SLOAD DUP2 MSTORE SWAP1 PUSH1 0x1 ADD SWAP1 PUSH1 0x20 ADD DUP1 DUP4 GT PUSH2 0x331 JUMPI DUP3 SWAP1 SUB PUSH1 0x1F AND DUP3 ADD SWAP2 JUMPDEST POP POP POP POP POP SWAP1 DUP1 PUSH1 0x3 ADD SLOAD SWAP1 DUP1 PUSH1 0x4 ADD DUP1 SLOAD PUSH2 0x369 SWAP1 PUSH2 0x1DD5 JUMP JUMPDEST DUP1 PUSH1 0x1F ADD PUSH1 0x20 DUP1 SWAP2 DIV MUL PUSH1 0x20 ADD PUSH1 0x40 MLOAD SWAP1 DUP2 ADD PUSH1 0x40 MSTORE DUP1 SWAP3 SWAP2 SWAP1 DUP2 DUP2 MSTORE PUSH1 0x20 ADD DUP3 DUP1 SLOAD PUSH2 0x395 SWAP1 PUSH2 0x1DD5 JUMP JUMPDEST DUP1 ISZERO PUSH2 0x3E2 JUMPI DUP1 PUSH1 0x1F LT PUSH2 0x3B7 JUMPI PUSH2 0x100 DUP1 DUP4 SLOAD DIV MUL DUP4 MSTORE SWAP2 PUSH1 0x20 ADD SWAP2 PUSH2 0x3E2 JUMP JUMPDEST DUP3 ADD SWAP2 SWAP1 PUSH1 0x0 MSTORE PUSH1 0x20 PUSH1 0x0 KECCAK256 SWAP1 JUMPDEST DUP2 SLOAD DUP2 MSTORE SWAP1 PUSH1 0x1 ADD SWAP1 PUSH1 0x20 ADD DUP1 DUP4 GT PUSH2 0x3C5 JUMPI DUP3 SWAP1 SUB PUSH1 0x1F AND DUP3 ADD SWAP2 JUMPDEST POP POP POP POP POP SWAP1 DUP1 PUSH1 0x5 ADD DUP1 SLOAD PUSH2 0x3F7 SWAP1 PUSH2 0x1DD5 JUMP JUMPDEST DUP1 PUSH1 0x1F ADD PUSH1 0x20 DUP1 SWAP2 DIV MUL PUSH1 0x20 ADD PUSH1 0x40 MLOAD SWAP1 DUP2 ADD PUSH1 0x40 MSTORE DUP1 SWAP3 SWAP2 SWAP1 DUP2 DUP2 MSTORE PUSH1 0x20 ADD DUP3 DUP1 SLOAD PUSH2 0x423 SWAP1 PUSH2 0x1DD5 JUMP JUMPDEST DUP1 ISZERO PUSH2 0x470 JUMPI DUP1 PUSH1 0x1F LT PUSH2 0x445 JUMPI PUSH2 0x100 DUP1 DUP4 SLOAD DIV MUL DUP4 MSTORE SWAP2 PUSH1 0x20 ADD SWAP2 PUSH2 0x470 JUMP JUMPDEST DUP3 ADD SWAP2 SWAP1 PUSH1 0x0 MSTORE PUSH1 0x20 PUSH1 0x0 KECCAK256 SWAP1 JUMPDEST DUP2 SLOAD DUP2 MSTORE SWAP1 PUSH1 0x1 ADD SWAP1 PUSH1 0x20 ADD DUP1 DUP4 GT PUSH2 0x453 JUMPI DUP3 SWAP1 SUB PUSH1 0x1F AND DUP3 ADD SWAP2 JUMPDEST POP POP POP POP POP SWAP1 DUP1 PUSH1 0x6 ADD DUP1 SLOAD PUSH2 0x485 SWAP1 PUSH2 0x1DD5 JUMP JUMPDEST DUP1 PUSH1 0x1F ADD PUSH1 0x20 DUP1 SWAP2 DIV MUL PUSH1 0x20 ADD PUSH1 0x40 MLOAD SWAP1 DUP2 ADD PUSH1 0x40 MSTORE DUP1 SWAP3 SWAP2 SWAP1 DUP2 DUP2 MSTORE PUSH1 0x20 ADD DUP3 DUP1 SLOAD PUSH2 0x4B1 SWAP1 PUSH2 0x1DD5 JUMP JUMPDEST DUP1 ISZERO PUSH2 0x4FE JUMPI DUP1 PUSH1 0x1F LT PUSH2 0x4D3 JUMPI PUSH2 0x100 DUP1 DUP4 SLOAD DIV MUL DUP4 MSTORE SWAP2 PUSH1 0x20 ADD SWAP2 PUSH2 0x4FE JUMP JUMPDEST DUP3 ADD SWAP2 SWAP1 PUSH1 0x0 MSTORE PUSH1 0x20 PUSH1 0x0 KECCAK256 SWAP1 JUMPDEST DUP2 SLOAD DUP2 MSTORE SWAP1 PUSH1 0x1 ADD SWAP1 PUSH1 0x20 ADD DUP1 DUP4 GT PUSH2 0x4E1 JUMPI DUP3 SWAP1 SUB PUSH1 0x1F AND DUP3 ADD SWAP2 JUMPDEST POP POP POP POP POP SWAP1 DUP1 PUSH1 0x7 ADD SLOAD SWAP1 DUP1 PUSH1 0x8 ADD PUSH1 0x0 SWAP1 SLOAD SWAP1 PUSH2 0x100 EXP SWAP1 DIV PUSH1 0xFF AND SWAP1 POP DUP10 JUMP JUMPDEST PUSH1 0x60 PUSH1 0x1 PUSH1 0x0 SWAP1 SLOAD SWAP1 PUSH2 0x100 EXP SWAP1 DIV PUSH20 0xFFFFFFFFFFFFFFFFFFFFFFFFFFFFFFFFFFFFFFFF AND PUSH20 0xFFFFFFFFFFFFFFFFFFFFFFFFFFFFFFFFFFFFFFFF AND CALLER PUSH20 0xFFFFFFFFFFFFFFFFFFFFFFFFFFFFFFFFFFFFFFFF AND EQ PUSH2 0x5B3 JUMPI PUSH1 0x40 MLOAD PUSH32 0x8C379A000000000000000000000000000000000000000000000000000000000 DUP2 MSTORE PUSH1 0x4 ADD PUSH2 0x5AA SWAP1 PUSH2 0x1E52 JUMP JUMPDEST PUSH1 0x40 MLOAD DUP1 SWAP2 SUB SWAP1 REVERT JUMPDEST PUSH1 0x3 DUP1 SLOAD DUP1 PUSH1 0x20 MUL PUSH1 0x20 ADD PUSH1 0x40 MLOAD SWAP1 DUP2 ADD PUSH1 0x40 MSTORE DUP1 SWAP3 SWAP2 SWAP1 DUP2 DUP2 MSTORE PUSH1 0x20 ADD PUSH1 0x0 SWAP1 JUMPDEST DUP3 DUP3 LT ISZERO PUSH2 0x91B JUMPI DUP4 DUP3 SWAP1 PUSH1 0x0 MSTORE PUSH1 0x20 PUSH1 0x0 KECCAK256 SWAP1 PUSH1 0x9 MUL ADD PUSH1 0x40 MLOAD DUP1 PUSH2 0x120 ADD PUSH1 0x40 MSTORE SWAP1 DUP2 PUSH1 0x0 DUP3 ADD SLOAD DUP2 MSTORE PUSH1 0x20 ADD PUSH1 0x1 DUP3 ADD DUP1 SLOAD PUSH2 0x613 SWAP1 PUSH2 0x1DD5 JUMP JUMPDEST DUP1 PUSH1 0x1F ADD PUSH1 0x20 DUP1 SWAP2 DIV MUL PUSH1 0x20 ADD PUSH1 0x40 MLOAD SWAP1 DUP2 ADD PUSH1 0x40 MSTORE DUP1 SWAP3 SWAP2 SWAP1 DUP2 DUP2 MSTORE PUSH1 0x20 ADD DUP3 DUP1 SLOAD PUSH2 0x63F SWAP1 PUSH2 0x1DD5 JUMP JUMPDEST DUP1 ISZERO PUSH2 0x68C JUMPI DUP1 PUSH1 0x1F LT PUSH2 0x661 JUMPI PUSH2 0x100 DUP1 DUP4 SLOAD DIV MUL DUP4 MSTORE SWAP2 PUSH1 0x20 ADD SWAP2 PUSH2 0x68C JUMP JUMPDEST DUP3 ADD SWAP2 SWAP1 PUSH1 0x0 MSTORE PUSH1 0x20 PUSH1 0x0 KECCAK256 SWAP1 JUMPDEST DUP2 SLOAD DUP2 MSTORE SWAP1 PUSH1 0x1 ADD SWAP1 PUSH1 0x20 ADD DUP1 DUP4 GT PUSH2 0x66F JUMPI DUP3 SWAP1 SUB PUSH1 0x1F AND DUP3 ADD SWAP2 JUMPDEST POP POP POP POP POP DUP2 MSTORE PUSH1 0x20 ADD PUSH1 0x2 DUP3 ADD DUP1 SLOAD PUSH2 0x6A5 SWAP1 PUSH2 0x1DD5 JUMP JUMPDEST DUP1 PUSH1 0x1F ADD PUSH1 0x20 DUP1 SWAP2 DIV MUL PUSH1 0x20 ADD PUSH1 0x40 MLOAD SWAP1 DUP2 ADD PUSH1 0x40 MSTORE DUP1 SWAP3 SWAP2 SWAP1 DUP2 DUP2 MSTORE PUSH1 0x20 ADD DUP3 DUP1 SLOAD PUSH2 0x6D1 SWAP1 PUSH2 0x1DD5 JUMP JUMPDEST DUP1 ISZERO PUSH2 0x71E JUMPI DUP1 PUSH1 0x1F LT PUSH2 0x6F3 JUMPI PUSH2 0x100 DUP1 DUP4 SLOAD DIV MUL DUP4 MSTORE SWAP2 PUSH1 0x20 ADD SWAP2 PUSH2 0x71E JUMP JUMPDEST DUP3 ADD SWAP2 SWAP1 PUSH1 0x0 MSTORE PUSH1 0x20 PUSH1 0x0 KECCAK256 SWAP1 JUMPDEST DUP2 SLOAD DUP2 MSTORE SWAP1 PUSH1 0x1 ADD SWAP1 PUSH1 0x20 ADD DUP1 DUP4 GT PUSH2 0x701 JUMPI DUP3 SWAP1 SUB PUSH1 0x1F AND DUP3 ADD SWAP2 JUMPDEST POP POP POP POP POP DUP2 MSTORE PUSH1 0x20 ADD PUSH1 0x3 DUP3 ADD SLOAD DUP2 MSTORE PUSH1 0x20 ADD PUSH1 0x4 DUP3 ADD DUP1 SLOAD PUSH2 0x741 SWAP1 PUSH2 0x1DD5 JUMP JUMPDEST DUP1 PUSH1 0x1F ADD PUSH1 0x20 DUP1 SWAP2 DIV MUL PUSH1 0x20 ADD PUSH1 0x40 MLOAD SWAP1 DUP2 ADD PUSH1 0x40 MSTORE DUP1 SWAP3 SWAP2 SWAP1 DUP2 DUP2 MSTORE PUSH1 0x20 ADD DUP3 DUP1 SLOAD PUSH2 0x76D SWAP1 PUSH2 0x1DD5 JUMP JUMPDEST DUP1 ISZERO PUSH2 0x7BA JUMPI DUP1 PUSH1 0x1F LT PUSH2 0x78F JUMPI PUSH2 0x100 DUP1 DUP4 SLOAD DIV MUL DUP4 MSTORE SWAP2 PUSH1 0x20 ADD SWAP2 PUSH2 0x7BA JUMP JUMPDEST DUP3 ADD SWAP2 SWAP1 PUSH1 0x0 MSTORE PUSH1 0x20 PUSH1 0x0 KECCAK256 SWAP1 JUMPDEST DUP2 SLOAD DUP2 MSTORE SWAP1 PUSH1 0x1 ADD SWAP1 PUSH1 0x20 ADD DUP1 DUP4 GT PUSH2 0x79D JUMPI DUP3 SWAP1 SUB PUSH1 0x1F AND DUP3 ADD SWAP2 JUMPDEST POP POP POP POP POP DUP2 MSTORE PUSH1 0x20 ADD PUSH1 0x5 DUP3 ADD DUP1 SLOAD PUSH2 0x7D3 SWAP1 PUSH2 0x1DD5 JUMP JUMPDEST DUP1 PUSH1 0x1F ADD PUSH1 0x20 DUP1 SWAP2 DIV MUL PUSH1 0x20 ADD PUSH1 0x40 MLOAD SWAP1 DUP2 ADD PUSH1 0x40 MSTORE DUP1 SWAP3 SWAP2 SWAP1 DUP2 DUP2 MSTORE PUSH1 0x20 ADD DUP3 DUP1 SLOAD PUSH2 0x7FF SWAP1 PUSH2 0x1DD5 JUMP JUMPDEST DUP1 ISZERO PUSH2 0x84C JUMPI DUP1 PUSH1 0x1F LT PUSH2 0x821 JUMPI PUSH2 0x100 DUP1 DUP4 SLOAD DIV MUL DUP4 MSTORE SWAP2 PUSH1 0x20 ADD SWAP2 PUSH2 0x84C JUMP JUMPDEST DUP3 ADD SWAP2 SWAP1 PUSH1 0x0 MSTORE PUSH1 0x20 PUSH1 0x0 KECCAK256 SWAP1 JUMPDEST DUP2 SLOAD DUP2 MSTORE SWAP1 PUSH1 0x1 ADD SWAP1 PUSH1 0x20 ADD DUP1 DUP4 GT PUSH2 0x82F JUMPI DUP3 SWAP1 SUB PUSH1 0x1F AND DUP3 ADD SWAP2 JUMPDEST POP POP POP POP POP DUP2 MSTORE PUSH1 0x20 ADD PUSH1 0x6 DUP3 ADD DUP1 SLOAD PUSH2 0x865 SWAP1 PUSH2 0x1DD5 JUMP JUMPDEST DUP1 PUSH1 0x1F ADD PUSH1 0x20 DUP1 SWAP2 DIV MUL PUSH1 0x20 ADD PUSH1 0x40 MLOAD SWAP1 DUP2 ADD PUSH1 0x40 MSTORE DUP1 SWAP3 SWAP2 SWAP1 DUP2 DUP2 MSTORE PUSH1 0x20 ADD DUP3 DUP1 SLOAD PUSH2 0x891 SWAP1 PUSH2 0x1DD5 JUMP JUMPDEST DUP1 ISZERO PUSH2 0x8DE JUMPI DUP1 PUSH1 0x1F LT PUSH2 0x8B3 JUMPI PUSH2 0x100 DUP1 DUP4 SLOAD DIV MUL DUP4 MSTORE SWAP2 PUSH1 0x20 ADD SWAP2 PUSH2 0x8DE JUMP JUMPDEST DUP3 ADD SWAP2 SWAP1 PUSH1 0x0 MSTORE PUSH1 0x20 PUSH1 0x0 KECCAK256 SWAP1 JUMPDEST DUP2 SLOAD DUP2 MSTORE SWAP1 PUSH1 0x1 ADD SWAP1 PUSH1 0x20 ADD DUP1 DUP4 GT PUSH2 0x8C1 JUMPI DUP3 SWAP1 SUB PUSH1 0x1F AND DUP3 ADD SWAP2 JUMPDEST POP POP POP POP POP DUP2 MSTORE PUSH1 0x20 ADD PUSH1 0x7 DUP3 ADD SLOAD DUP2 MSTORE PUSH1 0x20 ADD PUSH1 0x8 DUP3 ADD PUSH1 0x0 SWAP1 SLOAD SWAP1 PUSH2 0x100 EXP SWAP1 DIV PUSH1 0xFF AND ISZERO ISZERO ISZERO ISZERO DUP2 MSTORE POP POP DUP2 MSTORE PUSH1 0x20 ADD SWAP1 PUSH1 0x1 ADD SWAP1 PUSH2 0x5D5 JUMP JUMPDEST POP POP POP POP SWAP1 POP SWAP1 JUMP JUMPDEST PUSH1 0x0 PUSH1 0x1 PUSH1 0x0 SWAP1 SLOAD SWAP1 PUSH2 0x100 EXP SWAP1 DIV PUSH20 0xFFFFFFFFFFFFFFFFFFFFFFFFFFFFFFFFFFFFFFFF AND PUSH20 0xFFFFFFFFFFFFFFFFFFFFFFFFFFFFFFFFFFFFFFFF AND CALLER PUSH20 0xFFFFFFFFFFFFFFFFFFFFFFFFFFFFFFFFFFFFFFFF AND EQ PUSH2 0x9B6 JUMPI PUSH1 0x40 MLOAD PUSH32 0x8C379A000000000000000000000000000000000000000000000000000000000 DUP2 MSTORE PUSH1 0x4 ADD PUSH2 0x9AD SWAP1 PUSH2 0x1E52 JUMP JUMPDEST PUSH1 0x40 MLOAD DUP1 SWAP2 SUB SWAP1 REVERT JUMPDEST PUSH1 0x4 PUSH1 0x0 DUP4 DUP2 MSTORE PUSH1 0x20 ADD SWAP1 DUP2 MSTORE PUSH1 0x20 ADD PUSH1 0x0 KECCAK256 PUSH1 0x0 ADD SLOAD SWAP1 POP SWAP2 SWAP1 POP JUMP JUMPDEST PUSH1 0x60 PUSH1 0x0 PUSH1 0x40 MLOAD DUP1 PUSH1 0x40 ADD PUSH1 0x40 MSTORE DUP1 PUSH1 0xC DUP2 MSTORE PUSH1 0x20 ADD PUSH32 0x4E6F206578697374652E2E2E0000000000000000000000000000000000000000 DUP2 MSTORE POP SWAP1 POP PUSH1 0x0 JUMPDEST PUSH1 0x3 DUP1 SLOAD SWAP1 POP DUP2 LT ISZERO PUSH2 0xB0E JUMPI DUP4 PUSH1 0x3 DUP3 DUP2 SLOAD DUP2 LT PUSH2 0xA35 JUMPI PUSH2 0xA34 PUSH2 0x1E72 JUMP JUMPDEST JUMPDEST SWAP1 PUSH1 0x0 MSTORE PUSH1 0x20 PUSH1 0x0 KECCAK256 SWAP1 PUSH1 0x9 MUL ADD PUSH1 0x0 ADD SLOAD SUB PUSH2 0xB01 JUMPI PUSH1 0x3 DUP2 DUP2 SLOAD DUP2 LT PUSH2 0xA60 JUMPI PUSH2 0xA5F PUSH2 0x1E72 JUMP JUMPDEST JUMPDEST SWAP1 PUSH1 0x0 MSTORE PUSH1 0x20 PUSH1 0x0 KECCAK256 SWAP1 PUSH1 0x9 MUL ADD PUSH1 0x4 ADD DUP1 SLOAD PUSH2 0xA7C SWAP1 PUSH2 0x1DD5 JUMP JUMPDEST DUP1 PUSH1 0x1F ADD PUSH1 0x20 DUP1 SWAP2 DIV MUL PUSH1 0x20 ADD PUSH1 0x40 MLOAD SWAP1 DUP2 ADD PUSH1 0x40 MSTORE DUP1 SWAP3 SWAP2 SWAP1 DUP2 DUP2 MSTORE PUSH1 0x20 ADD DUP3 DUP1 SLOAD PUSH2 0xAA8 SWAP1 PUSH2 0x1DD5 JUMP JUMPDEST DUP1 ISZERO PUSH2 0xAF5 JUMPI DUP1 PUSH1 0x1F LT PUSH2 0xACA JUMPI PUSH2 0x100 DUP1 DUP4 SLOAD DIV MUL DUP4 MSTORE SWAP2 PUSH1 0x20 ADD SWAP2 PUSH2 0xAF5 JUMP JUMPDEST DUP3 ADD SWAP2 SWAP1 PUSH1 0x0 MSTORE PUSH1 0x20 PUSH1 0x0 KECCAK256 SWAP1 JUMPDEST DUP2 SLOAD DUP2 MSTORE SWAP1 PUSH1 0x1 ADD SWAP1 PUSH1 0x20 ADD DUP1 DUP4 GT PUSH2 0xAD8 JUMPI DUP3 SWAP1 SUB PUSH1 0x1F AND DUP3 ADD SWAP2 JUMPDEST POP POP POP POP POP SWAP2 POP PUSH2 0xB0E JUMP JUMPDEST DUP1 DUP1 PUSH1 0x1 ADD SWAP2 POP POP PUSH2 0xA13 JUMP JUMPDEST POP DUP1 SWAP2 POP POP SWAP2 SWAP1 POP JUMP JUMPDEST PUSH1 0x1 PUSH1 0x0 SWAP1 SLOAD SWAP1 PUSH2 0x100 EXP SWAP1 DIV PUSH20 0xFFFFFFFFFFFFFFFFFFFFFFFFFFFFFFFFFFFFFFFF AND DUP2 JUMP JUMPDEST PUSH1 0x0 DUP1 DUP8 MLOAD GT PUSH2 0xB83 JUMPI PUSH1 0x40 MLOAD PUSH32 0x8C379A000000000000000000000000000000000000000000000000000000000 DUP2 MSTORE PUSH1 0x4 ADD PUSH2 0xB7A SWAP1 PUSH2 0x1EED JUMP JUMPDEST PUSH1 0x40 MLOAD DUP1 SWAP2 SUB SWAP1 REVERT JUMPDEST PUSH1 0x0 DUP7 MLOAD GT PUSH2 0xBC7 JUMPI PUSH1 0x40 MLOAD PUSH32 0x8C379A000000000000000000000000000000000000000000000000000000000 DUP2 MSTORE PUSH1 0x4 ADD PUSH2 0xBBE SWAP1 PUSH2 0x1F59 JUMP JUMPDEST PUSH1 0x40 MLOAD DUP1 SWAP2 SUB SWAP1 REVERT JUMPDEST PUSH1 0x0 DUP6 GT PUSH2 0xC0A JUMPI PUSH1 0x40 MLOAD PUSH32 0x8C379A000000000000000000000000000000000000000000000000000000000 DUP2 MSTORE PUSH1 0x4 ADD PUSH2 0xC01 SWAP1 PUSH2 0x1FEB JUMP JUMPDEST PUSH1 0x40 MLOAD DUP1 SWAP2 SUB SWAP1 REVERT JUMPDEST PUSH1 0x0 DUP5 MLOAD GT PUSH2 0xC4E JUMPI PUSH1 0x40 MLOAD PUSH32 0x8C379A000000000000000000000000000000000000000000000000000000000 DUP2 MSTORE PUSH1 0x4 ADD PUSH2 0xC45 SWAP1 PUSH2 0x2057 JUMP JUMPDEST PUSH1 0x40 MLOAD DUP1 SWAP2 SUB SWAP1 REVERT JUMPDEST PUSH1 0x0 DUP4 MLOAD GT PUSH2 0xC92 JUMPI PUSH1 0x40 MLOAD PUSH32 0x8C379A000000000000000000000000000000000000000000000000000000000 DUP2 MSTORE PUSH1 0x4 ADD PUSH2 0xC89 SWAP1 PUSH2 0x20C3 JUMP JUMPDEST PUSH1 0x40 MLOAD DUP1 SWAP2 SUB SWAP1 REVERT JUMPDEST PUSH1 0x0 DUP3 MLOAD GT PUSH2 0xCD6 JUMPI PUSH1 0x40 MLOAD PUSH32 0x8C379A000000000000000000000000000000000000000000000000000000000 DUP2 MSTORE PUSH1 0x4 ADD PUSH2 0xCCD SWAP1 PUSH2 0x212F JUMP JUMPDEST PUSH1 0x40 MLOAD DUP1 SWAP2 SUB SWAP1 REVERT JUMPDEST PUSH1 0x40 MLOAD DUP1 PUSH2 0x120 ADD PUSH1 0x40 MSTORE DUP1 PUSH1 0x0 SLOAD DUP2 MSTORE PUSH1 0x20 ADD DUP9 DUP2 MSTORE PUSH1 0x20 ADD DUP8 DUP2 MSTORE PUSH1 0x20 ADD DUP7 DUP2 MSTORE PUSH1 0x20 ADD DUP6 DUP2 MSTORE PUSH1 0x20 ADD DUP5 DUP2 MSTORE PUSH1 0x20 ADD DUP4 DUP2 MSTORE PUSH1 0x20 ADD TIMESTAMP DUP2 MSTORE PUSH1 0x20 ADD PUSH1 0x0 ISZERO ISZERO DUP2 MSTORE POP PUSH1 0x4 PUSH1 0x0 DUP1 SLOAD DUP2 MSTORE PUSH1 0x20 ADD SWAP1 DUP2 MSTORE PUSH1 0x20 ADD PUSH1 0x0 KECCAK256 PUSH1 0x0 DUP3 ADD MLOAD DUP2 PUSH1 0x0 ADD SSTORE PUSH1 0x20 DUP3 ADD MLOAD DUP2 PUSH1 0x1 ADD SWAP1 DUP2 PUSH2 0xD4E SWAP2 SWAP1 PUSH2 0x22FB JUMP JUMPDEST POP PUSH1 0x40 DUP3 ADD MLOAD DUP2 PUSH1 0x2 ADD SWAP1 DUP2 PUSH2 0xD64 SWAP2 SWAP1 PUSH2 0x22FB JUMP JUMPDEST POP PUSH1 0x60 DUP3 ADD MLOAD DUP2 PUSH1 0x3 ADD SSTORE PUSH1 0x80 DUP3 ADD MLOAD DUP2 PUSH1 0x4 ADD SWAP1 DUP2 PUSH2 0xD84 SWAP2 SWAP1 PUSH2 0x22FB JUMP JUMPDEST POP PUSH1 0xA0 DUP3 ADD MLOAD DUP2 PUSH1 0x5 ADD SWAP1 DUP2 PUSH2 0xD9A SWAP2 SWAP1 PUSH2 0x22FB JUMP JUMPDEST POP PUSH1 0xC0 DUP3 ADD MLOAD DUP2 PUSH1 0x6 ADD SWAP1 DUP2 PUSH2 0xDB0 SWAP2 SWAP1 PUSH2 0x22FB JUMP JUMPDEST POP PUSH1 0xE0 DUP3 ADD MLOAD DUP2 PUSH1 0x7 ADD SSTORE PUSH2 0x100 DUP3 ADD MLOAD DUP2 PUSH1 0x8 ADD PUSH1 0x0 PUSH2 0x100 EXP DUP2 SLOAD DUP2 PUSH1 0xFF MUL NOT AND SWAP1 DUP4 ISZERO ISZERO MUL OR SWAP1 SSTORE POP SWAP1 POP POP PUSH1 0x3 PUSH1 0x4 PUSH1 0x0 DUP1 SLOAD DUP2 MSTORE PUSH1 0x20 ADD SWAP1 DUP2 MSTORE PUSH1 0x20 ADD PUSH1 0x0 KECCAK256 SWAP1 DUP1 PUSH1 0x1 DUP2 SLOAD ADD DUP1 DUP3 SSTORE DUP1 SWAP2 POP POP PUSH1 0x1 SWAP1 SUB SWAP1 PUSH1 0x0 MSTORE PUSH1 0x20 PUSH1 0x0 KECCAK256 SWAP1 PUSH1 0x9 MUL ADD PUSH1 0x0 SWAP1 SWAP2 SWAP1 SWAP2 SWAP1 SWAP2 POP PUSH1 0x0 DUP3 ADD SLOAD DUP2 PUSH1 0x0 ADD SSTORE PUSH1 0x1 DUP3 ADD DUP2 PUSH1 0x1 ADD SWAP1 DUP2 PUSH2 0xE3C SWAP2 SWAP1 PUSH2 0x23E3 JUMP JUMPDEST POP PUSH1 0x2 DUP3 ADD DUP2 PUSH1 0x2 ADD SWAP1 DUP2 PUSH2 0xE51 SWAP2 SWAP1 PUSH2 0x23E3 JUMP JUMPDEST POP PUSH1 0x3 DUP3 ADD SLOAD DUP2 PUSH1 0x3 ADD SSTORE PUSH1 0x4 DUP3 ADD DUP2 PUSH1 0x4 ADD SWAP1 DUP2 PUSH2 0xE70 SWAP2 SWAP1 PUSH2 0x23E3 JUMP JUMPDEST POP PUSH1 0x5 DUP3 ADD DUP2 PUSH1 0x5 ADD SWAP1 DUP2 PUSH2 0xE85 SWAP2 SWAP1 PUSH2 0x23E3 JUMP JUMPDEST POP PUSH1 0x6 DUP3 ADD DUP2 PUSH1 0x6 ADD SWAP1 DUP2 PUSH2 0xE9A SWAP2 SWAP1 PUSH2 0x23E3 JUMP JUMPDEST POP PUSH1 0x7 DUP3 ADD SLOAD DUP2 PUSH1 0x7 ADD SSTORE PUSH1 0x8 DUP3 ADD PUSH1 0x0 SWAP1 SLOAD SWAP1 PUSH2 0x100 EXP SWAP1 DIV PUSH1 0xFF AND DUP2 PUSH1 0x8 ADD PUSH1 0x0 PUSH2 0x100 EXP DUP2 SLOAD DUP2 PUSH1 0xFF MUL NOT AND SWAP1 DUP4 ISZERO ISZERO MUL OR SWAP1 SSTORE POP POP POP PUSH1 0x0 DUP1 DUP2 SLOAD DUP1 SWAP3 SWAP2 SWAP1 PUSH2 0xEE6 SWAP1 PUSH2 0x24FA JUMP JUMPDEST SWAP2 SWAP1 POP SSTORE POP PUSH32 0x8FAC587D8E0D9C1391A1C70968EA4A41AF4E79696FE91D79DB7605E431B00E49 PUSH1 0x0 SLOAD DUP9 DUP9 DUP9 DUP9 DUP9 DUP9 TIMESTAMP PUSH1 0x0 PUSH1 0x40 MLOAD PUSH2 0xF2D SWAP10 SWAP9 SWAP8 SWAP7 SWAP6 SWAP5 SWAP4 SWAP3 SWAP2 SWAP1 PUSH2 0x17C7 JUMP JUMPDEST PUSH1 0x40 MLOAD DUP1 SWAP2 SUB SWAP1 LOG1 PUSH1 0x1 SWAP1 POP SWAP7 SWAP6 POP POP POP POP POP POP JUMP JUMPDEST PUSH1 0x4 PUSH1 0x20 MSTORE DUP1 PUSH1 0x0 MSTORE PUSH1 0x40 PUSH1 0x0 KECCAK256 PUSH1 0x0 SWAP2 POP SWAP1 POP DUP1 PUSH1 0x0 ADD SLOAD SWAP1 DUP1 PUSH1 0x1 ADD DUP1 SLOAD PUSH2 0xF6C SWAP1 PUSH2 0x1DD5 JUMP JUMPDEST DUP1 PUSH1 0x1F ADD PUSH1 0x20 DUP1 SWAP2 DIV MUL PUSH1 0x20 ADD PUSH1 0x40 MLOAD SWAP1 DUP2 ADD PUSH1 0x40 MSTORE DUP1 SWAP3 SWAP2 SWAP1 DUP2 DUP2 MSTORE PUSH1 0x20 ADD DUP3 DUP1 SLOAD PUSH2 0xF98 SWAP1 PUSH2 0x1DD5 JUMP JUMPDEST DUP1 ISZERO PUSH2 0xFE5 JUMPI DUP1 PUSH1 0x1F LT PUSH2 0xFBA JUMPI PUSH2 0x100 DUP1 DUP4 SLOAD DIV MUL DUP4 MSTORE SWAP2 PUSH1 0x20 ADD SWAP2 PUSH2 0xFE5 JUMP JUMPDEST DUP3 ADD SWAP2 SWAP1 PUSH1 0x0 MSTORE PUSH1 0x20 PUSH1 0x0 KECCAK256 SWAP1 JUMPDEST DUP2 SLOAD DUP2 MSTORE SWAP1 PUSH1 0x1 ADD SWAP1 PUSH1 0x20 ADD DUP1 DUP4 GT PUSH2 0xFC8 JUMPI DUP3 SWAP1 SUB PUSH1 0x1F AND DUP3 ADD SWAP2 JUMPDEST POP POP POP POP POP SWAP1 DUP1 PUSH1 0x2 ADD DUP1 SLOAD PUSH2 0xFFA SWAP1 PUSH2 0x1DD5 JUMP JUMPDEST DUP1 PUSH1 0x1F ADD PUSH1 0x20 DUP1 SWAP2 DIV MUL PUSH1 0x20 ADD PUSH1 0x40 MLOAD SWAP1 DUP2 ADD PUSH1 0x40 MSTORE DUP1 SWAP3 SWAP2 SWAP1 DUP2 DUP2 MSTORE PUSH1 0x20 ADD DUP3 DUP1 SLOAD PUSH2 0x1026 SWAP1 PUSH2 0x1DD5 JUMP JUMPDEST DUP1 ISZERO PUSH2 0x1073 JUMPI DUP1 PUSH1 0x1F LT PUSH2 0x1048 JUMPI PUSH2 0x100 DUP1 DUP4 SLOAD DIV MUL DUP4 MSTORE SWAP2 PUSH1 0x20 ADD SWAP2 PUSH2 0x1073 JUMP JUMPDEST DUP3 ADD SWAP2 SWAP1 PUSH1 0x0 MSTORE PUSH1 0x20 PUSH1 0x0 KECCAK256 SWAP1 JUMPDEST DUP2 SLOAD DUP2 MSTORE SWAP1 PUSH1 0x1 ADD SWAP1 PUSH1 0x20 ADD DUP1 DUP4 GT PUSH2 0x1056 JUMPI DUP3 SWAP1 SUB PUSH1 0x1F AND DUP3 ADD SWAP2 JUMPDEST POP POP POP POP POP SWAP1 DUP1 PUSH1 0x3 ADD SLOAD SWAP1 DUP1 PUSH1 0x4 ADD DUP1 SLOAD PUSH2 0x108E SWAP1 PUSH2 0x1DD5 JUMP JUMPDEST DUP1 PUSH1 0x1F ADD PUSH1 0x20 DUP1 SWAP2 DIV MUL PUSH1 0x20 ADD PUSH1 0x40 MLOAD SWAP1 DUP2 ADD PUSH1 0x40 MSTORE DUP1 SWAP3 SWAP2 SWAP1 DUP2 DUP2 MSTORE PUSH1 0x20 ADD DUP3 DUP1 SLOAD PUSH2 0x10BA SWAP1 PUSH2 0x1DD5 JUMP JUMPDEST DUP1 ISZERO PUSH2 0x1107 JUMPI DUP1 PUSH1 0x1F LT PUSH2 0x10DC JUMPI PUSH2 0x100 DUP1 DUP4 SLOAD DIV MUL DUP4 MSTORE SWAP2 PUSH1 0x20 ADD SWAP2 PUSH2 0x1107 JUMP JUMPDEST DUP3 ADD SWAP2 SWAP1 PUSH1 0x0 MSTORE PUSH1 0x20 PUSH1 0x0 KECCAK256 SWAP1 JUMPDEST DUP2 SLOAD DUP2 MSTORE SWAP1 PUSH1 0x1 ADD SWAP1 PUSH1 0x20 ADD DUP1 DUP4 GT PUSH2 0x10EA JUMPI DUP3 SWAP1 SUB PUSH1 0x1F AND DUP3 ADD SWAP2 JUMPDEST POP POP POP POP POP SWAP1 DUP1 PUSH1 0x5 ADD DUP1 SLOAD PUSH2 0x111C SWAP1 PUSH2 0x1DD5 JUMP JUMPDEST DUP1 PUSH1 0x1F ADD PUSH1 0x20 DUP1 SWAP2 DIV MUL PUSH1 0x20 ADD PUSH1 0x40 MLOAD SWAP1 DUP2 ADD PUSH1 0x40 MSTORE DUP1 SWAP3 SWAP2 SWAP1 DUP2 DUP2 MSTORE PUSH1 0x20 ADD DUP3 DUP1 SLOAD PUSH2 0x1148 SWAP1 PUSH2 0x1DD5 JUMP JUMPDEST DUP1 ISZERO PUSH2 0x1195 JUMPI DUP1 PUSH1 0x1F LT PUSH2 0x116A JUMPI PUSH2 0x100 DUP1 DUP4 SLOAD DIV MUL DUP4 MSTORE SWAP2 PUSH1 0x20 ADD SWAP2 PUSH2 0x1195 JUMP JUMPDEST DUP3 ADD SWAP2 SWAP1 PUSH1 0x0 MSTORE PUSH1 0x20 PUSH1 0x0 KECCAK256 SWAP1 JUMPDEST DUP2 SLOAD DUP2 MSTORE SWAP1 PUSH1 0x1 ADD SWAP1 PUSH1 0x20 ADD DUP1 DUP4 GT PUSH2 0x1178 JUMPI DUP3 SWAP1 SUB PUSH1 0x1F AND DUP3 ADD SWAP2 JUMPDEST POP POP POP POP POP SWAP1 DUP1 PUSH1 0x6 ADD DUP1 SLOAD PUSH2 0x11AA SWAP1 PUSH2 0x1DD5 JUMP JUMPDEST DUP1 PUSH1 0x1F ADD PUSH1 0x20 DUP1 SWAP2 DIV MUL PUSH1 0x20 ADD PUSH1 0x40 MLOAD SWAP1 DUP2 ADD PUSH1 0x40 MSTORE DUP1 SWAP3 SWAP2 SWAP1 DUP2 DUP2 MSTORE PUSH1 0x20 ADD DUP3 DUP1 SLOAD PUSH2 0x11D6 SWAP1 PUSH2 0x1DD5 JUMP JUMPDEST DUP1 ISZERO PUSH2 0x1223 JUMPI DUP1 PUSH1 0x1F LT PUSH2 0x11F8 JUMPI PUSH2 0x100 DUP1 DUP4 SLOAD DIV MUL DUP4 MSTORE SWAP2 PUSH1 0x20 ADD SWAP2 PUSH2 0x1223 JUMP JUMPDEST DUP3 ADD SWAP2 SWAP1 PUSH1 0x0 MSTORE PUSH1 0x20 PUSH1 0x0 KECCAK256 SWAP1 JUMPDEST DUP2 SLOAD DUP2 MSTORE SWAP1 PUSH1 0x1 ADD SWAP1 PUSH1 0x20 ADD DUP1 DUP4 GT PUSH2 0x1206 JUMPI DUP3 SWAP1 SUB PUSH1 0x1F AND DUP3 ADD SWAP2 JUMPDEST POP POP POP POP POP SWAP1 DUP1 PUSH1 0x7 ADD SLOAD SWAP1 DUP1 PUSH1 0x8 ADD PUSH1 0x0 SWAP1 SLOAD SWAP1 PUSH2 0x100 EXP SWAP1 DIV PUSH1 0xFF AND SWAP1 POP DUP10 JUMP JUMPDEST PUSH1 0x0 PUSH1 0x4 PUSH1 0x0 DUP4 DUP2 MSTORE PUSH1 0x20 ADD SWAP1 DUP2 MSTORE PUSH1 0x20 ADD PUSH1 0x0 KECCAK256 PUSH1 0x40 MLOAD DUP1 PUSH2 0x120 ADD PUSH1 0x40 MSTORE SWAP1 DUP2 PUSH1 0x0 DUP3 ADD SLOAD DUP2 MSTORE PUSH1 0x20 ADD PUSH1 0x1 DUP3 ADD DUP1 SLOAD PUSH2 0x1281 SWAP1 PUSH2 0x1DD5 JUMP JUMPDEST DUP1 PUSH1 0x1F ADD PUSH1 0x20 DUP1 SWAP2 DIV MUL PUSH1 0x20 ADD PUSH1 0x40 MLOAD SWAP1 DUP2 ADD PUSH1 0x40 MSTORE DUP1 SWAP3 SWAP2 SWAP1 DUP2 DUP2 MSTORE PUSH1 0x20 ADD DUP3 DUP1 SLOAD PUSH2 0x12AD SWAP1 PUSH2 0x1DD5 JUMP JUMPDEST DUP1 ISZERO PUSH2 0x12FA JUMPI DUP1 PUSH1 0x1F LT PUSH2 0x12CF JUMPI PUSH2 0x100 DUP1 DUP4 SLOAD DIV MUL DUP4 MSTORE SWAP2 PUSH1 0x20 ADD SWAP2 PUSH2 0x12FA JUMP JUMPDEST DUP3 ADD SWAP2 SWAP1 PUSH1 0x0 MSTORE PUSH1 0x20 PUSH1 0x0 KECCAK256 SWAP1 JUMPDEST DUP2 SLOAD DUP2 MSTORE SWAP1 PUSH1 0x1 ADD SWAP1 PUSH1 0x20 ADD DUP1 DUP4 GT PUSH2 0x12DD JUMPI DUP3 SWAP1 SUB PUSH1 0x1F AND DUP3 ADD SWAP2 JUMPDEST POP POP POP POP POP DUP2 MSTORE PUSH1 0x20 ADD PUSH1 0x2 DUP3 ADD DUP1 SLOAD PUSH2 0x1313 SWAP1 PUSH2 0x1DD5 JUMP JUMPDEST DUP1 PUSH1 0x1F ADD PUSH1 0x20 DUP1 SWAP2 DIV MUL PUSH1 0x20 ADD PUSH1 0x40 MLOAD SWAP1 DUP2 ADD PUSH1 0x40 MSTORE DUP1 SWAP3 SWAP2 SWAP1 DUP2 DUP2 MSTORE PUSH1 0x20 ADD DUP3 DUP1 SLOAD PUSH2 0x133F SWAP1 PUSH2 0x1DD5 JUMP JUMPDEST DUP1 ISZERO PUSH2 0x138C JUMPI DUP1 PUSH1 0x1F LT PUSH2 0x1361 JUMPI PUSH2 0x100 DUP1 DUP4 SLOAD DIV MUL DUP4 MSTORE SWAP2 PUSH1 0x20 ADD SWAP2 PUSH2 0x138C JUMP JUMPDEST DUP3 ADD SWAP2 SWAP1 PUSH1 0x0 MSTORE PUSH1 0x20 PUSH1 0x0 KECCAK256 SWAP1 JUMPDEST DUP2 SLOAD DUP2 MSTORE SWAP1 PUSH1 0x1 ADD SWAP1 PUSH1 0x20 ADD DUP1 DUP4 GT PUSH2 0x136F JUMPI DUP3 SWAP1 SUB PUSH1 0x1F AND DUP3 ADD SWAP2 JUMPDEST POP POP POP POP POP DUP2 MSTORE PUSH1 0x20 ADD PUSH1 0x3 DUP3 ADD SLOAD DUP2 MSTORE PUSH1 0x20 ADD PUSH1 0x4 DUP3 ADD DUP1 SLOAD PUSH2 0x13AF SWAP1 PUSH2 0x1DD5 JUMP JUMPDEST DUP1 PUSH1 0x1F ADD PUSH1 0x20 DUP1 SWAP2 DIV MUL PUSH1 0x20 ADD PUSH1 0x40 MLOAD SWAP1 DUP2 ADD PUSH1 0x40 MSTORE DUP1 SWAP3 SWAP2 SWAP1 DUP2 DUP2 MSTORE PUSH1 0x20 ADD DUP3 DUP1 SLOAD PUSH2 0x13DB SWAP1 PUSH2 0x1DD5 JUMP JUMPDEST DUP1 ISZERO PUSH2 0x1428 JUMPI DUP1 PUSH1 0x1F LT PUSH2 0x13FD JUMPI PUSH2 0x100 DUP1 DUP4 SLOAD DIV MUL DUP4 MSTORE SWAP2 PUSH1 0x20 ADD SWAP2 PUSH2 0x1428 JUMP JUMPDEST DUP3 ADD SWAP2 SWAP1 PUSH1 0x0 MSTORE PUSH1 0x20 PUSH1 0x0 KECCAK256 SWAP1 JUMPDEST DUP2 SLOAD DUP2 MSTORE SWAP1 PUSH1 0x1 ADD SWAP1 PUSH1 0x20 ADD DUP1 DUP4 GT PUSH2 0x140B JUMPI DUP3 SWAP1 SUB PUSH1 0x1F AND DUP3 ADD SWAP2 JUMPDEST POP POP POP POP POP DUP2 MSTORE PUSH1 0x20 ADD PUSH1 0x5 DUP3 ADD DUP1 SLOAD PUSH2 0x1441 SWAP1 PUSH2 0x1DD5 JUMP JUMPDEST DUP1 PUSH1 0x1F ADD PUSH1 0x20 DUP1 SWAP2 DIV MUL PUSH1 0x20 ADD PUSH1 0x40 MLOAD SWAP1 DUP2 ADD PUSH1 0x40 MSTORE DUP1 SWAP3 SWAP2 SWAP1 DUP2 DUP2 MSTORE PUSH1 0x20 ADD DUP3 DUP1 SLOAD PUSH2 0x146D SWAP1 PUSH2 0x1DD5 JUMP JUMPDEST DUP1 ISZERO PUSH2 0x14BA JUMPI DUP1 PUSH1 0x1F LT PUSH2 0x148F JUMPI PUSH2 0x100 DUP1 DUP4 SLOAD DIV MUL DUP4 MSTORE SWAP2 PUSH1 0x20 ADD SWAP2 PUSH2 0x14BA JUMP JUMPDEST DUP3 ADD SWAP2 SWAP1 PUSH1 0x0 MSTORE PUSH1 0x20 PUSH1 0x0 KECCAK256 SWAP1 JUMPDEST DUP2 SLOAD DUP2 MSTORE SWAP1 PUSH1 0x1 ADD SWAP1 PUSH1 0x20 ADD DUP1 DUP4 GT PUSH2 0x149D JUMPI DUP3 SWAP1 SUB PUSH1 0x1F AND DUP3 ADD SWAP2 JUMPDEST POP POP POP POP POP DUP2 MSTORE PUSH1 0x20 ADD PUSH1 0x6 DUP3 ADD DUP1 SLOAD PUSH2 0x14D3 SWAP1 PUSH2 0x1DD5 JUMP JUMPDEST DUP1 PUSH1 0x1F ADD PUSH1 0x20 DUP1 SWAP2 DIV MUL PUSH1 0x20 ADD PUSH1 0x40 MLOAD SWAP1 DUP2 ADD PUSH1 0x40 MSTORE DUP1 SWAP3 SWAP2 SWAP1 DUP2 DUP2 MSTORE PUSH1 0x20 ADD DUP3 DUP1 SLOAD PUSH2 0x14FF SWAP1 PUSH2 0x1DD5 JUMP JUMPDEST DUP1 ISZERO PUSH2 0x154C JUMPI DUP1 PUSH1 0x1F LT PUSH2 0x1521 JUMPI PUSH2 0x100 DUP1 DUP4 SLOAD DIV MUL DUP4 MSTORE SWAP2 PUSH1 0x20 ADD SWAP2 PUSH2 0x154C JUMP JUMPDEST DUP3 ADD SWAP2 SWAP1 PUSH1 0x0 MSTORE PUSH1 0x20 PUSH1 0x0 KECCAK256 SWAP1 JUMPDEST DUP2 SLOAD DUP2 MSTORE SWAP1 PUSH1 0x1 ADD SWAP1 PUSH1 0x20 ADD DUP1 DUP4 GT PUSH2 0x152F JUMPI DUP3 SWAP1 SUB PUSH1 0x1F AND DUP3 ADD SWAP2 JUMPDEST POP POP POP POP POP DUP2 MSTORE PUSH1 0x20 ADD PUSH1 0x7 DUP3 ADD SLOAD DUP2 MSTORE PUSH1 0x20 ADD PUSH1 0x8 DUP3 ADD PUSH1 0x0 SWAP1 SLOAD SWAP1 PUSH2 0x100 EXP SWAP1 DIV PUSH1 0xFF AND ISZERO ISZERO ISZERO ISZERO DUP2 MSTORE POP POP SWAP1 POP DUP1 PUSH2 0x100 ADD MLOAD ISZERO DUP2 PUSH2 0x100 ADD SWAP1 ISZERO ISZERO SWAP1 DUP2 ISZERO ISZERO DUP2 MSTORE POP POP DUP1 PUSH2 0x100 ADD MLOAD PUSH1 0x4 PUSH1 0x0 DUP5 DUP2 MSTORE PUSH1 0x20 ADD SWAP1 DUP2 MSTORE PUSH1 0x20 ADD PUSH1 0x0 KECCAK256 PUSH1 0x8 ADD PUSH1 0x0 PUSH2 0x100 EXP DUP2 SLOAD DUP2 PUSH1 0xFF MUL NOT AND SWAP1 DUP4 ISZERO ISZERO MUL OR SWAP1 SSTORE POP PUSH32 0x82EC7C8FBCAE453C45B4ED065081CC4B9C46ECBF6F9B22C05C769D4FC1B270C8 DUP3 DUP3 PUSH2 0x100 ADD MLOAD PUSH1 0x40 MLOAD PUSH2 0x15FC SWAP3 SWAP2 SWAP1 PUSH2 0x2542 JUMP JUMPDEST PUSH1 0x40 MLOAD DUP1 SWAP2 SUB SWAP1 LOG1 POP POP JUMP JUMPDEST PUSH1 0x2 DUP1 SLOAD PUSH2 0x1615 SWAP1 PUSH2 0x1DD5 JUMP JUMPDEST DUP1 PUSH1 0x1F ADD PUSH1 0x20 DUP1 SWAP2 DIV MUL PUSH1 0x20 ADD PUSH1 0x40 MLOAD SWAP1 DUP2 ADD PUSH1 0x40 MSTORE DUP1 SWAP3 SWAP2 SWAP1 DUP2 DUP2 MSTORE PUSH1 0x20 ADD DUP3 DUP1 SLOAD PUSH2 0x1641 SWAP1 PUSH2 0x1DD5 JUMP JUMPDEST DUP1 ISZERO PUSH2 0x168E JUMPI DUP1 PUSH1 0x1F LT PUSH2 0x1663 JUMPI PUSH2 0x100 DUP1 DUP4 SLOAD DIV MUL DUP4 MSTORE SWAP2 PUSH1 0x20 ADD SWAP2 PUSH2 0x168E JUMP JUMPDEST DUP3 ADD SWAP2 SWAP1 PUSH1 0x0 MSTORE PUSH1 0x20 PUSH1 0x0 KECCAK256 SWAP1 JUMPDEST DUP2 SLOAD DUP2 MSTORE SWAP1 PUSH1 0x1 ADD SWAP1 PUSH1 0x20 ADD DUP1 DUP4 GT PUSH2 0x1671 JUMPI DUP3 SWAP1 SUB PUSH1 0x1F AND DUP3 ADD SWAP2 JUMPDEST POP POP POP POP POP DUP2 JUMP JUMPDEST PUSH1 0x0 PUSH1 0x40 MLOAD SWAP1 POP SWAP1 JUMP JUMPDEST PUSH1 0x0 DUP1 REVERT JUMPDEST PUSH1 0x0 DUP1 REVERT JUMPDEST PUSH1 0x0 DUP2 SWAP1 POP SWAP2 SWAP1 POP JUMP JUMPDEST PUSH2 0x16BD DUP2 PUSH2 0x16AA JUMP JUMPDEST DUP2 EQ PUSH2 0x16C8 JUMPI PUSH1 0x0 DUP1 REVERT JUMPDEST POP JUMP JUMPDEST PUSH1 0x0 DUP2 CALLDATALOAD SWAP1 POP PUSH2 0x16DA DUP2 PUSH2 0x16B4 JUMP JUMPDEST SWAP3 SWAP2 POP POP JUMP JUMPDEST PUSH1 0x0 PUSH1 0x20 DUP3 DUP5 SUB SLT ISZERO PUSH2 0x16F6 JUMPI PUSH2 0x16F5 PUSH2 0x16A0 JUMP JUMPDEST JUMPDEST PUSH1 0x0 PUSH2 0x1704 DUP5 DUP3 DUP6 ADD PUSH2 0x16CB JUMP JUMPDEST SWAP2 POP POP SWAP3 SWAP2 POP POP JUMP JUMPDEST PUSH2 0x1716 DUP2 PUSH2 0x16AA JUMP JUMPDEST DUP3 MSTORE POP POP JUMP JUMPDEST PUSH1 0x0 DUP2 MLOAD SWAP1 POP SWAP2 SWAP1 POP JUMP JUMPDEST PUSH1 0x0 DUP3 DUP3 MSTORE PUSH1 0x20 DUP3 ADD SWAP1 POP SWAP3 SWAP2 POP POP JUMP JUMPDEST PUSH1 0x0 JUMPDEST DUP4 DUP2 LT ISZERO PUSH2 0x1756 JUMPI DUP1 DUP3 ADD MLOAD DUP2 DUP5 ADD MSTORE PUSH1 0x20 DUP2 ADD SWAP1 POP PUSH2 0x173B JUMP JUMPDEST PUSH1 0x0 DUP5 DUP5 ADD MSTORE POP POP POP POP JUMP JUMPDEST PUSH1 0x0 PUSH1 0x1F NOT PUSH1 0x1F DUP4 ADD AND SWAP1 POP SWAP2 SWAP1 POP JUMP JUMPDEST PUSH1 0x0 PUSH2 0x177E DUP3 PUSH2 0x171C JUMP JUMPDEST PUSH2 0x1788 DUP2 DUP6 PUSH2 0x1727 JUMP JUMPDEST SWAP4 POP PUSH2 0x1798 DUP2 DUP6 PUSH1 0x20 DUP7 ADD PUSH2 0x1738 JUMP JUMPDEST PUSH2 0x17A1 DUP2 PUSH2 0x1762 JUMP JUMPDEST DUP5 ADD SWAP2 POP POP SWAP3 SWAP2 POP POP JUMP JUMPDEST PUSH1 0x0 DUP2 ISZERO ISZERO SWAP1 POP SWAP2 SWAP1 POP JUMP JUMPDEST PUSH2 0x17C1 DUP2 PUSH2 0x17AC JUMP JUMPDEST DUP3 MSTORE POP POP JUMP JUMPDEST PUSH1 0x0 PUSH2 0x120 DUP3 ADD SWAP1 POP PUSH2 0x17DD PUSH1 0x0 DUP4 ADD DUP13 PUSH2 0x170D JUMP JUMPDEST DUP2 DUP2 SUB PUSH1 0x20 DUP4 ADD MSTORE PUSH2 0x17EF DUP2 DUP12 PUSH2 0x1773 JUMP JUMPDEST SWAP1 POP DUP2 DUP2 SUB PUSH1 0x40 DUP4 ADD MSTORE PUSH2 0x1803 DUP2 DUP11 PUSH2 0x1773 JUMP JUMPDEST SWAP1 POP PUSH2 0x1812 PUSH1 0x60 DUP4 ADD DUP10 PUSH2 0x170D JUMP JUMPDEST DUP2 DUP2 SUB PUSH1 0x80 DUP4 ADD MSTORE PUSH2 0x1824 DUP2 DUP9 PUSH2 0x1773 JUMP JUMPDEST SWAP1 POP DUP2 DUP2 SUB PUSH1 0xA0 DUP4 ADD MSTORE PUSH2 0x1838 DUP2 DUP8 PUSH2 0x1773 JUMP JUMPDEST SWAP1 POP DUP2 DUP2 SUB PUSH1 0xC0 DUP4 ADD MSTORE PUSH2 0x184C DUP2 DUP7 PUSH2 0x1773 JUMP JUMPDEST SWAP1 POP PUSH2 0x185B PUSH1 0xE0 DUP4 ADD DUP6 PUSH2 0x170D JUMP JUMPDEST PUSH2 0x1869 PUSH2 0x100 DUP4 ADD DUP5 PUSH2 0x17B8 JUMP JUMPDEST SWAP11 SWAP10 POP POP POP POP POP POP POP POP POP POP JUMP JUMPDEST PUSH1 0x0 DUP2 MLOAD SWAP1 POP SWAP2 SWAP1 POP JUMP JUMPDEST PUSH1 0x0 DUP3 DUP3 MSTORE PUSH1 0x20 DUP3 ADD SWAP1 POP SWAP3 SWAP2 POP POP JUMP JUMPDEST PUSH1 0x0 DUP2 SWAP1 POP PUSH1 0x20 DUP3 ADD SWAP1 POP SWAP2 SWAP1 POP JUMP JUMPDEST PUSH2 0x18AC DUP2 PUSH2 0x16AA JUMP JUMPDEST DUP3 MSTORE POP POP JUMP JUMPDEST PUSH1 0x0 DUP3 DUP3 MSTORE PUSH1 0x20 DUP3 ADD SWAP1 POP SWAP3 SWAP2 POP POP JUMP JUMPDEST PUSH1 0x0 PUSH2 0x18CE DUP3 PUSH2 0x171C JUMP JUMPDEST PUSH2 0x18D8 DUP2 DUP6 PUSH2 0x18B2 JUMP JUMPDEST SWAP4 POP PUSH2 0x18E8 DUP2 DUP6 PUSH1 0x20 DUP7 ADD PUSH2 0x1738 JUMP JUMPDEST PUSH2 0x18F1 DUP2 PUSH2 0x1762 JUMP JUMPDEST DUP5 ADD SWAP2 POP POP SWAP3 SWAP2 POP POP JUMP JUMPDEST PUSH2 0x1905 DUP2 PUSH2 0x17AC JUMP JUMPDEST DUP3 MSTORE POP POP JUMP JUMPDEST PUSH1 0x0 PUSH2 0x120 DUP4 ADD PUSH1 0x0 DUP4 ADD MLOAD PUSH2 0x1924 PUSH1 0x0 DUP7 ADD DUP3 PUSH2 0x18A3 JUMP JUMPDEST POP PUSH1 0x20 DUP4 ADD MLOAD DUP5 DUP3 SUB PUSH1 0x20 DUP7 ADD MSTORE PUSH2 0x193C DUP3 DUP3 PUSH2 0x18C3 JUMP JUMPDEST SWAP2 POP POP PUSH1 0x40 DUP4 ADD MLOAD DUP5 DUP3 SUB PUSH1 0x40 DUP7 ADD MSTORE PUSH2 0x1956 DUP3 DUP3 PUSH2 0x18C3 JUMP JUMPDEST SWAP2 POP POP PUSH1 0x60 DUP4 ADD MLOAD PUSH2 0x196B PUSH1 0x60 DUP7 ADD DUP3 PUSH2 0x18A3 JUMP JUMPDEST POP PUSH1 0x80 DUP4 ADD MLOAD DUP5 DUP3 SUB PUSH1 0x80 DUP7 ADD MSTORE PUSH2 0x1983 DUP3 DUP3 PUSH2 0x18C3 JUMP JUMPDEST SWAP2 POP POP PUSH1 0xA0 DUP4 ADD MLOAD DUP5 DUP3 SUB PUSH1 0xA0 DUP7 ADD MSTORE PUSH2 0x199D DUP3 DUP3 PUSH2 0x18C3 JUMP JUMPDEST SWAP2 POP POP PUSH1 0xC0 DUP4 ADD MLOAD DUP5 DUP3 SUB PUSH1 0xC0 DUP7 ADD MSTORE PUSH2 0x19B7 DUP3 DUP3 PUSH2 0x18C3 JUMP JUMPDEST SWAP2 POP POP PUSH1 0xE0 DUP4 ADD MLOAD PUSH2 0x19CC PUSH1 0xE0 DUP7 ADD DUP3 PUSH2 0x18A3 JUMP JUMPDEST POP PUSH2 0x100 DUP4 ADD MLOAD PUSH2 0x19E1 PUSH2 0x100 DUP7 ADD DUP3 PUSH2 0x18FC JUMP JUMPDEST POP DUP1 SWAP2 POP POP SWAP3 SWAP2 POP POP JUMP JUMPDEST PUSH1 0x0 PUSH2 0x19F8 DUP4 DUP4 PUSH2 0x190B JUMP JUMPDEST SWAP1 POP SWAP3 SWAP2 POP POP JUMP JUMPDEST PUSH1 0x0 PUSH1 0x20 DUP3 ADD SWAP1 POP SWAP2 SWAP1 POP JUMP JUMPDEST PUSH1 0x0 PUSH2 0x1A18 DUP3 PUSH2 0x1877 JUMP JUMPDEST PUSH2 0x1A22 DUP2 DUP6 PUSH2 0x1882 JUMP JUMPDEST SWAP4 POP DUP4 PUSH1 0x20 DUP3 MUL DUP6 ADD PUSH2 0x1A34 DUP6 PUSH2 0x1893 JUMP JUMPDEST DUP1 PUSH1 0x0 JUMPDEST DUP6 DUP2 LT ISZERO PUSH2 0x1A70 JUMPI DUP5 DUP5 SUB DUP10 MSTORE DUP2 MLOAD PUSH2 0x1A51 DUP6 DUP3 PUSH2 0x19EC JUMP JUMPDEST SWAP5 POP PUSH2 0x1A5C DUP4 PUSH2 0x1A00 JUMP JUMPDEST SWAP3 POP PUSH1 0x20 DUP11 ADD SWAP10 POP POP PUSH1 0x1 DUP2 ADD SWAP1 POP PUSH2 0x1A38 JUMP JUMPDEST POP DUP3 SWAP8 POP DUP8 SWAP6 POP POP POP POP POP POP SWAP3 SWAP2 POP POP JUMP JUMPDEST PUSH1 0x0 PUSH1 0x20 DUP3 ADD SWAP1 POP DUP2 DUP2 SUB PUSH1 0x0 DUP4 ADD MSTORE PUSH2 0x1A9C DUP2 DUP5 PUSH2 0x1A0D JUMP JUMPDEST SWAP1 POP SWAP3 SWAP2 POP POP JUMP JUMPDEST PUSH1 0x0 PUSH1 0x20 DUP3 ADD SWAP1 POP PUSH2 0x1AB9 PUSH1 0x0 DUP4 ADD DUP5 PUSH2 0x170D JUMP JUMPDEST SWAP3 SWAP2 POP POP JUMP JUMPDEST PUSH1 0x0 PUSH1 0x20 DUP3 ADD SWAP1 POP DUP2 DUP2 SUB PUSH1 0x0 DUP4 ADD MSTORE PUSH2 0x1AD9 DUP2 DUP5 PUSH2 0x1773 JUMP JUMPDEST SWAP1 POP SWAP3 SWAP2 POP POP JUMP JUMPDEST PUSH1 0x0 PUSH20 0xFFFFFFFFFFFFFFFFFFFFFFFFFFFFFFFFFFFFFFFF DUP3 AND SWAP1 POP SWAP2 SWAP1 POP JUMP JUMPDEST PUSH1 0x0 PUSH2 0x1B0C DUP3 PUSH2 0x1AE1 JUMP JUMPDEST SWAP1 POP SWAP2 SWAP1 POP JUMP JUMPDEST PUSH2 0x1B1C DUP2 PUSH2 0x1B01 JUMP JUMPDEST DUP3 MSTORE POP POP JUMP JUMPDEST PUSH1 0x0 PUSH1 0x20 DUP3 ADD SWAP1 POP PUSH2 0x1B37 PUSH1 0x0 DUP4 ADD DUP5 PUSH2 0x1B13 JUMP JUMPDEST SWAP3 SWAP2 POP POP JUMP JUMPDEST PUSH1 0x0 DUP1 REVERT JUMPDEST PUSH1 0x0 DUP1 REVERT JUMPDEST PUSH32 0x4E487B7100000000000000000000000000000000000000000000000000000000 PUSH1 0x0 MSTORE PUSH1 0x41 PUSH1 0x4 MSTORE PUSH1 0x24 PUSH1 0x0 REVERT JUMPDEST PUSH2 0x1B7F DUP3 PUSH2 0x1762 JUMP JUMPDEST DUP2 ADD DUP2 DUP2 LT PUSH8 0xFFFFFFFFFFFFFFFF DUP3 GT OR ISZERO PUSH2 0x1B9E JUMPI PUSH2 0x1B9D PUSH2 0x1B47 JUMP JUMPDEST JUMPDEST DUP1 PUSH1 0x40 MSTORE POP POP POP JUMP JUMPDEST PUSH1 0x0 PUSH2 0x1BB1 PUSH2 0x1696 JUMP JUMPDEST SWAP1 POP PUSH2 0x1BBD DUP3 DUP3 PUSH2 0x1B76 JUMP JUMPDEST SWAP2 SWAP1 POP JUMP JUMPDEST PUSH1 0x0 PUSH8 0xFFFFFFFFFFFFFFFF DUP3 GT ISZERO PUSH2 0x1BDD JUMPI PUSH2 0x1BDC PUSH2 0x1B47 JUMP JUMPDEST JUMPDEST PUSH2 0x1BE6 DUP3 PUSH2 0x1762 JUMP JUMPDEST SWAP1 POP PUSH1 0x20 DUP2 ADD SWAP1 POP SWAP2 SWAP1 POP JUMP JUMPDEST DUP3 DUP2 DUP4 CALLDATACOPY PUSH1 0x0 DUP4 DUP4 ADD MSTORE POP POP POP JUMP JUMPDEST PUSH1 0x0 PUSH2 0x1C15 PUSH2 0x1C10 DUP5 PUSH2 0x1BC2 JUMP JUMPDEST PUSH2 0x1BA7 JUMP JUMPDEST SWAP1 POP DUP3 DUP2 MSTORE PUSH1 0x20 DUP2 ADD DUP5 DUP5 DUP5 ADD GT ISZERO PUSH2 0x1C31 JUMPI PUSH2 0x1C30 PUSH2 0x1B42 JUMP JUMPDEST JUMPDEST PUSH2 0x1C3C DUP5 DUP3 DUP6 PUSH2 0x1BF3 JUMP JUMPDEST POP SWAP4 SWAP3 POP POP POP JUMP JUMPDEST PUSH1 0x0 DUP3 PUSH1 0x1F DUP4 ADD SLT PUSH2 0x1C59 JUMPI PUSH2 0x1C58 PUSH2 0x1B3D JUMP JUMPDEST JUMPDEST DUP2 CALLDATALOAD PUSH2 0x1C69 DUP5 DUP3 PUSH1 0x20 DUP7 ADD PUSH2 0x1C02 JUMP JUMPDEST SWAP2 POP POP SWAP3 SWAP2 POP POP JUMP JUMPDEST PUSH1 0x0 DUP1 PUSH1 0x0 DUP1 PUSH1 0x0 DUP1 PUSH1 0xC0 DUP8 DUP10 SUB SLT ISZERO PUSH2 0x1C8F JUMPI PUSH2 0x1C8E PUSH2 0x16A0 JUMP JUMPDEST JUMPDEST PUSH1 0x0 DUP8 ADD CALLDATALOAD PUSH8 0xFFFFFFFFFFFFFFFF DUP2 GT ISZERO PUSH2 0x1CAD JUMPI PUSH2 0x1CAC PUSH2 0x16A5 JUMP JUMPDEST JUMPDEST PUSH2 0x1CB9 DUP10 DUP3 DUP11 ADD PUSH2 0x1C44 JUMP JUMPDEST SWAP7 POP POP PUSH1 0x20 DUP8 ADD CALLDATALOAD PUSH8 0xFFFFFFFFFFFFFFFF DUP2 GT ISZERO PUSH2 0x1CDA JUMPI PUSH2 0x1CD9 PUSH2 0x16A5 JUMP JUMPDEST JUMPDEST PUSH2 0x1CE6 DUP10 DUP3 DUP11 ADD PUSH2 0x1C44 JUMP JUMPDEST SWAP6 POP POP PUSH1 0x40 PUSH2 0x1CF7 DUP10 DUP3 DUP11 ADD PUSH2 0x16CB JUMP JUMPDEST SWAP5 POP POP PUSH1 0x60 DUP8 ADD CALLDATALOAD PUSH8 0xFFFFFFFFFFFFFFFF DUP2 GT ISZERO PUSH2 0x1D18 JUMPI PUSH2 0x1D17 PUSH2 0x16A5 JUMP JUMPDEST JUMPDEST PUSH2 0x1D24 DUP10 DUP3 DUP11 ADD PUSH2 0x1C44 JUMP JUMPDEST SWAP4 POP POP PUSH1 0x80 DUP8 ADD CALLDATALOAD PUSH8 0xFFFFFFFFFFFFFFFF DUP2 GT ISZERO PUSH2 0x1D45 JUMPI PUSH2 0x1D44 PUSH2 0x16A5 JUMP JUMPDEST JUMPDEST PUSH2 0x1D51 DUP10 DUP3 DUP11 ADD PUSH2 0x1C44 JUMP JUMPDEST SWAP3 POP POP PUSH1 0xA0 DUP8 ADD CALLDATALOAD PUSH8 0xFFFFFFFFFFFFFFFF DUP2 GT ISZERO PUSH2 0x1D72 JUMPI PUSH2 0x1D71 PUSH2 0x16A5 JUMP JUMPDEST JUMPDEST PUSH2 0x1D7E DUP10 DUP3 DUP11 ADD PUSH2 0x1C44 JUMP JUMPDEST SWAP2 POP POP SWAP3 SWAP6 POP SWAP3 SWAP6 POP SWAP3 SWAP6 JUMP JUMPDEST PUSH1 0x0 PUSH1 0x20 DUP3 ADD SWAP1 POP PUSH2 0x1DA0 PUSH1 0x0 DUP4 ADD DUP5 PUSH2 0x17B8 JUMP JUMPDEST SWAP3 SWAP2 POP POP JUMP JUMPDEST PUSH32 0x4E487B7100000000000000000000000000000000000000000000000000000000 PUSH1 0x0 MSTORE PUSH1 0x22 PUSH1 0x4 MSTORE PUSH1 0x24 PUSH1 0x0 REVERT JUMPDEST PUSH1 0x0 PUSH1 0x2 DUP3 DIV SWAP1 POP PUSH1 0x1 DUP3 AND DUP1 PUSH2 0x1DED JUMPI PUSH1 0x7F DUP3 AND SWAP2 POP JUMPDEST PUSH1 0x20 DUP3 LT DUP2 SUB PUSH2 0x1E00 JUMPI PUSH2 0x1DFF PUSH2 0x1DA6 JUMP JUMPDEST JUMPDEST POP SWAP2 SWAP1 POP JUMP JUMPDEST PUSH32 0x6F6E6C7920746865206F776E65722063616E2065786563757465207461736B00 PUSH1 0x0 DUP3 ADD MSTORE POP JUMP JUMPDEST PUSH1 0x0 PUSH2 0x1E3C PUSH1 0x1F DUP4 PUSH2 0x1727 JUMP JUMPDEST SWAP2 POP PUSH2 0x1E47 DUP3 PUSH2 0x1E06 JUMP JUMPDEST PUSH1 0x20 DUP3 ADD SWAP1 POP SWAP2 SWAP1 POP JUMP JUMPDEST PUSH1 0x0 PUSH1 0x20 DUP3 ADD SWAP1 POP DUP2 DUP2 SUB PUSH1 0x0 DUP4 ADD MSTORE PUSH2 0x1E6B DUP2 PUSH2 0x1E2F JUMP JUMPDEST SWAP1 POP SWAP2 SWAP1 POP JUMP JUMPDEST PUSH32 0x4E487B7100000000000000000000000000000000000000000000000000000000 PUSH1 0x0 MSTORE PUSH1 0x32 PUSH1 0x4 MSTORE PUSH1 0x24 PUSH1 0x0 REVERT JUMPDEST PUSH32 0x54797065557365722063616E6E6F7420626520656D7074790000000000000000 PUSH1 0x0 DUP3 ADD MSTORE POP JUMP JUMPDEST PUSH1 0x0 PUSH2 0x1ED7 PUSH1 0x18 DUP4 PUSH2 0x1727 JUMP JUMPDEST SWAP2 POP PUSH2 0x1EE2 DUP3 PUSH2 0x1EA1 JUMP JUMPDEST PUSH1 0x20 DUP3 ADD SWAP1 POP SWAP2 SWAP1 POP JUMP JUMPDEST PUSH1 0x0 PUSH1 0x20 DUP3 ADD SWAP1 POP DUP2 DUP2 SUB PUSH1 0x0 DUP4 ADD MSTORE PUSH2 0x1F06 DUP2 PUSH2 0x1ECA JUMP JUMPDEST SWAP1 POP SWAP2 SWAP1 POP JUMP JUMPDEST PUSH32 0x547970654964652063616E6E6F7420626520656D707479000000000000000000 PUSH1 0x0 DUP3 ADD MSTORE POP JUMP JUMPDEST PUSH1 0x0 PUSH2 0x1F43 PUSH1 0x17 DUP4 PUSH2 0x1727 JUMP JUMPDEST SWAP2 POP PUSH2 0x1F4E DUP3 PUSH2 0x1F0D JUMP JUMPDEST PUSH1 0x20 DUP3 ADD SWAP1 POP SWAP2 SWAP1 POP JUMP JUMPDEST PUSH1 0x0 PUSH1 0x20 DUP3 ADD SWAP1 POP DUP2 DUP2 SUB PUSH1 0x0 DUP4 ADD MSTORE PUSH2 0x1F72 DUP2 PUSH2 0x1F36 JUMP JUMPDEST SWAP1 POP SWAP2 SWAP1 POP JUMP JUMPDEST PUSH32 0x4964656E74696669636174696F6E206D75737420626520677265617465722074 PUSH1 0x0 DUP3 ADD MSTORE PUSH32 0x68616E2030000000000000000000000000000000000000000000000000000000 PUSH1 0x20 DUP3 ADD MSTORE POP JUMP JUMPDEST PUSH1 0x0 PUSH2 0x1FD5 PUSH1 0x25 DUP4 PUSH2 0x1727 JUMP JUMPDEST SWAP2 POP PUSH2 0x1FE0 DUP3 PUSH2 0x1F79 JUMP JUMPDEST PUSH1 0x40 DUP3 ADD SWAP1 POP SWAP2 SWAP1 POP JUMP JUMPDEST PUSH1 0x0 PUSH1 0x20 DUP3 ADD SWAP1 POP DUP2 DUP2 SUB PUSH1 0x0 DUP4 ADD MSTORE PUSH2 0x2004 DUP2 PUSH2 0x1FC8 JUMP JUMPDEST SWAP1 POP SWAP2 SWAP1 POP JUMP JUMPDEST PUSH32 0x4E616D65732063616E6E6F7420626520656D7074790000000000000000000000 PUSH1 0x0 DUP3 ADD MSTORE POP JUMP JUMPDEST PUSH1 0x0 PUSH2 0x2041 PUSH1 0x15 DUP4 PUSH2 0x1727 JUMP JUMPDEST SWAP2 POP PUSH2 0x204C DUP3 PUSH2 0x200B JUMP JUMPDEST PUSH1 0x20 DUP3 ADD SWAP1 POP SWAP2 SWAP1 POP JUMP JUMPDEST PUSH1 0x0 PUSH1 0x20 DUP3 ADD SWAP1 POP DUP2 DUP2 SUB PUSH1 0x0 DUP4 ADD MSTORE PUSH2 0x2070 DUP2 PUSH2 0x2034 JUMP JUMPDEST SWAP1 POP SWAP2 SWAP1 POP JUMP JUMPDEST PUSH32 0x4C6173744E616D65732063616E6E6F7420626520656D70747900000000000000 PUSH1 0x0 DUP3 ADD MSTORE POP JUMP JUMPDEST PUSH1 0x0 PUSH2 0x20AD PUSH1 0x19 DUP4 PUSH2 0x1727 JUMP JUMPDEST SWAP2 POP PUSH2 0x20B8 DUP3 PUSH2 0x2077 JUMP JUMPDEST PUSH1 0x20 DUP3 ADD SWAP1 POP SWAP2 SWAP1 POP JUMP JUMPDEST PUSH1 0x0 PUSH1 0x20 DUP3 ADD SWAP1 POP DUP2 DUP2 SUB PUSH1 0x0 DUP4 ADD MSTORE PUSH2 0x20DC DUP2 PUSH2 0x20A0 JUMP JUMPDEST SWAP1 POP SWAP2 SWAP1 POP JUMP JUMPDEST PUSH32 0x44617465526571756573742063616E6E6F7420626520656D7074790000000000 PUSH1 0x0 DUP3 ADD MSTORE POP JUMP JUMPDEST PUSH1 0x0 PUSH2 0x2119 PUSH1 0x1B DUP4 PUSH2 0x1727 JUMP JUMPDEST SWAP2 POP PUSH2 0x2124 DUP3 PUSH2 0x20E3 JUMP JUMPDEST PUSH1 0x20 DUP3 ADD SWAP1 POP SWAP2 SWAP1 POP JUMP JUMPDEST PUSH1 0x0 PUSH1 0x20 DUP3 ADD SWAP1 POP DUP2 DUP2 SUB PUSH1 0x0 DUP4 ADD MSTORE PUSH2 0x2148 DUP2 PUSH2 0x210C JUMP JUMPDEST SWAP1 POP SWAP2 SWAP1 POP JUMP JUMPDEST PUSH1 0x0 DUP2 SWAP1 POP DUP2 PUSH1 0x0 MSTORE PUSH1 0x20 PUSH1 0x0 KECCAK256 SWAP1 POP SWAP2 SWAP1 POP JUMP JUMPDEST PUSH1 0x0 PUSH1 0x20 PUSH1 0x1F DUP4 ADD DIV SWAP1 POP SWAP2 SWAP1 POP JUMP JUMPDEST PUSH1 0x0 DUP3 DUP3 SHL SWAP1 POP SWAP3 SWAP2 POP POP JUMP JUMPDEST PUSH1 0x0 PUSH1 0x8 DUP4 MUL PUSH2 0x21B1 PUSH32 0xFFFFFFFFFFFFFFFFFFFFFFFFFFFFFFFFFFFFFFFFFFFFFFFFFFFFFFFFFFFFFFFF DUP3 PUSH2 0x2174 JUMP JUMPDEST PUSH2 0x21BB DUP7 DUP4 PUSH2 0x2174 JUMP JUMPDEST SWAP6 POP DUP1 NOT DUP5 AND SWAP4 POP DUP1 DUP7 AND DUP5 OR SWAP3 POP POP POP SWAP4 SWAP3 POP POP POP JUMP JUMPDEST PUSH1 0x0 DUP2 SWAP1 POP SWAP2 SWAP1 POP JUMP JUMPDEST PUSH1 0x0 PUSH2 0x21F8 PUSH2 0x21F3 PUSH2 0x21EE DUP5 PUSH2 0x16AA JUMP JUMPDEST PUSH2 0x21D3 JUMP JUMPDEST PUSH2 0x16AA JUMP JUMPDEST SWAP1 POP SWAP2 SWAP1 POP JUMP JUMPDEST PUSH1 0x0 DUP2 SWAP1 POP SWAP2 SWAP1 POP JUMP JUMPDEST PUSH2 0x2212 DUP4 PUSH2 0x21DD JUMP JUMPDEST PUSH2 0x2226 PUSH2 0x221E DUP3 PUSH2 0x21FF JUMP JUMPDEST DUP5 DUP5 SLOAD PUSH2 0x2181 JUMP JUMPDEST DUP3 SSTORE POP POP POP POP JUMP JUMPDEST PUSH1 0x0 SWAP1 JUMP JUMPDEST PUSH2 0x223B PUSH2 0x222E JUMP JUMPDEST PUSH2 0x2246 DUP2 DUP5 DUP5 PUSH2 0x2209 JUMP JUMPDEST POP POP POP JUMP JUMPDEST JUMPDEST DUP2 DUP2 LT ISZERO PUSH2 0x226A JUMPI PUSH2 0x225F PUSH1 0x0 DUP3 PUSH2 0x2233 JUMP JUMPDEST PUSH1 0x1 DUP2 ADD SWAP1 POP PUSH2 0x224C JUMP JUMPDEST POP POP JUMP JUMPDEST PUSH1 0x1F DUP3 GT ISZERO PUSH2 0x22AF JUMPI PUSH2 0x2280 DUP2 PUSH2 0x214F JUMP JUMPDEST PUSH2 0x2289 DUP5 PUSH2 0x2164 JUMP JUMPDEST DUP2 ADD PUSH1 0x20 DUP6 LT ISZERO PUSH2 0x2298 JUMPI DUP2 SWAP1 POP JUMPDEST PUSH2 0x22AC PUSH2 0x22A4 DUP6 PUSH2 0x2164 JUMP JUMPDEST DUP4 ADD DUP3 PUSH2 0x224B JUMP JUMPDEST POP POP JUMPDEST POP POP POP JUMP JUMPDEST PUSH1 0x0 DUP3 DUP3 SHR SWAP1 POP SWAP3 SWAP2 POP POP JUMP JUMPDEST PUSH1 0x0 PUSH2 0x22D2 PUSH1 0x0 NOT DUP5 PUSH1 0x8 MUL PUSH2 0x22B4 JUMP JUMPDEST NOT DUP1 DUP4 AND SWAP2 POP POP SWAP3 SWAP2 POP POP JUMP JUMPDEST PUSH1 0x0 PUSH2 0x22EB DUP4 DUP4 PUSH2 0x22C1 JUMP JUMPDEST SWAP2 POP DUP3 PUSH1 0x2 MUL DUP3 OR SWAP1 POP SWAP3 SWAP2 POP POP JUMP JUMPDEST PUSH2 0x2304 DUP3 PUSH2 0x171C JUMP JUMPDEST PUSH8 0xFFFFFFFFFFFFFFFF DUP2 GT ISZERO PUSH2 0x231D JUMPI PUSH2 0x231C PUSH2 0x1B47 JUMP JUMPDEST JUMPDEST PUSH2 0x2327 DUP3 SLOAD PUSH2 0x1DD5 JUMP JUMPDEST PUSH2 0x2332 DUP3 DUP3 DUP6 PUSH2 0x226E JUMP JUMPDEST PUSH1 0x0 PUSH1 0x20 SWAP1 POP PUSH1 0x1F DUP4 GT PUSH1 0x1 DUP2 EQ PUSH2 0x2365 JUMPI PUSH1 0x0 DUP5 ISZERO PUSH2 0x2353 JUMPI DUP3 DUP8 ADD MLOAD SWAP1 POP JUMPDEST PUSH2 0x235D DUP6 DUP3 PUSH2 0x22DF JUMP JUMPDEST DUP7 SSTORE POP PUSH2 0x23C5 JUMP JUMPDEST PUSH1 0x1F NOT DUP5 AND PUSH2 0x2373 DUP7 PUSH2 0x214F JUMP JUMPDEST PUSH1 0x0 JUMPDEST DUP3 DUP2 LT ISZERO PUSH2 0x239B JUMPI DUP5 DUP10 ADD MLOAD DUP3 SSTORE PUSH1 0x1 DUP3 ADD SWAP2 POP PUSH1 0x20 DUP6 ADD SWAP5 POP PUSH1 0x20 DUP2 ADD SWAP1 POP PUSH2 0x2376 JUMP JUMPDEST DUP7 DUP4 LT ISZERO PUSH2 0x23B8 JUMPI DUP5 DUP10 ADD MLOAD PUSH2 0x23B4 PUSH1 0x1F DUP10 AND DUP3 PUSH2 0x22C1 JUMP JUMPDEST DUP4 SSTORE POP JUMPDEST PUSH1 0x1 PUSH1 0x2 DUP9 MUL ADD DUP9 SSTORE POP POP POP JUMPDEST POP POP POP POP POP POP JUMP JUMPDEST PUSH1 0x0 DUP2 SLOAD SWAP1 POP PUSH2 0x23DC DUP2 PUSH2 0x1DD5 JUMP JUMPDEST SWAP1 POP SWAP2 SWAP1 POP JUMP JUMPDEST DUP2 DUP2 SUB PUSH2 0x23F1 JUMPI POP POP PUSH2 0x24C9 JUMP JUMPDEST PUSH2 0x23FA DUP3 PUSH2 0x23CD JUMP JUMPDEST PUSH8 0xFFFFFFFFFFFFFFFF DUP2 GT ISZERO PUSH2 0x2413 JUMPI PUSH2 0x2412 PUSH2 0x1B47 JUMP JUMPDEST JUMPDEST PUSH2 0x241D DUP3 SLOAD PUSH2 0x1DD5 JUMP JUMPDEST PUSH2 0x2428 DUP3 DUP3 DUP6 PUSH2 0x226E JUMP JUMPDEST PUSH1 0x0 PUSH1 0x1F DUP4 GT PUSH1 0x1 DUP2 EQ PUSH2 0x2457 JUMPI PUSH1 0x0 DUP5 ISZERO PUSH2 0x2445 JUMPI DUP3 DUP8 ADD SLOAD SWAP1 POP JUMPDEST PUSH2 0x244F DUP6 DUP3 PUSH2 0x22DF JUMP JUMPDEST DUP7 SSTORE POP PUSH2 0x24C2 JUMP JUMPDEST PUSH1 0x1F NOT DUP5 AND PUSH2 0x2465 DUP8 PUSH2 0x214F JUMP JUMPDEST SWAP7 POP PUSH2 0x2470 DUP7 PUSH2 0x214F JUMP JUMPDEST PUSH1 0x0 JUMPDEST DUP3 DUP2 LT ISZERO PUSH2 0x2498 JUMPI DUP5 DUP10 ADD SLOAD DUP3 SSTORE PUSH1 0x1 DUP3 ADD SWAP2 POP PUSH1 0x1 DUP6 ADD SWAP5 POP PUSH1 0x20 DUP2 ADD SWAP1 POP PUSH2 0x2473 JUMP JUMPDEST DUP7 DUP4 LT ISZERO PUSH2 0x24B5 JUMPI DUP5 DUP10 ADD SLOAD PUSH2 0x24B1 PUSH1 0x1F DUP10 AND DUP3 PUSH2 0x22C1 JUMP JUMPDEST DUP4 SSTORE POP JUMPDEST PUSH1 0x1 PUSH1 0x2 DUP9 MUL ADD DUP9 SSTORE POP POP POP JUMPDEST POP POP POP POP POP POP JUMPDEST JUMP JUMPDEST PUSH32 0x4E487B7100000000000000000000000000000000000000000000000000000000 PUSH1 0x0 MSTORE PUSH1 0x11 PUSH1 0x4 MSTORE PUSH1 0x24 PUSH1 0x0 REVERT JUMPDEST PUSH1 0x0 PUSH2 0x2505 DUP3 PUSH2 0x16AA JUMP JUMPDEST SWAP2 POP PUSH32 0xFFFFFFFFFFFFFFFFFFFFFFFFFFFFFFFFFFFFFFFFFFFFFFFFFFFFFFFFFFFFFFFF DUP3 SUB PUSH2 0x2537 JUMPI PUSH2 0x2536 PUSH2 0x24CB JUMP JUMPDEST JUMPDEST PUSH1 0x1 DUP3 ADD SWAP1 POP SWAP2 SWAP1 POP JUMP JUMPDEST PUSH1 0x0 PUSH1 0x40 DUP3 ADD SWAP1 POP PUSH2 0x2557 PUSH1 0x0 DUP4 ADD DUP6 PUSH2 0x170D JUMP JUMPDEST PUSH2 0x2564 PUSH1 0x20 DUP4 ADD DUP5 PUSH2 0x17B8 JUMP JUMPDEST SWAP4 SWAP3 POP POP POP JUMP INVALID LOG2 PUSH5 0x6970667358 0x22 SLT KECCAK256 0xB2 DUP4 ISZERO BLOCKHASH 0xBB PUSH18 0x932E98A901B7848BA57C8E222109A360E14 TSTORE SWAP5 0xB1 0x1E PUSH5 0x8BF4A26473 PUSH16 0x6C63430008180033436F6E7472616374 KECCAK256 PUSH7 0x6F72207265636F PUSH19 0x64696E67206F66206469676974616C20657669 PUSH5 0x656E636520 SSTORE PUSH5 0x656E617200 "
        },
        "methodIdentifiers": {
          "arrayEvidence(uint256)": "12194e30",
          "changeStatus(uint256)": "e8025d77",
          "createEvidence(string,string,uint256,string,string,string)": "8ec28a0b",
          "getId(uint256)": "545a153a",
          "getName(uint256)": "6b8ff574",
          "getRecordsEvidence()": "392b30d9",
          "nameContract()": "f0eb62cf",
          "owner()": "8da5cb5b",
          "recordsEvidence(uint256)": "cb782a66"
        }
      }
    }
  }
}