{
  "_format": "hh-sol-artifact-1",
  "contractName": "Prueba3",
  "sourceName": "contracts/Prueba3.sol",
  "abi": [
    {
      "inputs": [],
      "stateMutability": "nonpayable",
      "type": "constructor"
    },
    {
      "anonymous": false,
      "inputs": [
        {
          "indexed": true,
          "internalType": "uint256",
          "name": "id",
          "type": "uint256"
        },
        {
          "indexed": false,
          "internalType": "string",
          "name": "hashEvidence",
          "type": "string"
        },
        {
          "indexed": false,
          "internalType": "uint256",
          "name": "caseNumber",
          "type": "uint256"
        },
        {
          "indexed": false,
          "internalType": "string",
          "name": "location",
          "type": "string"
        },
        {
          "indexed": false,
          "internalType": "string",
          "name": "device",
          "type": "string"
        },
        {
          "indexed": false,
          "internalType": "string",
          "name": "evidenceType",
          "type": "string"
        },
        {
          "indexed": false,
          "internalType": "string",
          "name": "filePath",
          "type": "string"
        },
        {
          "indexed": false,
          "internalType": "string",
          "name": "registrationDate",
          "type": "string"
        },
        {
          "indexed": false,
          "internalType": "string",
          "name": "methodAdquisition",
          "type": "string"
        },
        {
          "indexed": false,
          "internalType": "string",
          "name": "noteEvidence",
          "type": "string"
        }
      ],
      "name": "createdDataEvidence",
      "type": "event"
    },
    {
      "anonymous": false,
      "inputs": [
        {
          "indexed": true,
          "internalType": "uint256",
          "name": "id",
          "type": "uint256"
        },
        {
          "indexed": false,
          "internalType": "uint256",
          "name": "userId",
          "type": "uint256"
        },
        {
          "indexed": false,
          "internalType": "string",
          "name": "names",
          "type": "string"
        },
        {
          "indexed": false,
          "internalType": "string",
          "name": "lastNames",
          "type": "string"
        },
        {
          "indexed": false,
          "internalType": "string",
          "name": "userType",
          "type": "string"
        },
        {
          "indexed": false,
          "internalType": "string",
          "name": "phase",
          "type": "string"
        },
        {
          "indexed": false,
          "internalType": "string",
          "name": "state",
          "type": "string"
        },
        {
          "indexed": false,
          "internalType": "string",
          "name": "stateUpdateDate",
          "type": "string"
        },
        {
          "indexed": false,
          "internalType": "string",
          "name": "technicalReport",
          "type": "string"
        },
        {
          "indexed": false,
          "internalType": "string",
          "name": "executiveReport",
          "type": "string"
        }
      ],
      "name": "createdDetailsEvidence",
      "type": "event"
    },
    {
      "anonymous": false,
      "inputs": [
        {
          "indexed": true,
          "internalType": "uint256",
          "name": "id",
          "type": "uint256"
        },
        {
          "indexed": false,
          "internalType": "string",
          "name": "phase",
          "type": "string"
        },
        {
          "indexed": false,
          "internalType": "string",
          "name": "state",
          "type": "string"
        },
        {
          "indexed": false,
          "internalType": "string",
          "name": "stateUpdateDate",
          "type": "string"
        }
      ],
      "name": "eventUpdatePhase",
      "type": "event"
    },
    {
      "anonymous": false,
      "inputs": [
        {
          "indexed": true,
          "internalType": "uint256",
          "name": "id",
          "type": "uint256"
        },
        {
          "indexed": false,
          "internalType": "string",
          "name": "phase",
          "type": "string"
        },
        {
          "indexed": false,
          "internalType": "string",
          "name": "state",
          "type": "string"
        },
        {
          "indexed": false,
          "internalType": "string",
          "name": "stateUpdateDate",
          "type": "string"
        },
        {
          "indexed": false,
          "internalType": "string",
          "name": "technicalReport",
          "type": "string"
        },
        {
          "indexed": false,
          "internalType": "string",
          "name": "executiveReport",
          "type": "string"
        }
      ],
      "name": "eventUpdatePresentationPhase",
      "type": "event"
    },
    {
      "inputs": [
        {
          "internalType": "uint256",
          "name": "",
          "type": "uint256"
        }
      ],
      "name": "arrayEvidence",
      "outputs": [
        {
          "components": [
            {
              "internalType": "uint256",
              "name": "id",
              "type": "uint256"
            },
            {
              "internalType": "string",
              "name": "hashEvidence",
              "type": "string"
            },
            {
              "internalType": "uint256",
              "name": "caseNumber",
              "type": "uint256"
            },
            {
              "internalType": "string",
              "name": "location",
              "type": "string"
            },
            {
              "internalType": "string",
              "name": "device",
              "type": "string"
            },
            {
              "internalType": "string",
              "name": "evidenceType",
              "type": "string"
            },
            {
              "internalType": "string",
              "name": "filePath",
              "type": "string"
            },
            {
              "internalType": "string",
              "name": "registrationDate",
              "type": "string"
            }
          ],
          "internalType": "struct DataEvidence",
          "name": "dataEvidence",
          "type": "tuple"
        },
        {
          "components": [
            {
              "internalType": "string",
              "name": "methodAdquisition",
              "type": "string"
            },
            {
              "internalType": "string",
              "name": "noteEvidence",
              "type": "string"
            },
            {
              "internalType": "uint256",
              "name": "userId",
              "type": "uint256"
            },
            {
              "internalType": "string",
              "name": "names",
              "type": "string"
            },
            {
              "internalType": "string",
              "name": "lastNames",
              "type": "string"
            },
            {
              "internalType": "string",
              "name": "userType",
              "type": "string"
            }
          ],
          "internalType": "struct DetailsEvidence",
          "name": "detailsEvidence",
          "type": "tuple"
        },
        {
          "components": [
            {
              "internalType": "string",
              "name": "phase",
              "type": "string"
            },
            {
              "internalType": "string",
              "name": "state",
              "type": "string"
            },
            {
              "internalType": "string",
              "name": "stateUpdateDate",
              "type": "string"
            },
            {
              "internalType": "string",
              "name": "technicalReport",
              "type": "string"
            },
            {
              "internalType": "string",
              "name": "executiveReport",
              "type": "string"
            }
          ],
          "internalType": "struct PhaseEvidence",
          "name": "phaseEvidence",
          "type": "tuple"
        }
      ],
      "stateMutability": "view",
      "type": "function"
    },
    {
      "inputs": [
        {
          "components": [
            {
              "internalType": "uint256",
              "name": "id",
              "type": "uint256"
            },
            {
              "internalType": "string",
              "name": "hashEvidence",
              "type": "string"
            },
            {
              "internalType": "uint256",
              "name": "caseNumber",
              "type": "uint256"
            },
            {
              "internalType": "string",
              "name": "location",
              "type": "string"
            },
            {
              "internalType": "string",
              "name": "device",
              "type": "string"
            },
            {
              "internalType": "string",
              "name": "evidenceType",
              "type": "string"
            },
            {
              "internalType": "string",
              "name": "filePath",
              "type": "string"
            },
            {
              "internalType": "string",
              "name": "registrationDate",
              "type": "string"
            }
          ],
          "internalType": "struct DataEvidence",
          "name": "_dataEvidence",
          "type": "tuple"
        },
        {
          "components": [
            {
              "internalType": "string",
              "name": "methodAdquisition",
              "type": "string"
            },
            {
              "internalType": "string",
              "name": "noteEvidence",
              "type": "string"
            },
            {
              "internalType": "uint256",
              "name": "userId",
              "type": "uint256"
            },
            {
              "internalType": "string",
              "name": "names",
              "type": "string"
            },
            {
              "internalType": "string",
              "name": "lastNames",
              "type": "string"
            },
            {
              "internalType": "string",
              "name": "userType",
              "type": "string"
            }
          ],
          "internalType": "struct DetailsEvidence",
          "name": "_detailsEvidence",
          "type": "tuple"
        },
        {
          "components": [
            {
              "internalType": "string",
              "name": "phase",
              "type": "string"
            },
            {
              "internalType": "string",
              "name": "state",
              "type": "string"
            },
            {
              "internalType": "string",
              "name": "stateUpdateDate",
              "type": "string"
            },
            {
              "internalType": "string",
              "name": "technicalReport",
              "type": "string"
            },
            {
              "internalType": "string",
              "name": "executiveReport",
              "type": "string"
            }
          ],
          "internalType": "struct PhaseEvidence",
          "name": "_phaseEvidence",
          "type": "tuple"
        }
      ],
      "name": "createEvidence",
      "outputs": [
        {
          "internalType": "bool",
          "name": "",
          "type": "bool"
        }
      ],
      "stateMutability": "nonpayable",
      "type": "function"
    },
    {
      "inputs": [],
      "name": "getAdrress",
      "outputs": [
        {
          "internalType": "address",
          "name": "",
          "type": "address"
        }
      ],
      "stateMutability": "view",
      "type": "function"
    },
    {
      "inputs": [
        {
          "internalType": "uint256",
          "name": "_id",
          "type": "uint256"
        }
      ],
      "name": "getCaseNumber",
      "outputs": [
        {
          "internalType": "uint256",
          "name": "",
          "type": "uint256"
        }
      ],
      "stateMutability": "view",
      "type": "function"
    },
    {
      "inputs": [],
      "name": "getEvidenciaAll",
      "outputs": [
        {
          "components": [
            {
              "components": [
                {
                  "internalType": "uint256",
                  "name": "id",
                  "type": "uint256"
                },
                {
                  "internalType": "string",
                  "name": "hashEvidence",
                  "type": "string"
                },
                {
                  "internalType": "uint256",
                  "name": "caseNumber",
                  "type": "uint256"
                },
                {
                  "internalType": "string",
                  "name": "location",
                  "type": "string"
                },
                {
                  "internalType": "string",
                  "name": "device",
                  "type": "string"
                },
                {
                  "internalType": "string",
                  "name": "evidenceType",
                  "type": "string"
                },
                {
                  "internalType": "string",
                  "name": "filePath",
                  "type": "string"
                },
                {
                  "internalType": "string",
                  "name": "registrationDate",
                  "type": "string"
                }
              ],
              "internalType": "struct DataEvidence",
              "name": "dataEvidence",
              "type": "tuple"
            },
            {
              "components": [
                {
                  "internalType": "string",
                  "name": "methodAdquisition",
                  "type": "string"
                },
                {
                  "internalType": "string",
                  "name": "noteEvidence",
                  "type": "string"
                },
                {
                  "internalType": "uint256",
                  "name": "userId",
                  "type": "uint256"
                },
                {
                  "internalType": "string",
                  "name": "names",
                  "type": "string"
                },
                {
                  "internalType": "string",
                  "name": "lastNames",
                  "type": "string"
                },
                {
                  "internalType": "string",
                  "name": "userType",
                  "type": "string"
                }
              ],
              "internalType": "struct DetailsEvidence",
              "name": "detailsEvidence",
              "type": "tuple"
            },
            {
              "components": [
                {
                  "internalType": "string",
                  "name": "phase",
                  "type": "string"
                },
                {
                  "internalType": "string",
                  "name": "state",
                  "type": "string"
                },
                {
                  "internalType": "string",
                  "name": "stateUpdateDate",
                  "type": "string"
                },
                {
                  "internalType": "string",
                  "name": "technicalReport",
                  "type": "string"
                },
                {
                  "internalType": "string",
                  "name": "executiveReport",
                  "type": "string"
                }
              ],
              "internalType": "struct PhaseEvidence",
              "name": "phaseEvidence",
              "type": "tuple"
            }
          ],
          "internalType": "struct FullEvidence[]",
          "name": "",
          "type": "tuple[]"
        }
      ],
      "stateMutability": "view",
      "type": "function"
    },
    {
      "inputs": [
        {
          "internalType": "uint256",
          "name": "_id",
          "type": "uint256"
        }
      ],
      "name": "getFilePath",
      "outputs": [
        {
          "internalType": "string",
          "name": "",
          "type": "string"
        }
      ],
      "stateMutability": "view",
      "type": "function"
    },
    {
      "inputs": [
        {
          "internalType": "uint256",
          "name": "_id",
          "type": "uint256"
        }
      ],
      "name": "getHashEvidence",
      "outputs": [
        {
          "internalType": "string",
          "name": "",
          "type": "string"
        }
      ],
      "stateMutability": "view",
      "type": "function"
    },
    {
      "inputs": [],
      "name": "getNameContract",
      "outputs": [
        {
          "internalType": "string",
          "name": "",
          "type": "string"
        }
      ],
      "stateMutability": "view",
      "type": "function"
    },
    {
      "inputs": [
        {
          "internalType": "uint256",
          "name": "_id",
          "type": "uint256"
        }
      ],
      "name": "getPhase",
      "outputs": [
        {
          "internalType": "string",
          "name": "",
          "type": "string"
        }
      ],
      "stateMutability": "view",
      "type": "function"
    },
    {
      "inputs": [],
      "name": "getRegisterId",
      "outputs": [
        {
          "internalType": "uint256",
          "name": "",
          "type": "uint256"
        }
      ],
      "stateMutability": "view",
      "type": "function"
    },
    {
      "inputs": [
        {
          "internalType": "uint256",
          "name": "_id",
          "type": "uint256"
        }
      ],
      "name": "getRegistrationDate",
      "outputs": [
        {
          "internalType": "string",
          "name": "",
          "type": "string"
        }
      ],
      "stateMutability": "view",
      "type": "function"
    },
    {
      "inputs": [
        {
          "internalType": "uint256",
          "name": "_id",
          "type": "uint256"
        }
      ],
      "name": "getState",
      "outputs": [
        {
          "internalType": "string",
          "name": "",
          "type": "string"
        }
      ],
      "stateMutability": "view",
      "type": "function"
    },
    {
      "inputs": [
        {
          "internalType": "uint256",
          "name": "_id",
          "type": "uint256"
        }
      ],
      "name": "getStateUpdateDate",
      "outputs": [
        {
          "internalType": "string",
          "name": "",
          "type": "string"
        }
      ],
      "stateMutability": "view",
      "type": "function"
    },
    {
      "inputs": [
        {
          "internalType": "uint256",
          "name": "_id",
          "type": "uint256"
        }
      ],
      "name": "getUserId",
      "outputs": [
        {
          "internalType": "uint256",
          "name": "",
          "type": "uint256"
        }
      ],
      "stateMutability": "view",
      "type": "function"
    },
    {
      "inputs": [
        {
          "internalType": "uint256",
          "name": "",
          "type": "uint256"
        }
      ],
      "name": "recordsEvidence",
      "outputs": [
        {
          "components": [
            {
              "internalType": "uint256",
              "name": "id",
              "type": "uint256"
            },
            {
              "internalType": "string",
              "name": "hashEvidence",
              "type": "string"
            },
            {
              "internalType": "uint256",
              "name": "caseNumber",
              "type": "uint256"
            },
            {
              "internalType": "string",
              "name": "location",
              "type": "string"
            },
            {
              "internalType": "string",
              "name": "device",
              "type": "string"
            },
            {
              "internalType": "string",
              "name": "evidenceType",
              "type": "string"
            },
            {
              "internalType": "string",
              "name": "filePath",
              "type": "string"
            },
            {
              "internalType": "string",
              "name": "registrationDate",
              "type": "string"
            }
          ],
          "internalType": "struct DataEvidence",
          "name": "dataEvidence",
          "type": "tuple"
        },
        {
          "components": [
            {
              "internalType": "string",
              "name": "methodAdquisition",
              "type": "string"
            },
            {
              "internalType": "string",
              "name": "noteEvidence",
              "type": "string"
            },
            {
              "internalType": "uint256",
              "name": "userId",
              "type": "uint256"
            },
            {
              "internalType": "string",
              "name": "names",
              "type": "string"
            },
            {
              "internalType": "string",
              "name": "lastNames",
              "type": "string"
            },
            {
              "internalType": "string",
              "name": "userType",
              "type": "string"
            }
          ],
          "internalType": "struct DetailsEvidence",
          "name": "detailsEvidence",
          "type": "tuple"
        },
        {
          "components": [
            {
              "internalType": "string",
              "name": "phase",
              "type": "string"
            },
            {
              "internalType": "string",
              "name": "state",
              "type": "string"
            },
            {
              "internalType": "string",
              "name": "stateUpdateDate",
              "type": "string"
            },
            {
              "internalType": "string",
              "name": "technicalReport",
              "type": "string"
            },
            {
              "internalType": "string",
              "name": "executiveReport",
              "type": "string"
            }
          ],
          "internalType": "struct PhaseEvidence",
          "name": "phaseEvidence",
          "type": "tuple"
        }
      ],
      "stateMutability": "view",
      "type": "function"
    },
    {
      "inputs": [
        {
          "internalType": "uint256",
          "name": "_id",
          "type": "uint256"
        },
        {
          "internalType": "string",
          "name": "_phase",
          "type": "string"
        },
        {
          "internalType": "string",
          "name": "_state",
          "type": "string"
        },
        {
          "internalType": "string",
          "name": "_stateUpdateDate",
          "type": "string"
        }
      ],
      "name": "updatePhase",
      "outputs": [
        {
          "internalType": "bool",
          "name": "",
          "type": "bool"
        }
      ],
      "stateMutability": "nonpayable",
      "type": "function"
    },
    {
      "inputs": [
        {
          "internalType": "uint256",
          "name": "_id",
          "type": "uint256"
        },
        {
          "internalType": "string",
          "name": "_phase",
          "type": "string"
        },
        {
          "internalType": "string",
          "name": "_state",
          "type": "string"
        },
        {
          "internalType": "string",
          "name": "_stateUpdateDate",
          "type": "string"
        },
        {
          "internalType": "string",
          "name": "_technicalReport",
          "type": "string"
        },
        {
          "internalType": "string",
          "name": "_executiveReport",
          "type": "string"
        }
      ],
      "name": "updatePresentationPhase",
      "outputs": [
        {
          "internalType": "bool",
          "name": "",
          "type": "bool"
        }
      ],
      "stateMutability": "nonpayable",
      "type": "function"
    }
  ],
  "bytecode": "0x60806040523480156200001157600080fd5b506040518060800160405280604f8152602001620054b7604f9139600290816200003c919062000305565b5033600160006101000a81548173ffffffffffffffffffffffffffffffffffffffff021916908373ffffffffffffffffffffffffffffffffffffffff16021790555060008081905550620003ec565b600081519050919050565b7f4e487b7100000000000000000000000000000000000000000000000000000000600052604160045260246000fd5b7f4e487b7100000000000000000000000000000000000000000000000000000000600052602260045260246000fd5b600060028204905060018216806200010d57607f821691505b602082108103620001235762000122620000c5565b5b50919050565b60008190508160005260206000209050919050565b60006020601f8301049050919050565b600082821b905092915050565b6000600883026200018d7fffffffffffffffffffffffffffffffffffffffffffffffffffffffffffffffff826200014e565b6200019986836200014e565b95508019841693508086168417925050509392505050565b6000819050919050565b6000819050919050565b6000620001e6620001e0620001da84620001b1565b620001bb565b620001b1565b9050919050565b6000819050919050565b6200020283620001c5565b6200021a6200021182620001ed565b8484546200015b565b825550505050565b600090565b6200023162000222565b6200023e818484620001f7565b505050565b5b8181101562000266576200025a60008262000227565b60018101905062000244565b5050565b601f821115620002b5576200027f8162000129565b6200028a846200013e565b810160208510156200029a578190505b620002b2620002a9856200013e565b83018262000243565b50505b505050565b600082821c905092915050565b6000620002da60001984600802620002ba565b1980831691505092915050565b6000620002f58383620002c7565b9150826002028217905092915050565b62000310826200008b565b67ffffffffffffffff8111156200032c576200032b62000096565b5b620003388254620000f4565b620003458282856200026a565b600060209050601f8311600181146200037d576000841562000368578287015190505b620003748582620002e7565b865550620003e4565b601f1984166200038d8662000129565b60005b82811015620003b75784890151825560018201915060208501945060208101905062000390565b86831015620003d75784890151620003d3601f891682620002c7565b8355505b6001600288020188555050505b505050505050565b6150bb80620003fc6000396000f3fe608060405234801561001057600080fd5b506004361061010b5760003560e01c80639ab95288116100a2578063d13a12da11610071578063d13a12da14610330578063e55300461461034e578063ebc981171461037e578063f68d6330146103ae578063f732a42b146103cc5761010b565b80639ab95288146102805780639acf2933146102b05780639f095648146102ce578063cb782a66146102fe5761010b565b806344c9af28116100de57806344c9af28146101c0578063486436bd146101f057806351747ce81461022057806375a999ad146102505761010b565b8063031367831461011057806312194e301461014057806316ef376b14610172578063188ff6f1146101a2575b600080fd5b61012a60048036038101906101259190613797565b6103fc565b6040516101379190613854565b60405180910390f35b61015a60048036038101906101559190613797565b6104f8565b60405161016993929190613ad9565b60405180910390f35b61018c60048036038101906101879190613797565b610e8f565b6040516101999190613854565b60405180910390f35b6101aa610f8b565b6040516101b79190613b66565b60405180910390f35b6101da60048036038101906101d59190613797565b611045565b6040516101e79190613854565b60405180910390f35b61020a60048036038101906102059190613797565b611141565b6040516102179190613854565b60405180910390f35b61023a60048036038101906102359190613797565b61123d565b6040516102479190613854565b60405180910390f35b61026a60048036038101906102659190613797565b611339565b6040516102779190613b90565b60405180910390f35b61029a600480360381019061029591906140a0565b6113ac565b6040516102a79190614162565b60405180910390f35b6102b8611a67565b6040516102c59190613b90565b60405180910390f35b6102e860048036038101906102e3919061417d565b611a70565b6040516102f59190614162565b60405180910390f35b61031860048036038101906103139190613797565b611dd2565b60405161032793929190613ad9565b60405180910390f35b610338612759565b6040516103459190614562565b60405180910390f35b61036860048036038101906103639190613797565b613133565b6040516103759190613854565b60405180910390f35b61039860048036038101906103939190613797565b61322f565b6040516103a59190613b90565b60405180910390f35b6103b66132a1565b6040516103c39190613854565b60405180910390f35b6103e660048036038101906103e19190614584565b613333565b6040516103f39190614162565b60405180910390f35b606060008210158015610410575060005482105b61044f576040517f08c379a0000000000000000000000000000000000000000000000000000000008152600401610446906146e9565b60405180910390fd5b60036000838152602001908152602001600020600001600601805461047390614738565b80601f016020809104026020016040519081016040528092919081815260200182805461049f90614738565b80156104ec5780601f106104c1576101008083540402835291602001916104ec565b820191906000526020600020905b8154815290600101906020018083116104cf57829003601f168201915b50505050509050919050565b6004818154811061050857600080fd5b906000526020600020906013020160009150905080600001604051806101000160405290816000820154815260200160018201805461054690614738565b80601f016020809104026020016040519081016040528092919081815260200182805461057290614738565b80156105bf5780601f10610594576101008083540402835291602001916105bf565b820191906000526020600020905b8154815290600101906020018083116105a257829003601f168201915b50505050508152602001600282015481526020016003820180546105e290614738565b80601f016020809104026020016040519081016040528092919081815260200182805461060e90614738565b801561065b5780601f106106305761010080835404028352916020019161065b565b820191906000526020600020905b81548152906001019060200180831161063e57829003601f168201915b5050505050815260200160048201805461067490614738565b80601f01602080910402602001604051908101604052809291908181526020018280546106a090614738565b80156106ed5780601f106106c2576101008083540402835291602001916106ed565b820191906000526020600020905b8154815290600101906020018083116106d057829003601f168201915b5050505050815260200160058201805461070690614738565b80601f016020809104026020016040519081016040528092919081815260200182805461073290614738565b801561077f5780601f106107545761010080835404028352916020019161077f565b820191906000526020600020905b81548152906001019060200180831161076257829003601f168201915b5050505050815260200160068201805461079890614738565b80601f01602080910402602001604051908101604052809291908181526020018280546107c490614738565b80156108115780601f106107e657610100808354040283529160200191610811565b820191906000526020600020905b8154815290600101906020018083116107f457829003601f168201915b5050505050815260200160078201805461082a90614738565b80601f016020809104026020016040519081016040528092919081815260200182805461085690614738565b80156108a35780601f10610878576101008083540402835291602001916108a3565b820191906000526020600020905b81548152906001019060200180831161088657829003601f168201915b50505050508152505090806008016040518060c00160405290816000820180546108cc90614738565b80601f01602080910402602001604051908101604052809291908181526020018280546108f890614738565b80156109455780601f1061091a57610100808354040283529160200191610945565b820191906000526020600020905b81548152906001019060200180831161092857829003601f168201915b5050505050815260200160018201805461095e90614738565b80601f016020809104026020016040519081016040528092919081815260200182805461098a90614738565b80156109d75780601f106109ac576101008083540402835291602001916109d7565b820191906000526020600020905b8154815290600101906020018083116109ba57829003601f168201915b50505050508152602001600282015481526020016003820180546109fa90614738565b80601f0160208091040260200160405190810160405280929190818152602001828054610a2690614738565b8015610a735780601f10610a4857610100808354040283529160200191610a73565b820191906000526020600020905b815481529060010190602001808311610a5657829003601f168201915b50505050508152602001600482018054610a8c90614738565b80601f0160208091040260200160405190810160405280929190818152602001828054610ab890614738565b8015610b055780601f10610ada57610100808354040283529160200191610b05565b820191906000526020600020905b815481529060010190602001808311610ae857829003601f168201915b50505050508152602001600582018054610b1e90614738565b80601f0160208091040260200160405190810160405280929190818152602001828054610b4a90614738565b8015610b975780601f10610b6c57610100808354040283529160200191610b97565b820191906000526020600020905b815481529060010190602001808311610b7a57829003601f168201915b5050505050815250509080600e016040518060a0016040529081600082018054610bc090614738565b80601f0160208091040260200160405190810160405280929190818152602001828054610bec90614738565b8015610c395780601f10610c0e57610100808354040283529160200191610c39565b820191906000526020600020905b815481529060010190602001808311610c1c57829003601f168201915b50505050508152602001600182018054610c5290614738565b80601f0160208091040260200160405190810160405280929190818152602001828054610c7e90614738565b8015610ccb5780601f10610ca057610100808354040283529160200191610ccb565b820191906000526020600020905b815481529060010190602001808311610cae57829003601f168201915b50505050508152602001600282018054610ce490614738565b80601f0160208091040260200160405190810160405280929190818152602001828054610d1090614738565b8015610d5d5780601f10610d3257610100808354040283529160200191610d5d565b820191906000526020600020905b815481529060010190602001808311610d4057829003601f168201915b50505050508152602001600382018054610d7690614738565b80601f0160208091040260200160405190810160405280929190818152602001828054610da290614738565b8015610def5780601f10610dc457610100808354040283529160200191610def565b820191906000526020600020905b815481529060010190602001808311610dd257829003601f168201915b50505050508152602001600482018054610e0890614738565b80601f0160208091040260200160405190810160405280929190818152602001828054610e3490614738565b8015610e815780601f10610e5657610100808354040283529160200191610e81565b820191906000526020600020905b815481529060010190602001808311610e6457829003601f168201915b505050505081525050905083565b606060008210158015610ea3575060005482105b610ee2576040517f08c379a0000000000000000000000000000000000000000000000000000000008152600401610ed9906146e9565b60405180910390fd5b60036000838152602001908152602001600020600e016000018054610f0690614738565b80601f0160208091040260200160405190810160405280929190818152602001828054610f3290614738565b8015610f7f5780601f10610f5457610100808354040283529160200191610f7f565b820191906000526020600020905b815481529060010190602001808311610f6257829003601f168201915b50505050509050919050565b6000600160009054906101000a900473ffffffffffffffffffffffffffffffffffffffff1673ffffffffffffffffffffffffffffffffffffffff163373ffffffffffffffffffffffffffffffffffffffff161461101d576040517f08c379a0000000000000000000000000000000000000000000000000000000008152600401611014906147db565b60405180910390fd5b600160009054906101000a900473ffffffffffffffffffffffffffffffffffffffff16905090565b606060008210158015611059575060005482105b611098576040517f08c379a000000000000000000000000000000000000000000000000000000000815260040161108f906146e9565b60405180910390fd5b60036000838152602001908152602001600020600e0160010180546110bc90614738565b80601f01602080910402602001604051908101604052809291908181526020018280546110e890614738565b80156111355780601f1061110a57610100808354040283529160200191611135565b820191906000526020600020905b81548152906001019060200180831161111857829003601f168201915b50505050509050919050565b606060008210158015611155575060005482105b611194576040517f08c379a000000000000000000000000000000000000000000000000000000000815260040161118b906146e9565b60405180910390fd5b6003600083815260200190815260200160002060000160010180546111b890614738565b80601f01602080910402602001604051908101604052809291908181526020018280546111e490614738565b80156112315780601f1061120657610100808354040283529160200191611231565b820191906000526020600020905b81548152906001019060200180831161121457829003601f168201915b50505050509050919050565b606060008210158015611251575060005482105b611290576040517f08c379a0000000000000000000000000000000000000000000000000000000008152600401611287906146e9565b60405180910390fd5b6003600083815260200190815260200160002060000160070180546112b490614738565b80601f01602080910402602001604051908101604052809291908181526020018280546112e090614738565b801561132d5780601f106113025761010080835404028352916020019161132d565b820191906000526020600020905b81548152906001019060200180831161131057829003601f168201915b50505050509050919050565b600080821015801561134c575060005482105b61138b576040517f08c379a0000000000000000000000000000000000000000000000000000000008152600401611382906146e9565b60405180910390fd5b60036000838152602001908152602001600020600001600201549050919050565b60008084602001515114806113c5575060008460400151145b806113d557506000846060015151145b806113e557506000846080015151145b806113f5575060008460a0015151145b80611405575060008460c0015151145b80611415575060008460e0015151145b8061142557506000836000015151145b8061143557506000836020015151145b80611444575060008360400151145b8061145457506000836060015151145b8061146457506000836080015151145b80611474575060008360a0015151145b156114825760009050611a60565b600080549050808560000181815250506040518060400160405280600c81526020017f707265736572766174696f6e000000000000000000000000000000000000000081525083600001819052506040518060400160405280600781526020017f637573746f64790000000000000000000000000000000000000000000000000081525083602001819052506040518060400160405280600b81526020017f6e6f53746174654461746500000000000000000000000000000000000000000081525083604001819052506040518060400160405280600e81526020017f6e6f46696c655465636e6963616c00000000000000000000000000000000000081525083606001819052506040518060400160405280600f81526020017f6e6f46696c654578656375746976650000000000000000000000000000000000815250836080018190525060006040518060600160405280878152602001868152602001858152509050806003600084815260200190815260200160002060008201518160000160008201518160000155602082015181600101908161162391906149a7565b5060408201518160020155606082015181600301908161164391906149a7565b50608082015181600401908161165991906149a7565b5060a082015181600501908161166f91906149a7565b5060c082015181600601908161168591906149a7565b5060e082015181600701908161169b91906149a7565b50505060208201518160080160008201518160000190816116bc91906149a7565b5060208201518160010190816116d291906149a7565b506040820151816002015560608201518160030190816116f291906149a7565b50608082015181600401908161170891906149a7565b5060a082015181600501908161171e91906149a7565b505050604082015181600e01600082015181600001908161173f91906149a7565b50602082015181600101908161175591906149a7565b50604082015181600201908161176b91906149a7565b50606082015181600301908161178191906149a7565b50608082015181600401908161179791906149a7565b50505090505060048190806001815401808255809150506001900390600052602060002090601302016000909190919091506000820151816000016000820151816000015560208201518160010190816117f191906149a7565b5060408201518160020155606082015181600301908161181191906149a7565b50608082015181600401908161182791906149a7565b5060a082015181600501908161183d91906149a7565b5060c082015181600601908161185391906149a7565b5060e082015181600701908161186991906149a7565b505050602082015181600801600082015181600001908161188a91906149a7565b5060208201518160010190816118a091906149a7565b506040820151816002015560608201518160030190816118c091906149a7565b5060808201518160040190816118d691906149a7565b5060a08201518160050190816118ec91906149a7565b505050604082015181600e01600082015181600001908161190d91906149a7565b50602082015181600101908161192391906149a7565b50604082015181600201908161193991906149a7565b50606082015181600301908161194f91906149a7565b50608082015181600401908161196591906149a7565b5050505050817fa878b75b62c7d7c9331d7aabb04e22502bc073f960ac7904e26e768a3cb4a3178760200151886040015189606001518a608001518b60a001518c60c001518d60e001518d600001518e602001516040516119ce99989796959493929190614a79565b60405180910390a2817f602870bcf9a976134164ca3df6b5e3c6b7d8942ce27dd14fa8a92f4fe4a7d6388660400151876060015188608001518960a0015189600001518a602001518b604001518c606001518d60800151604051611a3a99989796959493929190614b3e565b60405180910390a2600080815480929190611a5490614c32565b91905055506001925050505b9392505050565b60008054905090565b600080548510611ab5576040517f08c379a0000000000000000000000000000000000000000000000000000000008152600401611aac906146e9565b60405180910390fd5b6000845111611af9576040517f08c379a0000000000000000000000000000000000000000000000000000000008152600401611af090614cc6565b60405180910390fd5b6000835111611b3d576040517f08c379a0000000000000000000000000000000000000000000000000000000008152600401611b3490614d32565b60405180910390fd5b6000825111611b81576040517f08c379a0000000000000000000000000000000000000000000000000000000008152600401611b7890614d9e565b60405180910390fd5b60006003600087815260200190815260200160002090508481600e016000019081611bac91906149a7565b508381600e016001019081611bc191906149a7565b508281600e016002019081611bd691906149a7565b508060048781548110611bec57611beb614dbe565b5b906000526020600020906013020160008201816000016000820154816000015560018201816001019081611c209190614e03565b506002820154816002015560038201816003019081611c3f9190614e03565b5060048201816004019081611c549190614e03565b5060058201816005019081611c699190614e03565b5060068201816006019081611c7e9190614e03565b5060078201816007019081611c939190614e03565b505050600882018160080160008201816000019081611cb29190614e03565b5060018201816001019081611cc79190614e03565b506002820154816002015560038201816003019081611ce69190614e03565b5060048201816004019081611cfb9190614e03565b5060058201816005019081611d109190614e03565b505050600e820181600e0160008201816000019081611d2f9190614e03565b5060018201816001019081611d449190614e03565b5060028201816002019081611d599190614e03565b5060038201816003019081611d6e9190614e03565b5060048201816004019081611d839190614e03565b505050905050857f7ac38281920bcf5a241a541acec18eda1feafa87291424e5fef5d71c67cfef85868686604051611dbd93929190614eeb565b60405180910390a26001915050949350505050565b6003602052806000526040600020600091509050806000016040518061010001604052908160008201548152602001600182018054611e1090614738565b80601f0160208091040260200160405190810160405280929190818152602001828054611e3c90614738565b8015611e895780601f10611e5e57610100808354040283529160200191611e89565b820191906000526020600020905b815481529060010190602001808311611e6c57829003601f168201915b5050505050815260200160028201548152602001600382018054611eac90614738565b80601f0160208091040260200160405190810160405280929190818152602001828054611ed890614738565b8015611f255780601f10611efa57610100808354040283529160200191611f25565b820191906000526020600020905b815481529060010190602001808311611f0857829003601f168201915b50505050508152602001600482018054611f3e90614738565b80601f0160208091040260200160405190810160405280929190818152602001828054611f6a90614738565b8015611fb75780601f10611f8c57610100808354040283529160200191611fb7565b820191906000526020600020905b815481529060010190602001808311611f9a57829003601f168201915b50505050508152602001600582018054611fd090614738565b80601f0160208091040260200160405190810160405280929190818152602001828054611ffc90614738565b80156120495780601f1061201e57610100808354040283529160200191612049565b820191906000526020600020905b81548152906001019060200180831161202c57829003601f168201915b5050505050815260200160068201805461206290614738565b80601f016020809104026020016040519081016040528092919081815260200182805461208e90614738565b80156120db5780601f106120b0576101008083540402835291602001916120db565b820191906000526020600020905b8154815290600101906020018083116120be57829003601f168201915b505050505081526020016007820180546120f490614738565b80601f016020809104026020016040519081016040528092919081815260200182805461212090614738565b801561216d5780601f106121425761010080835404028352916020019161216d565b820191906000526020600020905b81548152906001019060200180831161215057829003601f168201915b50505050508152505090806008016040518060c001604052908160008201805461219690614738565b80601f01602080910402602001604051908101604052809291908181526020018280546121c290614738565b801561220f5780601f106121e45761010080835404028352916020019161220f565b820191906000526020600020905b8154815290600101906020018083116121f257829003601f168201915b5050505050815260200160018201805461222890614738565b80601f016020809104026020016040519081016040528092919081815260200182805461225490614738565b80156122a15780601f10612276576101008083540402835291602001916122a1565b820191906000526020600020905b81548152906001019060200180831161228457829003601f168201915b50505050508152602001600282015481526020016003820180546122c490614738565b80601f01602080910402602001604051908101604052809291908181526020018280546122f090614738565b801561233d5780601f106123125761010080835404028352916020019161233d565b820191906000526020600020905b81548152906001019060200180831161232057829003601f168201915b5050505050815260200160048201805461235690614738565b80601f016020809104026020016040519081016040528092919081815260200182805461238290614738565b80156123cf5780601f106123a4576101008083540402835291602001916123cf565b820191906000526020600020905b8154815290600101906020018083116123b257829003601f168201915b505050505081526020016005820180546123e890614738565b80601f016020809104026020016040519081016040528092919081815260200182805461241490614738565b80156124615780601f1061243657610100808354040283529160200191612461565b820191906000526020600020905b81548152906001019060200180831161244457829003601f168201915b5050505050815250509080600e016040518060a001604052908160008201805461248a90614738565b80601f01602080910402602001604051908101604052809291908181526020018280546124b690614738565b80156125035780601f106124d857610100808354040283529160200191612503565b820191906000526020600020905b8154815290600101906020018083116124e657829003601f168201915b5050505050815260200160018201805461251c90614738565b80601f016020809104026020016040519081016040528092919081815260200182805461254890614738565b80156125955780601f1061256a57610100808354040283529160200191612595565b820191906000526020600020905b81548152906001019060200180831161257857829003601f168201915b505050505081526020016002820180546125ae90614738565b80601f01602080910402602001604051908101604052809291908181526020018280546125da90614738565b80156126275780601f106125fc57610100808354040283529160200191612627565b820191906000526020600020905b81548152906001019060200180831161260a57829003601f168201915b5050505050815260200160038201805461264090614738565b80601f016020809104026020016040519081016040528092919081815260200182805461266c90614738565b80156126b95780601f1061268e576101008083540402835291602001916126b9565b820191906000526020600020905b81548152906001019060200180831161269c57829003601f168201915b505050505081526020016004820180546126d290614738565b80601f01602080910402602001604051908101604052809291908181526020018280546126fe90614738565b801561274b5780601f106127205761010080835404028352916020019161274b565b820191906000526020600020905b81548152906001019060200180831161272e57829003601f168201915b505050505081525050905083565b60606004805480602002602001604051908101604052809291908181526020016000905b8282101561312a57838290600052602060002090601302016040518060600160405290816000820160405180610100016040529081600082015481526020016001820180546127cb90614738565b80601f01602080910402602001604051908101604052809291908181526020018280546127f790614738565b80156128445780601f1061281957610100808354040283529160200191612844565b820191906000526020600020905b81548152906001019060200180831161282757829003601f168201915b505050505081526020016002820154815260200160038201805461286790614738565b80601f016020809104026020016040519081016040528092919081815260200182805461289390614738565b80156128e05780601f106128b5576101008083540402835291602001916128e0565b820191906000526020600020905b8154815290600101906020018083116128c357829003601f168201915b505050505081526020016004820180546128f990614738565b80601f016020809104026020016040519081016040528092919081815260200182805461292590614738565b80156129725780601f1061294757610100808354040283529160200191612972565b820191906000526020600020905b81548152906001019060200180831161295557829003601f168201915b5050505050815260200160058201805461298b90614738565b80601f01602080910402602001604051908101604052809291908181526020018280546129b790614738565b8015612a045780601f106129d957610100808354040283529160200191612a04565b820191906000526020600020905b8154815290600101906020018083116129e757829003601f168201915b50505050508152602001600682018054612a1d90614738565b80601f0160208091040260200160405190810160405280929190818152602001828054612a4990614738565b8015612a965780601f10612a6b57610100808354040283529160200191612a96565b820191906000526020600020905b815481529060010190602001808311612a7957829003601f168201915b50505050508152602001600782018054612aaf90614738565b80601f0160208091040260200160405190810160405280929190818152602001828054612adb90614738565b8015612b285780601f10612afd57610100808354040283529160200191612b28565b820191906000526020600020905b815481529060010190602001808311612b0b57829003601f168201915b5050505050815250508152602001600882016040518060c0016040529081600082018054612b5590614738565b80601f0160208091040260200160405190810160405280929190818152602001828054612b8190614738565b8015612bce5780601f10612ba357610100808354040283529160200191612bce565b820191906000526020600020905b815481529060010190602001808311612bb157829003601f168201915b50505050508152602001600182018054612be790614738565b80601f0160208091040260200160405190810160405280929190818152602001828054612c1390614738565b8015612c605780601f10612c3557610100808354040283529160200191612c60565b820191906000526020600020905b815481529060010190602001808311612c4357829003601f168201915b5050505050815260200160028201548152602001600382018054612c8390614738565b80601f0160208091040260200160405190810160405280929190818152602001828054612caf90614738565b8015612cfc5780601f10612cd157610100808354040283529160200191612cfc565b820191906000526020600020905b815481529060010190602001808311612cdf57829003601f168201915b50505050508152602001600482018054612d1590614738565b80601f0160208091040260200160405190810160405280929190818152602001828054612d4190614738565b8015612d8e5780601f10612d6357610100808354040283529160200191612d8e565b820191906000526020600020905b815481529060010190602001808311612d7157829003601f168201915b50505050508152602001600582018054612da790614738565b80601f0160208091040260200160405190810160405280929190818152602001828054612dd390614738565b8015612e205780601f10612df557610100808354040283529160200191612e20565b820191906000526020600020905b815481529060010190602001808311612e0357829003601f168201915b5050505050815250508152602001600e82016040518060a0016040529081600082018054612e4d90614738565b80601f0160208091040260200160405190810160405280929190818152602001828054612e7990614738565b8015612ec65780601f10612e9b57610100808354040283529160200191612ec6565b820191906000526020600020905b815481529060010190602001808311612ea957829003601f168201915b50505050508152602001600182018054612edf90614738565b80601f0160208091040260200160405190810160405280929190818152602001828054612f0b90614738565b8015612f585780601f10612f2d57610100808354040283529160200191612f58565b820191906000526020600020905b815481529060010190602001808311612f3b57829003601f168201915b50505050508152602001600282018054612f7190614738565b80601f0160208091040260200160405190810160405280929190818152602001828054612f9d90614738565b8015612fea5780601f10612fbf57610100808354040283529160200191612fea565b820191906000526020600020905b815481529060010190602001808311612fcd57829003601f168201915b5050505050815260200160038201805461300390614738565b80601f016020809104026020016040519081016040528092919081815260200182805461302f90614738565b801561307c5780601f106130515761010080835404028352916020019161307c565b820191906000526020600020905b81548152906001019060200180831161305f57829003601f168201915b5050505050815260200160048201805461309590614738565b80601f01602080910402602001604051908101604052809291908181526020018280546130c190614738565b801561310e5780601f106130e35761010080835404028352916020019161310e565b820191906000526020600020905b8154815290600101906020018083116130f157829003601f168201915b505050505081525050815250508152602001906001019061277d565b50505050905090565b606060008210158015613147575060005482105b613186576040517f08c379a000000000000000000000000000000000000000000000000000000000815260040161317d906146e9565b60405180910390fd5b60036000838152602001908152602001600020600e0160020180546131aa90614738565b80601f01602080910402602001604051908101604052809291908181526020018280546131d690614738565b80156132235780601f106131f857610100808354040283529160200191613223565b820191906000526020600020905b81548152906001019060200180831161320657829003601f168201915b50505050509050919050565b60008082118015613241575060005482105b613280576040517f08c379a0000000000000000000000000000000000000000000000000000000008152600401613277906146e9565b60405180910390fd5b60036000838152602001908152602001600020600801600201549050919050565b6060600280546132b090614738565b80601f01602080910402602001604051908101604052809291908181526020018280546132dc90614738565b80156133295780601f106132fe57610100808354040283529160200191613329565b820191906000526020600020905b81548152906001019060200180831161330c57829003601f168201915b5050505050905090565b600080548710613378576040517f08c379a000000000000000000000000000000000000000000000000000000000815260040161336f906146e9565b60405180910390fd5b60008651116133bc576040517f08c379a00000000000000000000000000000000000000000000000000000000081526004016133b390614cc6565b60405180910390fd5b6000855111613400576040517f08c379a00000000000000000000000000000000000000000000000000000000081526004016133f790614d32565b60405180910390fd5b6000845111613444576040517f08c379a000000000000000000000000000000000000000000000000000000000815260040161343b90614d9e565b60405180910390fd5b6000835111613488576040517f08c379a000000000000000000000000000000000000000000000000000000000815260040161347f90614f83565b60405180910390fd5b60008251116134cc576040517f08c379a00000000000000000000000000000000000000000000000000000000081526004016134c390614fef565b60405180910390fd5b60006003600089815260200190815260200160002090508681600e0160000190816134f791906149a7565b508581600e01600101908161350c91906149a7565b508481600e01600201908161352191906149a7565b508381600e01600301908161353691906149a7565b508281600e01600401908161354b91906149a7565b50806004898154811061356157613560614dbe565b5b9060005260206000209060130201600082018160000160008201548160000155600182018160010190816135959190614e03565b5060028201548160020155600382018160030190816135b49190614e03565b50600482018160040190816135c99190614e03565b50600582018160050190816135de9190614e03565b50600682018160060190816135f39190614e03565b50600782018160070190816136089190614e03565b5050506008820181600801600082018160000190816136279190614e03565b506001820181600101908161363c9190614e03565b50600282015481600201556003820181600301908161365b9190614e03565b50600482018160040190816136709190614e03565b50600582018160050190816136859190614e03565b505050600e820181600e01600082018160000190816136a49190614e03565b50600182018160010190816136b99190614e03565b50600282018160020190816136ce9190614e03565b50600382018160030190816136e39190614e03565b50600482018160040190816136f89190614e03565b505050905050877fdbe4f4b96a4bee1da1257d93ed50ec17bc04f5353b33466b0b882e9a77a34d9f888888888860405161373695949392919061500f565b60405180910390a260019150509695505050505050565b6000604051905090565b600080fd5b600080fd5b6000819050919050565b61377481613761565b811461377f57600080fd5b50565b6000813590506137918161376b565b92915050565b6000602082840312156137ad576137ac613757565b5b60006137bb84828501613782565b91505092915050565b600081519050919050565b600082825260208201905092915050565b60005b838110156137fe5780820151818401526020810190506137e3565b60008484015250505050565b6000601f19601f8301169050919050565b6000613826826137c4565b61383081856137cf565b93506138408185602086016137e0565b6138498161380a565b840191505092915050565b6000602082019050818103600083015261386e818461381b565b905092915050565b61387f81613761565b82525050565b600082825260208201905092915050565b60006138a1826137c4565b6138ab8185613885565b93506138bb8185602086016137e0565b6138c48161380a565b840191505092915050565b6000610100830160008301516138e86000860182613876565b50602083015184820360208601526139008282613896565b91505060408301516139156040860182613876565b506060830151848203606086015261392d8282613896565b915050608083015184820360808601526139478282613896565b91505060a083015184820360a08601526139618282613896565b91505060c083015184820360c086015261397b8282613896565b91505060e083015184820360e08601526139958282613896565b9150508091505092915050565b600060c08301600083015184820360008601526139bf8282613896565b915050602083015184820360208601526139d98282613896565b91505060408301516139ee6040860182613876565b5060608301518482036060860152613a068282613896565b91505060808301518482036080860152613a208282613896565b91505060a083015184820360a0860152613a3a8282613896565b9150508091505092915050565b600060a0830160008301518482036000860152613a648282613896565b91505060208301518482036020860152613a7e8282613896565b91505060408301518482036040860152613a988282613896565b91505060608301518482036060860152613ab28282613896565b91505060808301518482036080860152613acc8282613896565b9150508091505092915050565b60006060820190508181036000830152613af381866138cf565b90508181036020830152613b0781856139a2565b90508181036040830152613b1b8184613a47565b9050949350505050565b600073ffffffffffffffffffffffffffffffffffffffff82169050919050565b6000613b5082613b25565b9050919050565b613b6081613b45565b82525050565b6000602082019050613b7b6000830184613b57565b92915050565b613b8a81613761565b82525050565b6000602082019050613ba56000830184613b81565b92915050565b600080fd5b7f4e487b7100000000000000000000000000000000000000000000000000000000600052604160045260246000fd5b613be88261380a565b810181811067ffffffffffffffff82111715613c0757613c06613bb0565b5b80604052505050565b6000613c1a61374d565b9050613c268282613bdf565b919050565b600080fd5b600080fd5b600080fd5b600067ffffffffffffffff821115613c5557613c54613bb0565b5b613c5e8261380a565b9050602081019050919050565b82818337600083830152505050565b6000613c8d613c8884613c3a565b613c10565b905082815260208101848484011115613ca957613ca8613c35565b5b613cb4848285613c6b565b509392505050565b600082601f830112613cd157613cd0613c30565b5b8135613ce1848260208601613c7a565b91505092915050565b60006101008284031215613d0157613d00613bab565b5b613d0c610100613c10565b90506000613d1c84828501613782565b600083015250602082013567ffffffffffffffff811115613d4057613d3f613c2b565b5b613d4c84828501613cbc565b6020830152506040613d6084828501613782565b604083015250606082013567ffffffffffffffff811115613d8457613d83613c2b565b5b613d9084828501613cbc565b606083015250608082013567ffffffffffffffff811115613db457613db3613c2b565b5b613dc084828501613cbc565b60808301525060a082013567ffffffffffffffff811115613de457613de3613c2b565b5b613df084828501613cbc565b60a08301525060c082013567ffffffffffffffff811115613e1457613e13613c2b565b5b613e2084828501613cbc565b60c08301525060e082013567ffffffffffffffff811115613e4457613e43613c2b565b5b613e5084828501613cbc565b60e08301525092915050565b600060c08284031215613e7257613e71613bab565b5b613e7c60c0613c10565b9050600082013567ffffffffffffffff811115613e9c57613e9b613c2b565b5b613ea884828501613cbc565b600083015250602082013567ffffffffffffffff811115613ecc57613ecb613c2b565b5b613ed884828501613cbc565b6020830152506040613eec84828501613782565b604083015250606082013567ffffffffffffffff811115613f1057613f0f613c2b565b5b613f1c84828501613cbc565b606083015250608082013567ffffffffffffffff811115613f4057613f3f613c2b565b5b613f4c84828501613cbc565b60808301525060a082013567ffffffffffffffff811115613f7057613f6f613c2b565b5b613f7c84828501613cbc565b60a08301525092915050565b600060a08284031215613f9e57613f9d613bab565b5b613fa860a0613c10565b9050600082013567ffffffffffffffff811115613fc857613fc7613c2b565b5b613fd484828501613cbc565b600083015250602082013567ffffffffffffffff811115613ff857613ff7613c2b565b5b61400484828501613cbc565b602083015250604082013567ffffffffffffffff81111561402857614027613c2b565b5b61403484828501613cbc565b604083015250606082013567ffffffffffffffff81111561405857614057613c2b565b5b61406484828501613cbc565b606083015250608082013567ffffffffffffffff81111561408857614087613c2b565b5b61409484828501613cbc565b60808301525092915050565b6000806000606084860312156140b9576140b8613757565b5b600084013567ffffffffffffffff8111156140d7576140d661375c565b5b6140e386828701613cea565b935050602084013567ffffffffffffffff8111156141045761410361375c565b5b61411086828701613e5c565b925050604084013567ffffffffffffffff8111156141315761413061375c565b5b61413d86828701613f88565b9150509250925092565b60008115159050919050565b61415c81614147565b82525050565b60006020820190506141776000830184614153565b92915050565b6000806000806080858703121561419757614196613757565b5b60006141a587828801613782565b945050602085013567ffffffffffffffff8111156141c6576141c561375c565b5b6141d287828801613cbc565b935050604085013567ffffffffffffffff8111156141f3576141f261375c565b5b6141ff87828801613cbc565b925050606085013567ffffffffffffffff8111156142205761421f61375c565b5b61422c87828801613cbc565b91505092959194509250565b600081519050919050565b600082825260208201905092915050565b6000819050602082019050919050565b60006101008301600083015161427d6000860182613876565b50602083015184820360208601526142958282613896565b91505060408301516142aa6040860182613876565b50606083015184820360608601526142c28282613896565b915050608083015184820360808601526142dc8282613896565b91505060a083015184820360a08601526142f68282613896565b91505060c083015184820360c08601526143108282613896565b91505060e083015184820360e086015261432a8282613896565b9150508091505092915050565b600060c08301600083015184820360008601526143548282613896565b9150506020830151848203602086015261436e8282613896565b91505060408301516143836040860182613876565b506060830151848203606086015261439b8282613896565b915050608083015184820360808601526143b58282613896565b91505060a083015184820360a08601526143cf8282613896565b9150508091505092915050565b600060a08301600083015184820360008601526143f98282613896565b915050602083015184820360208601526144138282613896565b9150506040830151848203604086015261442d8282613896565b915050606083015184820360608601526144478282613896565b915050608083015184820360808601526144618282613896565b9150508091505092915050565b6000606083016000830151848203600086015261448b8282614264565b915050602083015184820360208601526144a58282614337565b915050604083015184820360408601526144bf82826143dc565b9150508091505092915050565b60006144d8838361446e565b905092915050565b6000602082019050919050565b60006144f882614238565b6145028185614243565b93508360208202850161451485614254565b8060005b85811015614550578484038952815161453185826144cc565b945061453c836144e0565b925060208a01995050600181019050614518565b50829750879550505050505092915050565b6000602082019050818103600083015261457c81846144ed565b905092915050565b60008060008060008060c087890312156145a1576145a0613757565b5b60006145af89828a01613782565b965050602087013567ffffffffffffffff8111156145d0576145cf61375c565b5b6145dc89828a01613cbc565b955050604087013567ffffffffffffffff8111156145fd576145fc61375c565b5b61460989828a01613cbc565b945050606087013567ffffffffffffffff81111561462a5761462961375c565b5b61463689828a01613cbc565b935050608087013567ffffffffffffffff8111156146575761465661375c565b5b61466389828a01613cbc565b92505060a087013567ffffffffffffffff8111156146845761468361375c565b5b61469089828a01613cbc565b9150509295509295509295565b7f4e6f207265636f726420666f756e6420666f722074686520676976656e204944600082015250565b60006146d36020836137cf565b91506146de8261469d565b602082019050919050565b60006020820190508181036000830152614702816146c6565b9050919050565b7f4e487b7100000000000000000000000000000000000000000000000000000000600052602260045260246000fd5b6000600282049050600182168061475057607f821691505b60208210810361476357614762614709565b5b50919050565b7f4f6e6c7920746865206f776e65722063616e207265636f72642064696769746160008201527f6c2065766964656e636500000000000000000000000000000000000000000000602082015250565b60006147c5602a836137cf565b91506147d082614769565b604082019050919050565b600060208201905081810360008301526147f4816147b8565b9050919050565b60008190508160005260206000209050919050565b60006020601f8301049050919050565b600082821b905092915050565b60006008830261485d7fffffffffffffffffffffffffffffffffffffffffffffffffffffffffffffffff82614820565b6148678683614820565b95508019841693508086168417925050509392505050565b6000819050919050565b60006148a461489f61489a84613761565b61487f565b613761565b9050919050565b6000819050919050565b6148be83614889565b6148d26148ca826148ab565b84845461482d565b825550505050565b600090565b6148e76148da565b6148f28184846148b5565b505050565b5b818110156149165761490b6000826148df565b6001810190506148f8565b5050565b601f82111561495b5761492c816147fb565b61493584614810565b81016020851015614944578190505b61495861495085614810565b8301826148f7565b50505b505050565b600082821c905092915050565b600061497e60001984600802614960565b1980831691505092915050565b6000614997838361496d565b9150826002028217905092915050565b6149b0826137c4565b67ffffffffffffffff8111156149c9576149c8613bb0565b5b6149d38254614738565b6149de82828561491a565b600060209050601f831160018114614a1157600084156149ff578287015190505b614a09858261498b565b865550614a71565b601f198416614a1f866147fb565b60005b82811015614a4757848901518255600182019150602085019450602081019050614a22565b86831015614a645784890151614a60601f89168261496d565b8355505b6001600288020188555050505b505050505050565b6000610120820190508181036000830152614a94818c61381b565b9050614aa3602083018b613b81565b8181036040830152614ab5818a61381b565b90508181036060830152614ac9818961381b565b90508181036080830152614add818861381b565b905081810360a0830152614af1818761381b565b905081810360c0830152614b05818661381b565b905081810360e0830152614b19818561381b565b9050818103610100830152614b2e818461381b565b90509a9950505050505050505050565b600061012082019050614b54600083018c613b81565b8181036020830152614b66818b61381b565b90508181036040830152614b7a818a61381b565b90508181036060830152614b8e818961381b565b90508181036080830152614ba2818861381b565b905081810360a0830152614bb6818761381b565b905081810360c0830152614bca818661381b565b905081810360e0830152614bde818561381b565b9050818103610100830152614bf3818461381b565b90509a9950505050505050505050565b7f4e487b7100000000000000000000000000000000000000000000000000000000600052601160045260246000fd5b6000614c3d82613761565b91507fffffffffffffffffffffffffffffffffffffffffffffffffffffffffffffffff8203614c6f57614c6e614c03565b5b600182019050919050565b7f50686173652063616e6e6f7420626520656d7074790000000000000000000000600082015250565b6000614cb06015836137cf565b9150614cbb82614c7a565b602082019050919050565b60006020820190508181036000830152614cdf81614ca3565b9050919050565b7f53746174652063616e6e6f7420626520656d7074790000000000000000000000600082015250565b6000614d1c6015836137cf565b9150614d2782614ce6565b602082019050919050565b60006020820190508181036000830152614d4b81614d0f565b9050919050565b7f5374617465557064617465446174652063616e6e6f7420626520656d70747900600082015250565b6000614d88601f836137cf565b9150614d9382614d52565b602082019050919050565b60006020820190508181036000830152614db781614d7b565b9050919050565b7f4e487b7100000000000000000000000000000000000000000000000000000000600052603260045260246000fd5b600081549050614dfc81614738565b9050919050565b818103614e11575050614ee9565b614e1a82614ded565b67ffffffffffffffff811115614e3357614e32613bb0565b5b614e3d8254614738565b614e4882828561491a565b6000601f831160018114614e775760008415614e65578287015490505b614e6f858261498b565b865550614ee2565b601f198416614e85876147fb565b9650614e90866147fb565b60005b82811015614eb857848901548255600182019150600185019450602081019050614e93565b86831015614ed55784890154614ed1601f89168261496d565b8355505b6001600288020188555050505b5050505050505b565b60006060820190508181036000830152614f05818661381b565b90508181036020830152614f19818561381b565b90508181036040830152614f2d818461381b565b9050949350505050565b7f546563686e6963616c5265706f72742063616e6e6f7420626520656d70747900600082015250565b6000614f6d601f836137cf565b9150614f7882614f37565b602082019050919050565b60006020820190508181036000830152614f9c81614f60565b9050919050565b7f4578656375746976655265706f72742063616e6e6f7420626520656d70747900600082015250565b6000614fd9601f836137cf565b9150614fe482614fa3565b602082019050919050565b6000602082019050818103600083015261500881614fcc565b9050919050565b600060a0820190508181036000830152615029818861381b565b9050818103602083015261503d818761381b565b90508181036040830152615051818661381b565b90508181036060830152615065818561381b565b90508181036080830152615079818461381b565b9050969550505050505056fea2646970667358221220d3482700fa8935af440bd2269c01a12ef22cfbd78831fa4c2c8bac04333aca4764736f6c63430008180033536d61727420636f6e747261637420666f72207265636f7264696e672c20707265736572766174696f6e20616e6420766572696669636174696f6e206f66206469676974616c2065766964656e6365",
  "linkReferences": {},
  "deployedLinkReferences": {}
}