{
  "_format": "hh-sol-artifact-1",
  "contractName": "Prueba1",
  "sourceName": "contracts/Prueba1.sol",
  "abi": [
    {
      "inputs": [],
      "stateMutability": "nonpayable",
      "type": "constructor"
    },
    {
      "anonymous": false,
      "inputs": [
        {
          "indexed": false,
          "internalType": "uint256",
          "name": "id",
          "type": "uint256"
        },
        {
          "indexed": false,
          "internalType": "string",
          "name": "typeUser",
          "type": "string"
        },
        {
          "indexed": false,
          "internalType": "string",
          "name": "typeIde",
          "type": "string"
        },
        {
          "indexed": false,
          "internalType": "uint256",
          "name": "identification",
          "type": "uint256"
        },
        {
          "indexed": false,
          "internalType": "string",
          "name": "names",
          "type": "string"
        },
        {
          "indexed": false,
          "internalType": "string",
          "name": "lastNames",
          "type": "string"
        },
        {
          "indexed": false,
          "internalType": "string",
          "name": "dateRequest",
          "type": "string"
        },
        {
          "indexed": false,
          "internalType": "uint256",
          "name": "timeBlock",
          "type": "uint256"
        },
        {
          "indexed": false,
          "internalType": "bool",
          "name": "verified",
          "type": "bool"
        }
      ],
      "name": "createdED",
      "type": "event"
    },
    {
      "anonymous": false,
      "inputs": [
        {
          "indexed": false,
          "internalType": "uint256",
          "name": "id",
          "type": "uint256"
        },
        {
          "indexed": false,
          "internalType": "bool",
          "name": "verified",
          "type": "bool"
        }
      ],
      "name": "statusED",
      "type": "event"
    },
    {
      "inputs": [
        {
          "internalType": "uint256",
          "name": "",
          "type": "uint256"
        }
      ],
      "name": "arrayEvidence",
      "outputs": [
        {
          "internalType": "uint256",
          "name": "id",
          "type": "uint256"
        },
        {
          "internalType": "string",
          "name": "typeUser",
          "type": "string"
        },
        {
          "internalType": "string",
          "name": "typeIde",
          "type": "string"
        },
        {
          "internalType": "uint256",
          "name": "identification",
          "type": "uint256"
        },
        {
          "internalType": "string",
          "name": "names",
          "type": "string"
        },
        {
          "internalType": "string",
          "name": "lastNames",
          "type": "string"
        },
        {
          "internalType": "string",
          "name": "dateRequest",
          "type": "string"
        },
        {
          "internalType": "uint256",
          "name": "timeBlock",
          "type": "uint256"
        },
        {
          "internalType": "bool",
          "name": "verified",
          "type": "bool"
        }
      ],
      "stateMutability": "view",
      "type": "function"
    },
    {
      "inputs": [
        {
          "internalType": "uint256",
          "name": "_id",
          "type": "uint256"
        }
      ],
      "name": "changeStatus",
      "outputs": [],
      "stateMutability": "nonpayable",
      "type": "function"
    },
    {
      "inputs": [
        {
          "internalType": "string",
          "name": "_typeUser",
          "type": "string"
        },
        {
          "internalType": "string",
          "name": "_typeIde",
          "type": "string"
        },
        {
          "internalType": "uint256",
          "name": "_identification",
          "type": "uint256"
        },
        {
          "internalType": "string",
          "name": "_names",
          "type": "string"
        },
        {
          "internalType": "string",
          "name": "_lastNames",
          "type": "string"
        },
        {
          "internalType": "string",
          "name": "_dateRequest",
          "type": "string"
        }
      ],
      "name": "createEvidence",
      "outputs": [
        {
          "internalType": "bool",
          "name": "",
          "type": "bool"
        }
      ],
      "stateMutability": "nonpayable",
      "type": "function"
    },
    {
      "inputs": [
        {
          "internalType": "uint256",
          "name": "_id",
          "type": "uint256"
        }
      ],
      "name": "getId",
      "outputs": [
        {
          "internalType": "uint256",
          "name": "",
          "type": "uint256"
        }
      ],
      "stateMutability": "view",
      "type": "function"
    },
    {
      "inputs": [
        {
          "internalType": "uint256",
          "name": "_id",
          "type": "uint256"
        }
      ],
      "name": "getName",
      "outputs": [
        {
          "internalType": "string",
          "name": "",
          "type": "string"
        }
      ],
      "stateMutability": "view",
      "type": "function"
    },
    {
      "inputs": [],
      "name": "getNameContract",
      "outputs": [
        {
          "internalType": "string",
          "name": "",
          "type": "string"
        }
      ],
      "stateMutability": "view",
      "type": "function"
    },
    {
      "inputs": [],
      "name": "getRecordsEvidence",
      "outputs": [
        {
          "components": [
            {
              "internalType": "uint256",
              "name": "id",
              "type": "uint256"
            },
            {
              "internalType": "string",
              "name": "typeUser",
              "type": "string"
            },
            {
              "internalType": "string",
              "name": "typeIde",
              "type": "string"
            },
            {
              "internalType": "uint256",
              "name": "identification",
              "type": "uint256"
            },
            {
              "internalType": "string",
              "name": "names",
              "type": "string"
            },
            {
              "internalType": "string",
              "name": "lastNames",
              "type": "string"
            },
            {
              "internalType": "string",
              "name": "dateRequest",
              "type": "string"
            },
            {
              "internalType": "uint256",
              "name": "timeBlock",
              "type": "uint256"
            },
            {
              "internalType": "bool",
              "name": "verified",
              "type": "bool"
            }
          ],
          "internalType": "struct DataEvidence[]",
          "name": "",
          "type": "tuple[]"
        }
      ],
      "stateMutability": "view",
      "type": "function"
    },
    {
      "inputs": [],
      "name": "nameContract",
      "outputs": [
        {
          "internalType": "string",
          "name": "",
          "type": "string"
        }
      ],
      "stateMutability": "view",
      "type": "function"
    },
    {
      "inputs": [],
      "name": "owner",
      "outputs": [
        {
          "internalType": "address",
          "name": "",
          "type": "address"
        }
      ],
      "stateMutability": "view",
      "type": "function"
    },
    {
      "inputs": [
        {
          "internalType": "uint256",
          "name": "",
          "type": "uint256"
        }
      ],
      "name": "recordsEvidence",
      "outputs": [
        {
          "internalType": "uint256",
          "name": "id",
          "type": "uint256"
        },
        {
          "internalType": "string",
          "name": "typeUser",
          "type": "string"
        },
        {
          "internalType": "string",
          "name": "typeIde",
          "type": "string"
        },
        {
          "internalType": "uint256",
          "name": "identification",
          "type": "uint256"
        },
        {
          "internalType": "string",
          "name": "names",
          "type": "string"
        },
        {
          "internalType": "string",
          "name": "lastNames",
          "type": "string"
        },
        {
          "internalType": "string",
          "name": "dateRequest",
          "type": "string"
        },
        {
          "internalType": "uint256",
          "name": "timeBlock",
          "type": "uint256"
        },
        {
          "internalType": "bool",
          "name": "verified",
          "type": "bool"
        }
      ],
      "stateMutability": "view",
      "type": "function"
    }
  ],
  "bytecode": "0x60806040523480156200001157600080fd5b506040518060600160405280603181526020016200359460319139600290816200003c919062000855565b5033600160006101000a81548173ffffffffffffffffffffffffffffffffffffffff021916908373ffffffffffffffffffffffffffffffffffffffff16021790555060008081905550620001a56040518060400160405280600a81526020017f4e6f6e63655f696e6974000000000000000000000000000000000000000000008152506040518060400160405280600181526020017f2d0000000000000000000000000000000000000000000000000000000000000081525060016040518060400160405280600181526020017f2d000000000000000000000000000000000000000000000000000000000000008152506040518060400160405280600181526020017f2d000000000000000000000000000000000000000000000000000000000000008152506040518060400160405280600181526020017f2d00000000000000000000000000000000000000000000000000000000000000815250620001ac60201b60201c565b5062000f22565b600080875111620001f4576040517f08c379a0000000000000000000000000000000000000000000000000000000008152600401620001eb906200099d565b60405180910390fd5b60008651116200023b576040517f08c379a0000000000000000000000000000000000000000000000000000000008152600401620002329062000a0f565b60405180910390fd5b6000851162000281576040517f08c379a0000000000000000000000000000000000000000000000000000000008152600401620002789062000aa7565b60405180910390fd5b6000845111620002c8576040517f08c379a0000000000000000000000000000000000000000000000000000000008152600401620002bf9062000b19565b60405180910390fd5b60008351116200030f576040517f08c379a0000000000000000000000000000000000000000000000000000000008152600401620003069062000b8b565b60405180910390fd5b600082511162000356576040517f08c379a00000000000000000000000000000000000000000000000000000000081526004016200034d9062000bfd565b60405180910390fd5b6040518061012001604052806000548152602001888152602001878152602001868152602001858152602001848152602001838152602001428152602001600015158152506004600080548152602001908152602001600020600082015181600001556020820151816001019081620003d0919062000855565b506040820151816002019081620003e8919062000855565b506060820151816003015560808201518160040190816200040a919062000855565b5060a082015181600501908162000422919062000855565b5060c08201518160060190816200043a919062000855565b5060e082015181600701556101008201518160080160006101000a81548160ff0219169083151502179055509050506003600460008054815260200190815260200160002090806001815401808255809150506001900390600052602060002090600902016000909190919091506000820154816000015560018201816001019081620004c8919062000c37565b5060028201816002019081620004df919062000c37565b50600382015481600301556004820181600401908162000500919062000c37565b506005820181600501908162000517919062000c37565b50600682018160060190816200052e919062000c37565b50600782015481600701556008820160009054906101000a900460ff168160080160006101000a81548160ff02191690831515021790555050506000808154809291906200057c9062000d67565b91905055507f8fac587d8e0d9c1391a1c70968ea4a41af4e79696fe91d79db7605e431b00e49600054888888888888426000604051620005c59998979695949392919062000e60565b60405180910390a1600190509695505050505050565b600081519050919050565b7f4e487b7100000000000000000000000000000000000000000000000000000000600052604160045260246000fd5b7f4e487b7100000000000000000000000000000000000000000000000000000000600052602260045260246000fd5b600060028204905060018216806200065d57607f821691505b60208210810362000673576200067262000615565b5b50919050565b60008190508160005260206000209050919050565b60006020601f8301049050919050565b600082821b905092915050565b600060088302620006dd7fffffffffffffffffffffffffffffffffffffffffffffffffffffffffffffffff826200069e565b620006e986836200069e565b95508019841693508086168417925050509392505050565b6000819050919050565b6000819050919050565b600062000736620007306200072a8462000701565b6200070b565b62000701565b9050919050565b6000819050919050565b620007528362000715565b6200076a62000761826200073d565b848454620006ab565b825550505050565b600090565b6200078162000772565b6200078e81848462000747565b505050565b5b81811015620007b657620007aa60008262000777565b60018101905062000794565b5050565b601f8211156200080557620007cf8162000679565b620007da846200068e565b81016020851015620007ea578190505b62000802620007f9856200068e565b83018262000793565b50505b505050565b600082821c905092915050565b60006200082a600019846008026200080a565b1980831691505092915050565b600062000845838362000817565b9150826002028217905092915050565b6200086082620005db565b67ffffffffffffffff8111156200087c576200087b620005e6565b5b62000888825462000644565b62000895828285620007ba565b600060209050601f831160018114620008cd5760008415620008b8578287015190505b620008c4858262000837565b86555062000934565b601f198416620008dd8662000679565b60005b828110156200090757848901518255600182019150602085019450602081019050620008e0565b8683101562000927578489015162000923601f89168262000817565b8355505b6001600288020188555050505b505050505050565b600082825260208201905092915050565b7f54797065557365722063616e6e6f7420626520656d7074790000000000000000600082015250565b6000620009856018836200093c565b915062000992826200094d565b602082019050919050565b60006020820190508181036000830152620009b88162000976565b9050919050565b7f547970654964652063616e6e6f7420626520656d707479000000000000000000600082015250565b6000620009f76017836200093c565b915062000a0482620009bf565b602082019050919050565b6000602082019050818103600083015262000a2a81620009e8565b9050919050565b7f4964656e74696669636174696f6e206d7573742062652067726561746572207460008201527f68616e2030000000000000000000000000000000000000000000000000000000602082015250565b600062000a8f6025836200093c565b915062000a9c8262000a31565b604082019050919050565b6000602082019050818103600083015262000ac28162000a80565b9050919050565b7f4e616d65732063616e6e6f7420626520656d7074790000000000000000000000600082015250565b600062000b016015836200093c565b915062000b0e8262000ac9565b602082019050919050565b6000602082019050818103600083015262000b348162000af2565b9050919050565b7f4c6173744e616d65732063616e6e6f7420626520656d70747900000000000000600082015250565b600062000b736019836200093c565b915062000b808262000b3b565b602082019050919050565b6000602082019050818103600083015262000ba68162000b64565b9050919050565b7f44617465526571756573742063616e6e6f7420626520656d7074790000000000600082015250565b600062000be5601b836200093c565b915062000bf28262000bad565b602082019050919050565b6000602082019050818103600083015262000c188162000bd6565b9050919050565b60008154905062000c308162000644565b9050919050565b81810362000c4757505062000d36565b62000c528262000c1f565b67ffffffffffffffff81111562000c6e5762000c6d620005e6565b5b62000c7a825462000644565b62000c87828285620007ba565b6000601f83116001811462000cbb576000841562000ca6578287015490505b62000cb2858262000837565b86555062000d2f565b601f19841662000ccb8762000679565b965062000cd88662000679565b60005b8281101562000d025784890154825560018201915060018501945060208101905062000cdb565b8683101562000d22578489015462000d1e601f89168262000817565b8355505b6001600288020188555050505b5050505050505b565b7f4e487b7100000000000000000000000000000000000000000000000000000000600052601160045260246000fd5b600062000d748262000701565b91507fffffffffffffffffffffffffffffffffffffffffffffffffffffffffffffffff820362000da95762000da862000d38565b5b600182019050919050565b62000dbf8162000701565b82525050565b60005b8381101562000de557808201518184015260208101905062000dc8565b60008484015250505050565b6000601f19601f8301169050919050565b600062000e0f82620005db565b62000e1b81856200093c565b935062000e2d81856020860162000dc5565b62000e388162000df1565b840191505092915050565b60008115159050919050565b62000e5a8162000e43565b82525050565b60006101208201905062000e78600083018c62000db4565b818103602083015262000e8c818b62000e02565b9050818103604083015262000ea2818a62000e02565b905062000eb3606083018962000db4565b818103608083015262000ec7818862000e02565b905081810360a083015262000edd818762000e02565b905081810360c083015262000ef3818662000e02565b905062000f0460e083018562000db4565b62000f1461010083018462000e4f565b9a9950505050505050505050565b6126628062000f326000396000f3fe608060405234801561001057600080fd5b506004361061009e5760003560e01c80638ec28a0b116100665780638ec28a0b14610177578063cb782a66146101a7578063e8025d77146101df578063f0eb62cf146101fb578063f68d6330146102195761009e565b806312194e30146100a3578063392b30d9146100db578063545a153a146100f95780636b8ff574146101295780638da5cb5b14610159575b600080fd5b6100bd60048036038101906100b891906117a1565b610237565b6040516100d299989796959493929190611888565b60405180910390f35b6100e361054a565b6040516100f09190611b43565b60405180910390f35b610113600480360381019061010e91906117a1565b61094d565b6040516101209190611b65565b60405180910390f35b610143600480360381019061013e91906117a1565b6109fd565b6040516101509190611b80565b60405180910390f35b610161610b41565b60405161016e9190611be3565b60405180910390f35b610191600480360381019061018c9190611d33565b610b67565b60405161019e9190611e4c565b60405180910390f35b6101c160048036038101906101bc91906117a1565b610f6c565b6040516101d699989796959493929190611888565b60405180910390f35b6101f960048036038101906101f491906117a1565b61126f565b005b610203611631565b6040516102109190611b80565b60405180910390f35b6102216116bf565b60405161022e9190611b80565b60405180910390f35b6003818154811061024757600080fd5b906000526020600020906009020160009150905080600001549080600101805461027090611e96565b80601f016020809104026020016040519081016040528092919081815260200182805461029c90611e96565b80156102e95780601f106102be576101008083540402835291602001916102e9565b820191906000526020600020905b8154815290600101906020018083116102cc57829003601f168201915b5050505050908060020180546102fe90611e96565b80601f016020809104026020016040519081016040528092919081815260200182805461032a90611e96565b80156103775780601f1061034c57610100808354040283529160200191610377565b820191906000526020600020905b81548152906001019060200180831161035a57829003601f168201915b50505050509080600301549080600401805461039290611e96565b80601f01602080910402602001604051908101604052809291908181526020018280546103be90611e96565b801561040b5780601f106103e05761010080835404028352916020019161040b565b820191906000526020600020905b8154815290600101906020018083116103ee57829003601f168201915b50505050509080600501805461042090611e96565b80601f016020809104026020016040519081016040528092919081815260200182805461044c90611e96565b80156104995780601f1061046e57610100808354040283529160200191610499565b820191906000526020600020905b81548152906001019060200180831161047c57829003601f168201915b5050505050908060060180546104ae90611e96565b80601f01602080910402602001604051908101604052809291908181526020018280546104da90611e96565b80156105275780601f106104fc57610100808354040283529160200191610527565b820191906000526020600020905b81548152906001019060200180831161050a57829003601f168201915b5050505050908060070154908060080160009054906101000a900460ff16905089565b6060600160009054906101000a900473ffffffffffffffffffffffffffffffffffffffff1673ffffffffffffffffffffffffffffffffffffffff163373ffffffffffffffffffffffffffffffffffffffff16146105dc576040517f08c379a00000000000000000000000000000000000000000000000000000000081526004016105d390611f13565b60405180910390fd5b6003805480602002602001604051908101604052809291908181526020016000905b828210156109445783829060005260206000209060090201604051806101200160405290816000820154815260200160018201805461063c90611e96565b80601f016020809104026020016040519081016040528092919081815260200182805461066890611e96565b80156106b55780601f1061068a576101008083540402835291602001916106b5565b820191906000526020600020905b81548152906001019060200180831161069857829003601f168201915b505050505081526020016002820180546106ce90611e96565b80601f01602080910402602001604051908101604052809291908181526020018280546106fa90611e96565b80156107475780601f1061071c57610100808354040283529160200191610747565b820191906000526020600020905b81548152906001019060200180831161072a57829003601f168201915b505050505081526020016003820154815260200160048201805461076a90611e96565b80601f016020809104026020016040519081016040528092919081815260200182805461079690611e96565b80156107e35780601f106107b8576101008083540402835291602001916107e3565b820191906000526020600020905b8154815290600101906020018083116107c657829003601f168201915b505050505081526020016005820180546107fc90611e96565b80601f016020809104026020016040519081016040528092919081815260200182805461082890611e96565b80156108755780601f1061084a57610100808354040283529160200191610875565b820191906000526020600020905b81548152906001019060200180831161085857829003601f168201915b5050505050815260200160068201805461088e90611e96565b80601f01602080910402602001604051908101604052809291908181526020018280546108ba90611e96565b80156109075780601f106108dc57610100808354040283529160200191610907565b820191906000526020600020905b8154815290600101906020018083116108ea57829003601f168201915b50505050508152602001600782015481526020016008820160009054906101000a900460ff161515151581525050815260200190600101906105fe565b50505050905090565b6000600160009054906101000a900473ffffffffffffffffffffffffffffffffffffffff1673ffffffffffffffffffffffffffffffffffffffff163373ffffffffffffffffffffffffffffffffffffffff16146109df576040517f08c379a00000000000000000000000000000000000000000000000000000000081526004016109d690611f13565b60405180910390fd5b60046000838152602001908152602001600020600001549050919050565b606060006040518060400160405280600c81526020017f4e6f206578697374652e2e2e0000000000000000000000000000000000000000815250905060005b600380549050811015610b37578360038281548110610a5e57610a5d611f33565b5b90600052602060002090600902016000015403610b2a5760038181548110610a8957610a88611f33565b5b90600052602060002090600902016004018054610aa590611e96565b80601f0160208091040260200160405190810160405280929190818152602001828054610ad190611e96565b8015610b1e5780601f10610af357610100808354040283529160200191610b1e565b820191906000526020600020905b815481529060010190602001808311610b0157829003601f168201915b50505050509150610b37565b8080600101915050610a3c565b5080915050919050565b600160009054906101000a900473ffffffffffffffffffffffffffffffffffffffff1681565b600080875111610bac576040517f08c379a0000000000000000000000000000000000000000000000000000000008152600401610ba390611fae565b60405180910390fd5b6000865111610bf0576040517f08c379a0000000000000000000000000000000000000000000000000000000008152600401610be79061201a565b60405180910390fd5b60008511610c33576040517f08c379a0000000000000000000000000000000000000000000000000000000008152600401610c2a906120ac565b60405180910390fd5b6000845111610c77576040517f08c379a0000000000000000000000000000000000000000000000000000000008152600401610c6e90612118565b60405180910390fd5b6000835111610cbb576040517f08c379a0000000000000000000000000000000000000000000000000000000008152600401610cb290612184565b60405180910390fd5b6000825111610cff576040517f08c379a0000000000000000000000000000000000000000000000000000000008152600401610cf6906121f0565b60405180910390fd5b6040518061012001604052806000548152602001888152602001878152602001868152602001858152602001848152602001838152602001428152602001600015158152506004600080548152602001908152602001600020600082015181600001556020820151816001019081610d7791906123bc565b506040820151816002019081610d8d91906123bc565b50606082015181600301556080820151816004019081610dad91906123bc565b5060a0820151816005019081610dc391906123bc565b5060c0820151816006019081610dd991906123bc565b5060e082015181600701556101008201518160080160006101000a81548160ff0219169083151502179055509050506003600460008054815260200190815260200160002090806001815401808255809150506001900390600052602060002090600902016000909190919091506000820154816000015560018201816001019081610e6591906124a4565b5060028201816002019081610e7a91906124a4565b506003820154816003015560048201816004019081610e9991906124a4565b5060058201816005019081610eae91906124a4565b5060068201816006019081610ec391906124a4565b50600782015481600701556008820160009054906101000a900460ff168160080160006101000a81548160ff0219169083151502179055505050600080815480929190610f0f906125bb565b91905055507f8fac587d8e0d9c1391a1c70968ea4a41af4e79696fe91d79db7605e431b00e49600054888888888888426000604051610f5699989796959493929190611888565b60405180910390a1600190509695505050505050565b6004602052806000526040600020600091509050806000015490806001018054610f9590611e96565b80601f0160208091040260200160405190810160405280929190818152602001828054610fc190611e96565b801561100e5780601f10610fe35761010080835404028352916020019161100e565b820191906000526020600020905b815481529060010190602001808311610ff157829003601f168201915b50505050509080600201805461102390611e96565b80601f016020809104026020016040519081016040528092919081815260200182805461104f90611e96565b801561109c5780601f106110715761010080835404028352916020019161109c565b820191906000526020600020905b81548152906001019060200180831161107f57829003601f168201915b5050505050908060030154908060040180546110b790611e96565b80601f01602080910402602001604051908101604052809291908181526020018280546110e390611e96565b80156111305780601f1061110557610100808354040283529160200191611130565b820191906000526020600020905b81548152906001019060200180831161111357829003601f168201915b50505050509080600501805461114590611e96565b80601f016020809104026020016040519081016040528092919081815260200182805461117190611e96565b80156111be5780601f10611193576101008083540402835291602001916111be565b820191906000526020600020905b8154815290600101906020018083116111a157829003601f168201915b5050505050908060060180546111d390611e96565b80601f01602080910402602001604051908101604052809291908181526020018280546111ff90611e96565b801561124c5780601f106112215761010080835404028352916020019161124c565b820191906000526020600020905b81548152906001019060200180831161122f57829003601f168201915b5050505050908060070154908060080160009054906101000a900460ff16905089565b60006004600083815260200190815260200160002060405180610120016040529081600082015481526020016001820180546112aa90611e96565b80601f01602080910402602001604051908101604052809291908181526020018280546112d690611e96565b80156113235780601f106112f857610100808354040283529160200191611323565b820191906000526020600020905b81548152906001019060200180831161130657829003601f168201915b5050505050815260200160028201805461133c90611e96565b80601f016020809104026020016040519081016040528092919081815260200182805461136890611e96565b80156113b55780601f1061138a576101008083540402835291602001916113b5565b820191906000526020600020905b81548152906001019060200180831161139857829003601f168201915b50505050508152602001600382015481526020016004820180546113d890611e96565b80601f016020809104026020016040519081016040528092919081815260200182805461140490611e96565b80156114515780601f1061142657610100808354040283529160200191611451565b820191906000526020600020905b81548152906001019060200180831161143457829003601f168201915b5050505050815260200160058201805461146a90611e96565b80601f016020809104026020016040519081016040528092919081815260200182805461149690611e96565b80156114e35780601f106114b8576101008083540402835291602001916114e3565b820191906000526020600020905b8154815290600101906020018083116114c657829003601f168201915b505050505081526020016006820180546114fc90611e96565b80601f016020809104026020016040519081016040528092919081815260200182805461152890611e96565b80156115755780601f1061154a57610100808354040283529160200191611575565b820191906000526020600020905b81548152906001019060200180831161155857829003601f168201915b50505050508152602001600782015481526020016008820160009054906101000a900460ff161515151581525050905080610100015115816101000190151590811515815250508061010001516004600084815260200190815260200160002060080160006101000a81548160ff0219169083151502179055507f82ec7c8fbcae453c45b4ed065081cc4b9c46ecbf6f9b22c05c769d4fc1b270c882826101000151604051611625929190612603565b60405180910390a15050565b6002805461163e90611e96565b80601f016020809104026020016040519081016040528092919081815260200182805461166a90611e96565b80156116b75780601f1061168c576101008083540402835291602001916116b7565b820191906000526020600020905b81548152906001019060200180831161169a57829003601f168201915b505050505081565b60606000600280546116d090611e96565b80601f01602080910402602001604051908101604052809291908181526020018280546116fc90611e96565b80156117495780601f1061171e57610100808354040283529160200191611749565b820191906000526020600020905b81548152906001019060200180831161172c57829003601f168201915b505050505090508091505090565b6000604051905090565b600080fd5b600080fd5b6000819050919050565b61177e8161176b565b811461178957600080fd5b50565b60008135905061179b81611775565b92915050565b6000602082840312156117b7576117b6611761565b5b60006117c58482850161178c565b91505092915050565b6117d78161176b565b82525050565b600081519050919050565b600082825260208201905092915050565b60005b838110156118175780820151818401526020810190506117fc565b60008484015250505050565b6000601f19601f8301169050919050565b600061183f826117dd565b61184981856117e8565b93506118598185602086016117f9565b61186281611823565b840191505092915050565b60008115159050919050565b6118828161186d565b82525050565b60006101208201905061189e600083018c6117ce565b81810360208301526118b0818b611834565b905081810360408301526118c4818a611834565b90506118d360608301896117ce565b81810360808301526118e58188611834565b905081810360a08301526118f98187611834565b905081810360c083015261190d8186611834565b905061191c60e08301856117ce565b61192a610100830184611879565b9a9950505050505050505050565b600081519050919050565b600082825260208201905092915050565b6000819050602082019050919050565b61196d8161176b565b82525050565b600082825260208201905092915050565b600061198f826117dd565b6119998185611973565b93506119a98185602086016117f9565b6119b281611823565b840191505092915050565b6119c68161186d565b82525050565b6000610120830160008301516119e56000860182611964565b50602083015184820360208601526119fd8282611984565b91505060408301518482036040860152611a178282611984565b9150506060830151611a2c6060860182611964565b5060808301518482036080860152611a448282611984565b91505060a083015184820360a0860152611a5e8282611984565b91505060c083015184820360c0860152611a788282611984565b91505060e0830151611a8d60e0860182611964565b50610100830151611aa26101008601826119bd565b508091505092915050565b6000611ab983836119cc565b905092915050565b6000602082019050919050565b6000611ad982611938565b611ae38185611943565b935083602082028501611af585611954565b8060005b85811015611b315784840389528151611b128582611aad565b9450611b1d83611ac1565b925060208a01995050600181019050611af9565b50829750879550505050505092915050565b60006020820190508181036000830152611b5d8184611ace565b905092915050565b6000602082019050611b7a60008301846117ce565b92915050565b60006020820190508181036000830152611b9a8184611834565b905092915050565b600073ffffffffffffffffffffffffffffffffffffffff82169050919050565b6000611bcd82611ba2565b9050919050565b611bdd81611bc2565b82525050565b6000602082019050611bf86000830184611bd4565b92915050565b600080fd5b600080fd5b7f4e487b7100000000000000000000000000000000000000000000000000000000600052604160045260246000fd5b611c4082611823565b810181811067ffffffffffffffff82111715611c5f57611c5e611c08565b5b80604052505050565b6000611c72611757565b9050611c7e8282611c37565b919050565b600067ffffffffffffffff821115611c9e57611c9d611c08565b5b611ca782611823565b9050602081019050919050565b82818337600083830152505050565b6000611cd6611cd184611c83565b611c68565b905082815260208101848484011115611cf257611cf1611c03565b5b611cfd848285611cb4565b509392505050565b600082601f830112611d1a57611d19611bfe565b5b8135611d2a848260208601611cc3565b91505092915050565b60008060008060008060c08789031215611d5057611d4f611761565b5b600087013567ffffffffffffffff811115611d6e57611d6d611766565b5b611d7a89828a01611d05565b965050602087013567ffffffffffffffff811115611d9b57611d9a611766565b5b611da789828a01611d05565b9550506040611db889828a0161178c565b945050606087013567ffffffffffffffff811115611dd957611dd8611766565b5b611de589828a01611d05565b935050608087013567ffffffffffffffff811115611e0657611e05611766565b5b611e1289828a01611d05565b92505060a087013567ffffffffffffffff811115611e3357611e32611766565b5b611e3f89828a01611d05565b9150509295509295509295565b6000602082019050611e616000830184611879565b92915050565b7f4e487b7100000000000000000000000000000000000000000000000000000000600052602260045260246000fd5b60006002820490506001821680611eae57607f821691505b602082108103611ec157611ec0611e67565b5b50919050565b7f6f6e6c7920746865206f776e65722063616e2065786563757465207461736b00600082015250565b6000611efd601f836117e8565b9150611f0882611ec7565b602082019050919050565b60006020820190508181036000830152611f2c81611ef0565b9050919050565b7f4e487b7100000000000000000000000000000000000000000000000000000000600052603260045260246000fd5b7f54797065557365722063616e6e6f7420626520656d7074790000000000000000600082015250565b6000611f986018836117e8565b9150611fa382611f62565b602082019050919050565b60006020820190508181036000830152611fc781611f8b565b9050919050565b7f547970654964652063616e6e6f7420626520656d707479000000000000000000600082015250565b60006120046017836117e8565b915061200f82611fce565b602082019050919050565b6000602082019050818103600083015261203381611ff7565b9050919050565b7f4964656e74696669636174696f6e206d7573742062652067726561746572207460008201527f68616e2030000000000000000000000000000000000000000000000000000000602082015250565b60006120966025836117e8565b91506120a18261203a565b604082019050919050565b600060208201905081810360008301526120c581612089565b9050919050565b7f4e616d65732063616e6e6f7420626520656d7074790000000000000000000000600082015250565b60006121026015836117e8565b915061210d826120cc565b602082019050919050565b60006020820190508181036000830152612131816120f5565b9050919050565b7f4c6173744e616d65732063616e6e6f7420626520656d70747900000000000000600082015250565b600061216e6019836117e8565b915061217982612138565b602082019050919050565b6000602082019050818103600083015261219d81612161565b9050919050565b7f44617465526571756573742063616e6e6f7420626520656d7074790000000000600082015250565b60006121da601b836117e8565b91506121e5826121a4565b602082019050919050565b60006020820190508181036000830152612209816121cd565b9050919050565b60008190508160005260206000209050919050565b60006020601f8301049050919050565b600082821b905092915050565b6000600883026122727fffffffffffffffffffffffffffffffffffffffffffffffffffffffffffffffff82612235565b61227c8683612235565b95508019841693508086168417925050509392505050565b6000819050919050565b60006122b96122b46122af8461176b565b612294565b61176b565b9050919050565b6000819050919050565b6122d38361229e565b6122e76122df826122c0565b848454612242565b825550505050565b600090565b6122fc6122ef565b6123078184846122ca565b505050565b5b8181101561232b576123206000826122f4565b60018101905061230d565b5050565b601f8211156123705761234181612210565b61234a84612225565b81016020851015612359578190505b61236d61236585612225565b83018261230c565b50505b505050565b600082821c905092915050565b600061239360001984600802612375565b1980831691505092915050565b60006123ac8383612382565b9150826002028217905092915050565b6123c5826117dd565b67ffffffffffffffff8111156123de576123dd611c08565b5b6123e88254611e96565b6123f382828561232f565b600060209050601f8311600181146124265760008415612414578287015190505b61241e85826123a0565b865550612486565b601f19841661243486612210565b60005b8281101561245c57848901518255600182019150602085019450602081019050612437565b868310156124795784890151612475601f891682612382565b8355505b6001600288020188555050505b505050505050565b60008154905061249d81611e96565b9050919050565b8181036124b257505061258a565b6124bb8261248e565b67ffffffffffffffff8111156124d4576124d3611c08565b5b6124de8254611e96565b6124e982828561232f565b6000601f8311600181146125185760008415612506578287015490505b61251085826123a0565b865550612583565b601f19841661252687612210565b965061253186612210565b60005b8281101561255957848901548255600182019150600185019450602081019050612534565b868310156125765784890154612572601f891682612382565b8355505b6001600288020188555050505b5050505050505b565b7f4e487b7100000000000000000000000000000000000000000000000000000000600052601160045260246000fd5b60006125c68261176b565b91507fffffffffffffffffffffffffffffffffffffffffffffffffffffffffffffffff82036125f8576125f761258c565b5b600182019050919050565b600060408201905061261860008301856117ce565b6126256020830184611879565b939250505056fea2646970667358221220353394b0fd23df07780d767b20d80926739d109759cb139f8cf2ff1e73cc1c8664736f6c63430008180033436f6e747261637420666f72207265636f7264696e67206f66206469676974616c2065766964656e6365205564656e6172",
  "linkReferences": {},
  "deployedLinkReferences": {}
}