{
  "_format": "hh-sol-artifact-1",
  "contractName": "Prueba2",
  "sourceName": "contracts/Prueba2.sol",
  "abi": [
    {
      "inputs": [],
      "stateMutability": "nonpayable",
      "type": "constructor"
    },
    {
      "anonymous": false,
      "inputs": [
        {
          "indexed": false,
          "internalType": "uint256",
          "name": "id",
          "type": "uint256"
        },
        {
          "indexed": false,
          "internalType": "string",
          "name": "typeUser",
          "type": "string"
        },
        {
          "indexed": false,
          "internalType": "string",
          "name": "typeIde",
          "type": "string"
        },
        {
          "indexed": false,
          "internalType": "uint256",
          "name": "identification",
          "type": "uint256"
        },
        {
          "indexed": false,
          "internalType": "string",
          "name": "names",
          "type": "string"
        },
        {
          "indexed": false,
          "internalType": "string",
          "name": "lastNames",
          "type": "string"
        },
        {
          "indexed": false,
          "internalType": "string",
          "name": "fileHash",
          "type": "string"
        },
        {
          "indexed": false,
          "internalType": "string",
          "name": "filePath",
          "type": "string"
        },
        {
          "indexed": false,
          "internalType": "string",
          "name": "dateRequest",
          "type": "string"
        },
        {
          "indexed": false,
          "internalType": "string",
          "name": "phase",
          "type": "string"
        }
      ],
      "name": "createdED",
      "type": "event"
    },
    {
      "anonymous": false,
      "inputs": [
        {
          "indexed": false,
          "internalType": "uint256",
          "name": "id",
          "type": "uint256"
        },
        {
          "indexed": false,
          "internalType": "string",
          "name": "phase",
          "type": "string"
        }
      ],
      "name": "statusPhase",
      "type": "event"
    },
    {
      "inputs": [
        {
          "internalType": "uint256",
          "name": "",
          "type": "uint256"
        }
      ],
      "name": "arrayEvidence",
      "outputs": [
        {
          "internalType": "uint256",
          "name": "id",
          "type": "uint256"
        },
        {
          "internalType": "string",
          "name": "typeUser",
          "type": "string"
        },
        {
          "internalType": "string",
          "name": "typeIde",
          "type": "string"
        },
        {
          "internalType": "uint256",
          "name": "identification",
          "type": "uint256"
        },
        {
          "internalType": "string",
          "name": "names",
          "type": "string"
        },
        {
          "internalType": "string",
          "name": "lastNames",
          "type": "string"
        },
        {
          "internalType": "string",
          "name": "fileHash",
          "type": "string"
        },
        {
          "internalType": "string",
          "name": "filePath",
          "type": "string"
        },
        {
          "internalType": "string",
          "name": "dateRequest",
          "type": "string"
        },
        {
          "internalType": "string",
          "name": "phase",
          "type": "string"
        }
      ],
      "stateMutability": "view",
      "type": "function"
    },
    {
      "inputs": [
        {
          "internalType": "uint256",
          "name": "_id",
          "type": "uint256"
        },
        {
          "internalType": "string",
          "name": "_phase",
          "type": "string"
        }
      ],
      "name": "changePhase",
      "outputs": [
        {
          "internalType": "bool",
          "name": "",
          "type": "bool"
        }
      ],
      "stateMutability": "nonpayable",
      "type": "function"
    },
    {
      "inputs": [
        {
          "internalType": "string",
          "name": "_typeUser",
          "type": "string"
        },
        {
          "internalType": "string",
          "name": "_typeIde",
          "type": "string"
        },
        {
          "internalType": "uint256",
          "name": "_identification",
          "type": "uint256"
        },
        {
          "internalType": "string",
          "name": "_names",
          "type": "string"
        },
        {
          "internalType": "string",
          "name": "_lastNames",
          "type": "string"
        },
        {
          "internalType": "string",
          "name": "_fileHash",
          "type": "string"
        },
        {
          "internalType": "string",
          "name": "_filePath",
          "type": "string"
        },
        {
          "internalType": "string",
          "name": "_dateRequest",
          "type": "string"
        }
      ],
      "name": "createEvidence",
      "outputs": [
        {
          "internalType": "bool",
          "name": "",
          "type": "bool"
        }
      ],
      "stateMutability": "nonpayable",
      "type": "function"
    },
    {
      "inputs": [],
      "name": "getAdrress",
      "outputs": [
        {
          "internalType": "address",
          "name": "",
          "type": "address"
        }
      ],
      "stateMutability": "view",
      "type": "function"
    },
    {
      "inputs": [
        {
          "internalType": "uint256",
          "name": "_id",
          "type": "uint256"
        }
      ],
      "name": "getFileHash",
      "outputs": [
        {
          "internalType": "string",
          "name": "",
          "type": "string"
        }
      ],
      "stateMutability": "view",
      "type": "function"
    },
    {
      "inputs": [
        {
          "internalType": "uint256",
          "name": "_id",
          "type": "uint256"
        }
      ],
      "name": "getFilePath",
      "outputs": [
        {
          "internalType": "string",
          "name": "",
          "type": "string"
        }
      ],
      "stateMutability": "view",
      "type": "function"
    },
    {
      "inputs": [
        {
          "internalType": "uint256",
          "name": "_id",
          "type": "uint256"
        }
      ],
      "name": "getName",
      "outputs": [
        {
          "internalType": "string",
          "name": "",
          "type": "string"
        }
      ],
      "stateMutability": "view",
      "type": "function"
    },
    {
      "inputs": [],
      "name": "getNameContract",
      "outputs": [
        {
          "internalType": "string",
          "name": "",
          "type": "string"
        }
      ],
      "stateMutability": "view",
      "type": "function"
    },
    {
      "inputs": [
        {
          "internalType": "uint256",
          "name": "",
          "type": "uint256"
        }
      ],
      "name": "recordsEvidence",
      "outputs": [
        {
          "internalType": "uint256",
          "name": "id",
          "type": "uint256"
        },
        {
          "internalType": "string",
          "name": "typeUser",
          "type": "string"
        },
        {
          "internalType": "string",
          "name": "typeIde",
          "type": "string"
        },
        {
          "internalType": "uint256",
          "name": "identification",
          "type": "uint256"
        },
        {
          "internalType": "string",
          "name": "names",
          "type": "string"
        },
        {
          "internalType": "string",
          "name": "lastNames",
          "type": "string"
        },
        {
          "internalType": "string",
          "name": "fileHash",
          "type": "string"
        },
        {
          "internalType": "string",
          "name": "filePath",
          "type": "string"
        },
        {
          "internalType": "string",
          "name": "dateRequest",
          "type": "string"
        },
        {
          "internalType": "string",
          "name": "phase",
          "type": "string"
        }
      ],
      "stateMutability": "view",
      "type": "function"
    }
  ],
  "bytecode": "0x60806040523480156200001157600080fd5b506040518060600160405280603b815260200162003692603b9139600290816200003c9190620009b5565b5033600160006101000a81548173ffffffffffffffffffffffffffffffffffffffff021916908373ffffffffffffffffffffffffffffffffffffffff16021790555060008081905550620002116040518060400160405280600a81526020017f4e6f6e63655f696e6974000000000000000000000000000000000000000000008152506040518060400160405280600181526020017f2d0000000000000000000000000000000000000000000000000000000000000081525060016040518060400160405280600181526020017f2d000000000000000000000000000000000000000000000000000000000000008152506040518060400160405280600181526020017f2d000000000000000000000000000000000000000000000000000000000000008152506040518060400160405280600181526020017f2d000000000000000000000000000000000000000000000000000000000000008152506040518060400160405280600181526020017f2d000000000000000000000000000000000000000000000000000000000000008152506040518060400160405280600181526020017f2d000000000000000000000000000000000000000000000000000000000000008152506200021860201b60201c565b50620010d9565b60008089511162000260576040517f08c379a0000000000000000000000000000000000000000000000000000000008152600401620002579062000afd565b60405180910390fd5b6000885111620002a7576040517f08c379a00000000000000000000000000000000000000000000000000000000081526004016200029e9062000b6f565b60405180910390fd5b60008711620002ed576040517f08c379a0000000000000000000000000000000000000000000000000000000008152600401620002e49062000c07565b60405180910390fd5b600086511162000334576040517f08c379a00000000000000000000000000000000000000000000000000000000081526004016200032b9062000c79565b60405180910390fd5b60008551116200037b576040517f08c379a0000000000000000000000000000000000000000000000000000000008152600401620003729062000ceb565b60405180910390fd5b6000845111620003c2576040517f08c379a0000000000000000000000000000000000000000000000000000000008152600401620003b99062000d5d565b60405180910390fd5b600083511162000409576040517f08c379a0000000000000000000000000000000000000000000000000000000008152600401620004009062000d5d565b60405180910390fd5b600082511162000450576040517f08c379a0000000000000000000000000000000000000000000000000000000008152600401620004479062000d5d565b60405180910390fd5b60405180610140016040528060005481526020018a81526020018981526020018881526020018781526020018681526020018581526020018481526020018381526020016040518060400160405280600c81526020017f507265736572766174696f6e00000000000000000000000000000000000000008152508152506004600080548152602001908152602001600020600082015181600001556020820151816001019081620005029190620009b5565b5060408201518160020190816200051a9190620009b5565b506060820151816003015560808201518160040190816200053c9190620009b5565b5060a0820151816005019081620005549190620009b5565b5060c08201518160060190816200056c9190620009b5565b5060e0820151816007019081620005849190620009b5565b506101008201518160080190816200059d9190620009b5565b50610120820151816009019081620005b69190620009b5565b509050506003600460008054815260200190815260200160002090806001815401808255809150506001900390600052602060002090600a0201600090919091909150600082015481600001556001820181600101908162000619919062000d97565b506002820181600201908162000630919062000d97565b50600382015481600301556004820181600401908162000651919062000d97565b506005820181600501908162000668919062000d97565b50600682018160060190816200067f919062000d97565b506007820181600701908162000696919062000d97565b5060088201816008019081620006ad919062000d97565b5060098201816009019081620006c4919062000d97565b505050600080815480929190620006db9062000ec7565b91905055507f0f7cf3987d953efad0c3d7728f6b9ef09e8befd3e8202ffbb0f293b2f11762206000548a8a8a8a8a8a8a8a604051620007239998979695949392919062000ff3565b60405180910390a16001905098975050505050505050565b600081519050919050565b7f4e487b7100000000000000000000000000000000000000000000000000000000600052604160045260246000fd5b7f4e487b7100000000000000000000000000000000000000000000000000000000600052602260045260246000fd5b60006002820490506001821680620007bd57607f821691505b602082108103620007d357620007d262000775565b5b50919050565b60008190508160005260206000209050919050565b60006020601f8301049050919050565b600082821b905092915050565b6000600883026200083d7fffffffffffffffffffffffffffffffffffffffffffffffffffffffffffffffff82620007fe565b620008498683620007fe565b95508019841693508086168417925050509392505050565b6000819050919050565b6000819050919050565b600062000896620008906200088a8462000861565b6200086b565b62000861565b9050919050565b6000819050919050565b620008b28362000875565b620008ca620008c1826200089d565b8484546200080b565b825550505050565b600090565b620008e1620008d2565b620008ee818484620008a7565b505050565b5b8181101562000916576200090a600082620008d7565b600181019050620008f4565b5050565b601f82111562000965576200092f81620007d9565b6200093a84620007ee565b810160208510156200094a578190505b620009626200095985620007ee565b830182620008f3565b50505b505050565b600082821c905092915050565b60006200098a600019846008026200096a565b1980831691505092915050565b6000620009a5838362000977565b9150826002028217905092915050565b620009c0826200073b565b67ffffffffffffffff811115620009dc57620009db62000746565b5b620009e88254620007a4565b620009f58282856200091a565b600060209050601f83116001811462000a2d576000841562000a18578287015190505b62000a24858262000997565b86555062000a94565b601f19841662000a3d86620007d9565b60005b8281101562000a675784890151825560018201915060208501945060208101905062000a40565b8683101562000a87578489015162000a83601f89168262000977565b8355505b6001600288020188555050505b505050505050565b600082825260208201905092915050565b7f54797065557365722063616e6e6f7420626520656d7074790000000000000000600082015250565b600062000ae560188362000a9c565b915062000af28262000aad565b602082019050919050565b6000602082019050818103600083015262000b188162000ad6565b9050919050565b7f547970654964652063616e6e6f7420626520656d707479000000000000000000600082015250565b600062000b5760178362000a9c565b915062000b648262000b1f565b602082019050919050565b6000602082019050818103600083015262000b8a8162000b48565b9050919050565b7f4964656e74696669636174696f6e206d7573742062652067726561746572207460008201527f68616e2030000000000000000000000000000000000000000000000000000000602082015250565b600062000bef60258362000a9c565b915062000bfc8262000b91565b604082019050919050565b6000602082019050818103600083015262000c228162000be0565b9050919050565b7f4e616d65732063616e6e6f7420626520656d7074790000000000000000000000600082015250565b600062000c6160158362000a9c565b915062000c6e8262000c29565b602082019050919050565b6000602082019050818103600083015262000c948162000c52565b9050919050565b7f4c6173744e616d65732063616e6e6f7420626520656d70747900000000000000600082015250565b600062000cd360198362000a9c565b915062000ce08262000c9b565b602082019050919050565b6000602082019050818103600083015262000d068162000cc4565b9050919050565b7f44617465526571756573742063616e6e6f7420626520656d7074790000000000600082015250565b600062000d45601b8362000a9c565b915062000d528262000d0d565b602082019050919050565b6000602082019050818103600083015262000d788162000d36565b9050919050565b60008154905062000d9081620007a4565b9050919050565b81810362000da757505062000e96565b62000db28262000d7f565b67ffffffffffffffff81111562000dce5762000dcd62000746565b5b62000dda8254620007a4565b62000de78282856200091a565b6000601f83116001811462000e1b576000841562000e06578287015490505b62000e12858262000997565b86555062000e8f565b601f19841662000e2b87620007d9565b965062000e3886620007d9565b60005b8281101562000e625784890154825560018201915060018501945060208101905062000e3b565b8683101562000e82578489015462000e7e601f89168262000977565b8355505b6001600288020188555050505b5050505050505b565b7f4e487b7100000000000000000000000000000000000000000000000000000000600052601160045260246000fd5b600062000ed48262000861565b91507fffffffffffffffffffffffffffffffffffffffffffffffffffffffffffffffff820362000f095762000f0862000e98565b5b600182019050919050565b62000f1f8162000861565b82525050565b60005b8381101562000f4557808201518184015260208101905062000f28565b60008484015250505050565b6000601f19601f8301169050919050565b600062000f6f826200073b565b62000f7b818562000a9c565b935062000f8d81856020860162000f25565b62000f988162000f51565b840191505092915050565b7f507265736572766174696f6e0000000000000000000000000000000000000000600082015250565b600062000fdb600c8362000a9c565b915062000fe88262000fa3565b602082019050919050565b6000610140820190506200100b600083018c62000f14565b81810360208301526200101f818b62000f62565b9050818103604083015262001035818a62000f62565b905062001046606083018962000f14565b81810360808301526200105a818862000f62565b905081810360a083015262001070818762000f62565b905081810360c083015262001086818662000f62565b905081810360e08301526200109c818562000f62565b9050818103610100830152620010b3818462000f62565b9050818103610120830152620010c98162000fcc565b90509a9950505050505050505050565b6125a980620010e96000396000f3fe608060405234801561001057600080fd5b50600436106100935760003560e01c80639d45ed03116100665780639d45ed031461014f578063b28061f61461017f578063cb782a66146101af578063eb131135146101e8578063f68d63301461021857610093565b8063031367831461009857806312194e30146100c8578063188ff6f1146101015780636b8ff5741461011f575b600080fd5b6100b260048036038101906100ad91906115ef565b610236565b6040516100bf91906116ac565b60405180910390f35b6100e260048036038101906100dd91906115ef565b610322565b6040516100f89a999897969594939291906116dd565b60405180910390f35b6101096107c6565b60405161011691906117f2565b60405180910390f35b610139600480360381019061013491906115ef565b610880565b60405161014691906116ac565b60405180910390f35b61016960048036038101906101649190611942565b61096c565b6040516101769190611ad7565b60405180910390f35b61019960048036038101906101949190611af2565b610e53565b6040516101a69190611ad7565b60405180910390f35b6101c960048036038101906101c491906115ef565b610f8d565b6040516101df9a999897969594939291906116dd565b60405180910390f35b61020260048036038101906101fd91906115ef565b611421565b60405161020f91906116ac565b60405180910390f35b61022061150d565b60405161022d91906116ac565b60405180910390f35b6060600054821061027c576040517f08c379a000000000000000000000000000000000000000000000000000000000815260040161027390611b9a565b60405180910390fd5b60046000838152602001908152602001600020600701805461029d90611be9565b80601f01602080910402602001604051908101604052809291908181526020018280546102c990611be9565b80156103165780601f106102eb57610100808354040283529160200191610316565b820191906000526020600020905b8154815290600101906020018083116102f957829003601f168201915b50505050509050919050565b6003818154811061033257600080fd5b90600052602060002090600a020160009150905080600001549080600101805461035b90611be9565b80601f016020809104026020016040519081016040528092919081815260200182805461038790611be9565b80156103d45780601f106103a9576101008083540402835291602001916103d4565b820191906000526020600020905b8154815290600101906020018083116103b757829003601f168201915b5050505050908060020180546103e990611be9565b80601f016020809104026020016040519081016040528092919081815260200182805461041590611be9565b80156104625780601f1061043757610100808354040283529160200191610462565b820191906000526020600020905b81548152906001019060200180831161044557829003601f168201915b50505050509080600301549080600401805461047d90611be9565b80601f01602080910402602001604051908101604052809291908181526020018280546104a990611be9565b80156104f65780601f106104cb576101008083540402835291602001916104f6565b820191906000526020600020905b8154815290600101906020018083116104d957829003601f168201915b50505050509080600501805461050b90611be9565b80601f016020809104026020016040519081016040528092919081815260200182805461053790611be9565b80156105845780601f1061055957610100808354040283529160200191610584565b820191906000526020600020905b81548152906001019060200180831161056757829003601f168201915b50505050509080600601805461059990611be9565b80601f01602080910402602001604051908101604052809291908181526020018280546105c590611be9565b80156106125780601f106105e757610100808354040283529160200191610612565b820191906000526020600020905b8154815290600101906020018083116105f557829003601f168201915b50505050509080600701805461062790611be9565b80601f016020809104026020016040519081016040528092919081815260200182805461065390611be9565b80156106a05780601f10610675576101008083540402835291602001916106a0565b820191906000526020600020905b81548152906001019060200180831161068357829003601f168201915b5050505050908060080180546106b590611be9565b80601f01602080910402602001604051908101604052809291908181526020018280546106e190611be9565b801561072e5780601f106107035761010080835404028352916020019161072e565b820191906000526020600020905b81548152906001019060200180831161071157829003601f168201915b50505050509080600901805461074390611be9565b80601f016020809104026020016040519081016040528092919081815260200182805461076f90611be9565b80156107bc5780601f10610791576101008083540402835291602001916107bc565b820191906000526020600020905b81548152906001019060200180831161079f57829003601f168201915b505050505090508a565b6000600160009054906101000a900473ffffffffffffffffffffffffffffffffffffffff1673ffffffffffffffffffffffffffffffffffffffff163373ffffffffffffffffffffffffffffffffffffffff1614610858576040517f08c379a000000000000000000000000000000000000000000000000000000000815260040161084f90611c8c565b60405180910390fd5b600160009054906101000a900473ffffffffffffffffffffffffffffffffffffffff16905090565b606060005482106108c6576040517f08c379a00000000000000000000000000000000000000000000000000000000081526004016108bd90611b9a565b60405180910390fd5b6004600083815260200190815260200160002060040180546108e790611be9565b80601f016020809104026020016040519081016040528092919081815260200182805461091390611be9565b80156109605780601f1061093557610100808354040283529160200191610960565b820191906000526020600020905b81548152906001019060200180831161094357829003601f168201915b50505050509050919050565b6000808951116109b1576040517f08c379a00000000000000000000000000000000000000000000000000000000081526004016109a890611cf8565b60405180910390fd5b60008851116109f5576040517f08c379a00000000000000000000000000000000000000000000000000000000081526004016109ec90611d64565b60405180910390fd5b60008711610a38576040517f08c379a0000000000000000000000000000000000000000000000000000000008152600401610a2f90611df6565b60405180910390fd5b6000865111610a7c576040517f08c379a0000000000000000000000000000000000000000000000000000000008152600401610a7390611e62565b60405180910390fd5b6000855111610ac0576040517f08c379a0000000000000000000000000000000000000000000000000000000008152600401610ab790611ece565b60405180910390fd5b6000845111610b04576040517f08c379a0000000000000000000000000000000000000000000000000000000008152600401610afb90611f3a565b60405180910390fd5b6000835111610b48576040517f08c379a0000000000000000000000000000000000000000000000000000000008152600401610b3f90611f3a565b60405180910390fd5b6000825111610b8c576040517f08c379a0000000000000000000000000000000000000000000000000000000008152600401610b8390611f3a565b60405180910390fd5b60405180610140016040528060005481526020018a81526020018981526020018881526020018781526020018681526020018581526020018481526020018381526020016040518060400160405280600c81526020017f507265736572766174696f6e00000000000000000000000000000000000000008152508152506004600080548152602001908152602001600020600082015181600001556020820151816001019081610c3c9190612106565b506040820151816002019081610c529190612106565b50606082015181600301556080820151816004019081610c729190612106565b5060a0820151816005019081610c889190612106565b5060c0820151816006019081610c9e9190612106565b5060e0820151816007019081610cb49190612106565b50610100820151816008019081610ccb9190612106565b50610120820151816009019081610ce29190612106565b509050506003600460008054815260200190815260200160002090806001815401808255809150506001900390600052602060002090600a02016000909190919091506000820154816000015560018201816001019081610d4391906121ee565b5060028201816002019081610d5891906121ee565b506003820154816003015560048201816004019081610d7791906121ee565b5060058201816005019081610d8c91906121ee565b5060068201816006019081610da191906121ee565b5060078201816007019081610db691906121ee565b5060088201816008019081610dcb91906121ee565b5060098201816009019081610de091906121ee565b505050600080815480929190610df590612305565b91905055507f0f7cf3987d953efad0c3d7728f6b9ef09e8befd3e8202ffbb0f293b2f11762206000548a8a8a8a8a8a8a8a604051610e3b99989796959493929190612399565b60405180910390a16001905098975050505050505050565b600080831015610e98576040517f08c379a0000000000000000000000000000000000000000000000000000000008152600401610e8f906124b7565b60405180910390fd5b6000825111610edc576040517f08c379a0000000000000000000000000000000000000000000000000000000008152600401610ed390612523565b60405180910390fd5b6000548310610f20576040517f08c379a0000000000000000000000000000000000000000000000000000000008152600401610f1790611b9a565b60405180910390fd5b600060046000858152602001908152602001600020905082816009019081610f489190612106565b507fa2c59c6d12d289f1b1752b3d3d2f1869f8e74dde190de35addc82062cf6d1d728484604051610f7a929190612543565b60405180910390a1600191505092915050565b6004602052806000526040600020600091509050806000015490806001018054610fb690611be9565b80601f0160208091040260200160405190810160405280929190818152602001828054610fe290611be9565b801561102f5780601f106110045761010080835404028352916020019161102f565b820191906000526020600020905b81548152906001019060200180831161101257829003601f168201915b50505050509080600201805461104490611be9565b80601f016020809104026020016040519081016040528092919081815260200182805461107090611be9565b80156110bd5780601f10611092576101008083540402835291602001916110bd565b820191906000526020600020905b8154815290600101906020018083116110a057829003601f168201915b5050505050908060030154908060040180546110d890611be9565b80601f016020809104026020016040519081016040528092919081815260200182805461110490611be9565b80156111515780601f1061112657610100808354040283529160200191611151565b820191906000526020600020905b81548152906001019060200180831161113457829003601f168201915b50505050509080600501805461116690611be9565b80601f016020809104026020016040519081016040528092919081815260200182805461119290611be9565b80156111df5780601f106111b4576101008083540402835291602001916111df565b820191906000526020600020905b8154815290600101906020018083116111c257829003601f168201915b5050505050908060060180546111f490611be9565b80601f016020809104026020016040519081016040528092919081815260200182805461122090611be9565b801561126d5780601f106112425761010080835404028352916020019161126d565b820191906000526020600020905b81548152906001019060200180831161125057829003601f168201915b50505050509080600701805461128290611be9565b80601f01602080910402602001604051908101604052809291908181526020018280546112ae90611be9565b80156112fb5780601f106112d0576101008083540402835291602001916112fb565b820191906000526020600020905b8154815290600101906020018083116112de57829003601f168201915b50505050509080600801805461131090611be9565b80601f016020809104026020016040519081016040528092919081815260200182805461133c90611be9565b80156113895780601f1061135e57610100808354040283529160200191611389565b820191906000526020600020905b81548152906001019060200180831161136c57829003601f168201915b50505050509080600901805461139e90611be9565b80601f01602080910402602001604051908101604052809291908181526020018280546113ca90611be9565b80156114175780601f106113ec57610100808354040283529160200191611417565b820191906000526020600020905b8154815290600101906020018083116113fa57829003601f168201915b505050505090508a565b60606000548210611467576040517f08c379a000000000000000000000000000000000000000000000000000000000815260040161145e90611b9a565b60405180910390fd5b60046000838152602001908152602001600020600601805461148890611be9565b80601f01602080910402602001604051908101604052809291908181526020018280546114b490611be9565b80156115015780601f106114d657610100808354040283529160200191611501565b820191906000526020600020905b8154815290600101906020018083116114e457829003601f168201915b50505050509050919050565b606060006002805461151e90611be9565b80601f016020809104026020016040519081016040528092919081815260200182805461154a90611be9565b80156115975780601f1061156c57610100808354040283529160200191611597565b820191906000526020600020905b81548152906001019060200180831161157a57829003601f168201915b505050505090508091505090565b6000604051905090565b600080fd5b600080fd5b6000819050919050565b6115cc816115b9565b81146115d757600080fd5b50565b6000813590506115e9816115c3565b92915050565b600060208284031215611605576116046115af565b5b6000611613848285016115da565b91505092915050565b600081519050919050565b600082825260208201905092915050565b60005b8381101561165657808201518184015260208101905061163b565b60008484015250505050565b6000601f19601f8301169050919050565b600061167e8261161c565b6116888185611627565b9350611698818560208601611638565b6116a181611662565b840191505092915050565b600060208201905081810360008301526116c68184611673565b905092915050565b6116d7816115b9565b82525050565b6000610140820190506116f3600083018d6116ce565b8181036020830152611705818c611673565b90508181036040830152611719818b611673565b9050611728606083018a6116ce565b818103608083015261173a8189611673565b905081810360a083015261174e8188611673565b905081810360c08301526117628187611673565b905081810360e08301526117768186611673565b905081810361010083015261178b8185611673565b90508181036101208301526117a08184611673565b90509b9a5050505050505050505050565b600073ffffffffffffffffffffffffffffffffffffffff82169050919050565b60006117dc826117b1565b9050919050565b6117ec816117d1565b82525050565b600060208201905061180760008301846117e3565b92915050565b600080fd5b600080fd5b7f4e487b7100000000000000000000000000000000000000000000000000000000600052604160045260246000fd5b61184f82611662565b810181811067ffffffffffffffff8211171561186e5761186d611817565b5b80604052505050565b60006118816115a5565b905061188d8282611846565b919050565b600067ffffffffffffffff8211156118ad576118ac611817565b5b6118b682611662565b9050602081019050919050565b82818337600083830152505050565b60006118e56118e084611892565b611877565b90508281526020810184848401111561190157611900611812565b5b61190c8482856118c3565b509392505050565b600082601f8301126119295761192861180d565b5b81356119398482602086016118d2565b91505092915050565b600080600080600080600080610100898b031215611963576119626115af565b5b600089013567ffffffffffffffff811115611981576119806115b4565b5b61198d8b828c01611914565b985050602089013567ffffffffffffffff8111156119ae576119ad6115b4565b5b6119ba8b828c01611914565b97505060406119cb8b828c016115da565b965050606089013567ffffffffffffffff8111156119ec576119eb6115b4565b5b6119f88b828c01611914565b955050608089013567ffffffffffffffff811115611a1957611a186115b4565b5b611a258b828c01611914565b94505060a089013567ffffffffffffffff811115611a4657611a456115b4565b5b611a528b828c01611914565b93505060c089013567ffffffffffffffff811115611a7357611a726115b4565b5b611a7f8b828c01611914565b92505060e089013567ffffffffffffffff811115611aa057611a9f6115b4565b5b611aac8b828c01611914565b9150509295985092959890939650565b60008115159050919050565b611ad181611abc565b82525050565b6000602082019050611aec6000830184611ac8565b92915050565b60008060408385031215611b0957611b086115af565b5b6000611b17858286016115da565b925050602083013567ffffffffffffffff811115611b3857611b376115b4565b5b611b4485828601611914565b9150509250929050565b7f4e6f207265636f726420666f756e6420666f722074686520676976656e204944600082015250565b6000611b84602083611627565b9150611b8f82611b4e565b602082019050919050565b60006020820190508181036000830152611bb381611b77565b9050919050565b7f4e487b7100000000000000000000000000000000000000000000000000000000600052602260045260246000fd5b60006002820490506001821680611c0157607f821691505b602082108103611c1457611c13611bba565b5b50919050565b7f4f6e6c7920746865206f776e65722063616e207265636f72642064696769746160008201527f6c2065766964656e636500000000000000000000000000000000000000000000602082015250565b6000611c76602a83611627565b9150611c8182611c1a565b604082019050919050565b60006020820190508181036000830152611ca581611c69565b9050919050565b7f54797065557365722063616e6e6f7420626520656d7074790000000000000000600082015250565b6000611ce2601883611627565b9150611ced82611cac565b602082019050919050565b60006020820190508181036000830152611d1181611cd5565b9050919050565b7f547970654964652063616e6e6f7420626520656d707479000000000000000000600082015250565b6000611d4e601783611627565b9150611d5982611d18565b602082019050919050565b60006020820190508181036000830152611d7d81611d41565b9050919050565b7f4964656e74696669636174696f6e206d7573742062652067726561746572207460008201527f68616e2030000000000000000000000000000000000000000000000000000000602082015250565b6000611de0602583611627565b9150611deb82611d84565b604082019050919050565b60006020820190508181036000830152611e0f81611dd3565b9050919050565b7f4e616d65732063616e6e6f7420626520656d7074790000000000000000000000600082015250565b6000611e4c601583611627565b9150611e5782611e16565b602082019050919050565b60006020820190508181036000830152611e7b81611e3f565b9050919050565b7f4c6173744e616d65732063616e6e6f7420626520656d70747900000000000000600082015250565b6000611eb8601983611627565b9150611ec382611e82565b602082019050919050565b60006020820190508181036000830152611ee781611eab565b9050919050565b7f44617465526571756573742063616e6e6f7420626520656d7074790000000000600082015250565b6000611f24601b83611627565b9150611f2f82611eee565b602082019050919050565b60006020820190508181036000830152611f5381611f17565b9050919050565b60008190508160005260206000209050919050565b60006020601f8301049050919050565b600082821b905092915050565b600060088302611fbc7fffffffffffffffffffffffffffffffffffffffffffffffffffffffffffffffff82611f7f565b611fc68683611f7f565b95508019841693508086168417925050509392505050565b6000819050919050565b6000612003611ffe611ff9846115b9565b611fde565b6115b9565b9050919050565b6000819050919050565b61201d83611fe8565b6120316120298261200a565b848454611f8c565b825550505050565b600090565b612046612039565b612051818484612014565b505050565b5b818110156120755761206a60008261203e565b600181019050612057565b5050565b601f8211156120ba5761208b81611f5a565b61209484611f6f565b810160208510156120a3578190505b6120b76120af85611f6f565b830182612056565b50505b505050565b600082821c905092915050565b60006120dd600019846008026120bf565b1980831691505092915050565b60006120f683836120cc565b9150826002028217905092915050565b61210f8261161c565b67ffffffffffffffff81111561212857612127611817565b5b6121328254611be9565b61213d828285612079565b600060209050601f831160018114612170576000841561215e578287015190505b61216885826120ea565b8655506121d0565b601f19841661217e86611f5a565b60005b828110156121a657848901518255600182019150602085019450602081019050612181565b868310156121c357848901516121bf601f8916826120cc565b8355505b6001600288020188555050505b505050505050565b6000815490506121e781611be9565b9050919050565b8181036121fc5750506122d4565b612205826121d8565b67ffffffffffffffff81111561221e5761221d611817565b5b6122288254611be9565b612233828285612079565b6000601f8311600181146122625760008415612250578287015490505b61225a85826120ea565b8655506122cd565b601f19841661227087611f5a565b965061227b86611f5a565b60005b828110156122a35784890154825560018201915060018501945060208101905061227e565b868310156122c057848901546122bc601f8916826120cc565b8355505b6001600288020188555050505b5050505050505b565b7f4e487b7100000000000000000000000000000000000000000000000000000000600052601160045260246000fd5b6000612310826115b9565b91507fffffffffffffffffffffffffffffffffffffffffffffffffffffffffffffffff8203612342576123416122d6565b5b600182019050919050565b7f507265736572766174696f6e0000000000000000000000000000000000000000600082015250565b6000612383600c83611627565b915061238e8261234d565b602082019050919050565b6000610140820190506123af600083018c6116ce565b81810360208301526123c1818b611673565b905081810360408301526123d5818a611673565b90506123e460608301896116ce565b81810360808301526123f68188611673565b905081810360a083015261240a8187611673565b905081810360c083015261241e8186611673565b905081810360e08301526124328185611673565b90508181036101008301526124478184611673565b905081810361012083015261245b81612376565b90509a9950505050505050505050565b7f49642063616e6e6f7420626520656d7074790000000000000000000000000000600082015250565b60006124a1601283611627565b91506124ac8261246b565b602082019050919050565b600060208201905081810360008301526124d081612494565b9050919050565b7f50686173652063616e6e6f7420626520656d7074790000000000000000000000600082015250565b600061250d601583611627565b9150612518826124d7565b602082019050919050565b6000602082019050818103600083015261253c81612500565b9050919050565b600060408201905061255860008301856116ce565b818103602083015261256a8184611673565b9050939250505056fea2646970667358221220356d724fff5e630b9b35b8a7d21159cceae44c79c54ee2e033b9ba08239a6aa464736f6c63430008180033436f6e747261637420666f72207265636f7264696e67206f66206469676974616c2065766964656e636520616e6420766572696669636174696f6e",
  "linkReferences": {},
  "deployedLinkReferences": {}
}