{
  "_format": "hh-sol-artifact-1",
  "contractName": "Prueba5",
  "sourceName": "contracts/Prueba5.sol",
  "abi": [
    {
      "inputs": [],
      "stateMutability": "nonpayable",
      "type": "constructor"
    },
    {
      "anonymous": false,
      "inputs": [
        {
          "indexed": true,
          "internalType": "uint256",
          "name": "id",
          "type": "uint256"
        },
        {
          "indexed": false,
          "internalType": "uint256",
          "name": "caseNumber",
          "type": "uint256"
        },
        {
          "indexed": false,
          "internalType": "string",
          "name": "location",
          "type": "string"
        },
        {
          "indexed": false,
          "internalType": "string",
          "name": "device",
          "type": "string"
        },
        {
          "indexed": false,
          "internalType": "string",
          "name": "evidenceType",
          "type": "string"
        },
        {
          "indexed": false,
          "internalType": "string",
          "name": "filePath",
          "type": "string"
        },
        {
          "indexed": false,
          "internalType": "string",
          "name": "hashEvidence",
          "type": "string"
        },
        {
          "indexed": false,
          "internalType": "string",
          "name": "registrationDate",
          "type": "string"
        },
        {
          "indexed": false,
          "internalType": "string",
          "name": "methodAdquisition",
          "type": "string"
        },
        {
          "indexed": false,
          "internalType": "string",
          "name": "noteEvidence",
          "type": "string"
        }
      ],
      "name": "createdDataEvidence",
      "type": "event"
    },
    {
      "anonymous": false,
      "inputs": [
        {
          "indexed": true,
          "internalType": "uint256",
          "name": "id",
          "type": "uint256"
        },
        {
          "indexed": false,
          "internalType": "uint256",
          "name": "userId",
          "type": "uint256"
        },
        {
          "indexed": false,
          "internalType": "string",
          "name": "names",
          "type": "string"
        },
        {
          "indexed": false,
          "internalType": "string",
          "name": "lastNames",
          "type": "string"
        },
        {
          "indexed": false,
          "internalType": "string",
          "name": "userType",
          "type": "string"
        },
        {
          "indexed": false,
          "internalType": "string",
          "name": "phase",
          "type": "string"
        },
        {
          "indexed": false,
          "internalType": "string",
          "name": "state",
          "type": "string"
        },
        {
          "indexed": false,
          "internalType": "string",
          "name": "stateUpdateDate",
          "type": "string"
        },
        {
          "indexed": false,
          "internalType": "string",
          "name": "technicalReport",
          "type": "string"
        },
        {
          "indexed": false,
          "internalType": "string",
          "name": "executiveReport",
          "type": "string"
        }
      ],
      "name": "createdDetailsEvidence",
      "type": "event"
    },
    {
      "anonymous": false,
      "inputs": [
        {
          "indexed": true,
          "internalType": "uint256",
          "name": "id",
          "type": "uint256"
        },
        {
          "indexed": false,
          "internalType": "string",
          "name": "phase",
          "type": "string"
        },
        {
          "indexed": false,
          "internalType": "string",
          "name": "state",
          "type": "string"
        },
        {
          "indexed": false,
          "internalType": "string",
          "name": "stateUpdateDate",
          "type": "string"
        }
      ],
      "name": "eventUpdatePhase",
      "type": "event"
    },
    {
      "anonymous": false,
      "inputs": [
        {
          "indexed": true,
          "internalType": "uint256",
          "name": "id",
          "type": "uint256"
        },
        {
          "indexed": false,
          "internalType": "string",
          "name": "phase",
          "type": "string"
        },
        {
          "indexed": false,
          "internalType": "string",
          "name": "state",
          "type": "string"
        },
        {
          "indexed": false,
          "internalType": "string",
          "name": "stateUpdateDate",
          "type": "string"
        },
        {
          "indexed": false,
          "internalType": "string",
          "name": "technicalReport",
          "type": "string"
        },
        {
          "indexed": false,
          "internalType": "string",
          "name": "executiveReport",
          "type": "string"
        }
      ],
      "name": "eventUpdatePresentationPhase",
      "type": "event"
    },
    {
      "inputs": [
        {
          "internalType": "uint256",
          "name": "",
          "type": "uint256"
        }
      ],
      "name": "arrayEvidence",
      "outputs": [
        {
          "components": [
            {
              "internalType": "uint256",
              "name": "id",
              "type": "uint256"
            },
            {
              "internalType": "uint256",
              "name": "caseNumber",
              "type": "uint256"
            },
            {
              "internalType": "string",
              "name": "location",
              "type": "string"
            },
            {
              "internalType": "string",
              "name": "device",
              "type": "string"
            },
            {
              "internalType": "string",
              "name": "evidenceType",
              "type": "string"
            },
            {
              "internalType": "string",
              "name": "filePath",
              "type": "string"
            },
            {
              "internalType": "string",
              "name": "hashEvidence",
              "type": "string"
            },
            {
              "internalType": "string",
              "name": "registrationDate",
              "type": "string"
            }
          ],
          "internalType": "struct DataEvidence",
          "name": "dataEvidence",
          "type": "tuple"
        },
        {
          "components": [
            {
              "internalType": "string",
              "name": "methodAdquisition",
              "type": "string"
            },
            {
              "internalType": "string",
              "name": "noteEvidence",
              "type": "string"
            },
            {
              "internalType": "uint256",
              "name": "userId",
              "type": "uint256"
            },
            {
              "internalType": "string",
              "name": "names",
              "type": "string"
            },
            {
              "internalType": "string",
              "name": "lastNames",
              "type": "string"
            },
            {
              "internalType": "string",
              "name": "userType",
              "type": "string"
            }
          ],
          "internalType": "struct DetailsEvidence",
          "name": "detailsEvidence",
          "type": "tuple"
        },
        {
          "components": [
            {
              "internalType": "string",
              "name": "phase",
              "type": "string"
            },
            {
              "internalType": "string",
              "name": "state",
              "type": "string"
            },
            {
              "internalType": "string",
              "name": "stateUpdateDate",
              "type": "string"
            },
            {
              "internalType": "string",
              "name": "technicalReport",
              "type": "string"
            },
            {
              "internalType": "string",
              "name": "executiveReport",
              "type": "string"
            }
          ],
          "internalType": "struct PhaseEvidence",
          "name": "phaseEvidence",
          "type": "tuple"
        }
      ],
      "stateMutability": "view",
      "type": "function"
    },
    {
      "inputs": [
        {
          "components": [
            {
              "internalType": "uint256",
              "name": "id",
              "type": "uint256"
            },
            {
              "internalType": "uint256",
              "name": "caseNumber",
              "type": "uint256"
            },
            {
              "internalType": "string",
              "name": "location",
              "type": "string"
            },
            {
              "internalType": "string",
              "name": "device",
              "type": "string"
            },
            {
              "internalType": "string",
              "name": "evidenceType",
              "type": "string"
            },
            {
              "internalType": "string",
              "name": "filePath",
              "type": "string"
            },
            {
              "internalType": "string",
              "name": "hashEvidence",
              "type": "string"
            },
            {
              "internalType": "string",
              "name": "registrationDate",
              "type": "string"
            }
          ],
          "internalType": "struct DataEvidence",
          "name": "_dataEvidence",
          "type": "tuple"
        },
        {
          "components": [
            {
              "internalType": "string",
              "name": "methodAdquisition",
              "type": "string"
            },
            {
              "internalType": "string",
              "name": "noteEvidence",
              "type": "string"
            },
            {
              "internalType": "uint256",
              "name": "userId",
              "type": "uint256"
            },
            {
              "internalType": "string",
              "name": "names",
              "type": "string"
            },
            {
              "internalType": "string",
              "name": "lastNames",
              "type": "string"
            },
            {
              "internalType": "string",
              "name": "userType",
              "type": "string"
            }
          ],
          "internalType": "struct DetailsEvidence",
          "name": "_detailsEvidence",
          "type": "tuple"
        },
        {
          "components": [
            {
              "internalType": "string",
              "name": "phase",
              "type": "string"
            },
            {
              "internalType": "string",
              "name": "state",
              "type": "string"
            },
            {
              "internalType": "string",
              "name": "stateUpdateDate",
              "type": "string"
            },
            {
              "internalType": "string",
              "name": "technicalReport",
              "type": "string"
            },
            {
              "internalType": "string",
              "name": "executiveReport",
              "type": "string"
            }
          ],
          "internalType": "struct PhaseEvidence",
          "name": "_phaseEvidence",
          "type": "tuple"
        }
      ],
      "name": "createEvidence",
      "outputs": [
        {
          "internalType": "bool",
          "name": "",
          "type": "bool"
        }
      ],
      "stateMutability": "nonpayable",
      "type": "function"
    },
    {
      "inputs": [],
      "name": "getAdrress",
      "outputs": [
        {
          "internalType": "address",
          "name": "",
          "type": "address"
        }
      ],
      "stateMutability": "view",
      "type": "function"
    },
    {
      "inputs": [
        {
          "internalType": "uint256",
          "name": "_id",
          "type": "uint256"
        }
      ],
      "name": "getCaseNumber",
      "outputs": [
        {
          "internalType": "uint256",
          "name": "",
          "type": "uint256"
        }
      ],
      "stateMutability": "view",
      "type": "function"
    },
    {
      "inputs": [],
      "name": "getEvidenciaAll",
      "outputs": [
        {
          "components": [
            {
              "components": [
                {
                  "internalType": "uint256",
                  "name": "id",
                  "type": "uint256"
                },
                {
                  "internalType": "uint256",
                  "name": "caseNumber",
                  "type": "uint256"
                },
                {
                  "internalType": "string",
                  "name": "location",
                  "type": "string"
                },
                {
                  "internalType": "string",
                  "name": "device",
                  "type": "string"
                },
                {
                  "internalType": "string",
                  "name": "evidenceType",
                  "type": "string"
                },
                {
                  "internalType": "string",
                  "name": "filePath",
                  "type": "string"
                },
                {
                  "internalType": "string",
                  "name": "hashEvidence",
                  "type": "string"
                },
                {
                  "internalType": "string",
                  "name": "registrationDate",
                  "type": "string"
                }
              ],
              "internalType": "struct DataEvidence",
              "name": "dataEvidence",
              "type": "tuple"
            },
            {
              "components": [
                {
                  "internalType": "string",
                  "name": "methodAdquisition",
                  "type": "string"
                },
                {
                  "internalType": "string",
                  "name": "noteEvidence",
                  "type": "string"
                },
                {
                  "internalType": "uint256",
                  "name": "userId",
                  "type": "uint256"
                },
                {
                  "internalType": "string",
                  "name": "names",
                  "type": "string"
                },
                {
                  "internalType": "string",
                  "name": "lastNames",
                  "type": "string"
                },
                {
                  "internalType": "string",
                  "name": "userType",
                  "type": "string"
                }
              ],
              "internalType": "struct DetailsEvidence",
              "name": "detailsEvidence",
              "type": "tuple"
            },
            {
              "components": [
                {
                  "internalType": "string",
                  "name": "phase",
                  "type": "string"
                },
                {
                  "internalType": "string",
                  "name": "state",
                  "type": "string"
                },
                {
                  "internalType": "string",
                  "name": "stateUpdateDate",
                  "type": "string"
                },
                {
                  "internalType": "string",
                  "name": "technicalReport",
                  "type": "string"
                },
                {
                  "internalType": "string",
                  "name": "executiveReport",
                  "type": "string"
                }
              ],
              "internalType": "struct PhaseEvidence",
              "name": "phaseEvidence",
              "type": "tuple"
            }
          ],
          "internalType": "struct FullEvidence[]",
          "name": "",
          "type": "tuple[]"
        }
      ],
      "stateMutability": "view",
      "type": "function"
    },
    {
      "inputs": [
        {
          "internalType": "uint256",
          "name": "_id",
          "type": "uint256"
        }
      ],
      "name": "getFilePath",
      "outputs": [
        {
          "internalType": "string",
          "name": "",
          "type": "string"
        }
      ],
      "stateMutability": "view",
      "type": "function"
    },
    {
      "inputs": [
        {
          "internalType": "uint256",
          "name": "_id",
          "type": "uint256"
        }
      ],
      "name": "getHashEvidence",
      "outputs": [
        {
          "internalType": "string",
          "name": "",
          "type": "string"
        }
      ],
      "stateMutability": "view",
      "type": "function"
    },
    {
      "inputs": [],
      "name": "getNameContract",
      "outputs": [
        {
          "internalType": "string",
          "name": "",
          "type": "string"
        }
      ],
      "stateMutability": "view",
      "type": "function"
    },
    {
      "inputs": [
        {
          "internalType": "uint256",
          "name": "_id",
          "type": "uint256"
        }
      ],
      "name": "getPhase",
      "outputs": [
        {
          "internalType": "string",
          "name": "",
          "type": "string"
        }
      ],
      "stateMutability": "view",
      "type": "function"
    },
    {
      "inputs": [],
      "name": "getRegisterId",
      "outputs": [
        {
          "internalType": "uint256",
          "name": "",
          "type": "uint256"
        }
      ],
      "stateMutability": "view",
      "type": "function"
    },
    {
      "inputs": [
        {
          "internalType": "uint256",
          "name": "_id",
          "type": "uint256"
        }
      ],
      "name": "getRegistrationDate",
      "outputs": [
        {
          "internalType": "string",
          "name": "",
          "type": "string"
        }
      ],
      "stateMutability": "view",
      "type": "function"
    },
    {
      "inputs": [
        {
          "internalType": "uint256",
          "name": "_id",
          "type": "uint256"
        }
      ],
      "name": "getState",
      "outputs": [
        {
          "internalType": "string",
          "name": "",
          "type": "string"
        }
      ],
      "stateMutability": "view",
      "type": "function"
    },
    {
      "inputs": [
        {
          "internalType": "uint256",
          "name": "_id",
          "type": "uint256"
        }
      ],
      "name": "getStateUpdateDate",
      "outputs": [
        {
          "internalType": "string",
          "name": "",
          "type": "string"
        }
      ],
      "stateMutability": "view",
      "type": "function"
    },
    {
      "inputs": [
        {
          "internalType": "uint256",
          "name": "_id",
          "type": "uint256"
        }
      ],
      "name": "getUserId",
      "outputs": [
        {
          "internalType": "uint256",
          "name": "",
          "type": "uint256"
        }
      ],
      "stateMutability": "view",
      "type": "function"
    },
    {
      "inputs": [
        {
          "internalType": "uint256",
          "name": "",
          "type": "uint256"
        }
      ],
      "name": "recordsEvidence",
      "outputs": [
        {
          "components": [
            {
              "internalType": "uint256",
              "name": "id",
              "type": "uint256"
            },
            {
              "internalType": "uint256",
              "name": "caseNumber",
              "type": "uint256"
            },
            {
              "internalType": "string",
              "name": "location",
              "type": "string"
            },
            {
              "internalType": "string",
              "name": "device",
              "type": "string"
            },
            {
              "internalType": "string",
              "name": "evidenceType",
              "type": "string"
            },
            {
              "internalType": "string",
              "name": "filePath",
              "type": "string"
            },
            {
              "internalType": "string",
              "name": "hashEvidence",
              "type": "string"
            },
            {
              "internalType": "string",
              "name": "registrationDate",
              "type": "string"
            }
          ],
          "internalType": "struct DataEvidence",
          "name": "dataEvidence",
          "type": "tuple"
        },
        {
          "components": [
            {
              "internalType": "string",
              "name": "methodAdquisition",
              "type": "string"
            },
            {
              "internalType": "string",
              "name": "noteEvidence",
              "type": "string"
            },
            {
              "internalType": "uint256",
              "name": "userId",
              "type": "uint256"
            },
            {
              "internalType": "string",
              "name": "names",
              "type": "string"
            },
            {
              "internalType": "string",
              "name": "lastNames",
              "type": "string"
            },
            {
              "internalType": "string",
              "name": "userType",
              "type": "string"
            }
          ],
          "internalType": "struct DetailsEvidence",
          "name": "detailsEvidence",
          "type": "tuple"
        },
        {
          "components": [
            {
              "internalType": "string",
              "name": "phase",
              "type": "string"
            },
            {
              "internalType": "string",
              "name": "state",
              "type": "string"
            },
            {
              "internalType": "string",
              "name": "stateUpdateDate",
              "type": "string"
            },
            {
              "internalType": "string",
              "name": "technicalReport",
              "type": "string"
            },
            {
              "internalType": "string",
              "name": "executiveReport",
              "type": "string"
            }
          ],
          "internalType": "struct PhaseEvidence",
          "name": "phaseEvidence",
          "type": "tuple"
        }
      ],
      "stateMutability": "view",
      "type": "function"
    },
    {
      "inputs": [
        {
          "internalType": "uint256",
          "name": "_id",
          "type": "uint256"
        },
        {
          "internalType": "string",
          "name": "_phase",
          "type": "string"
        },
        {
          "internalType": "string",
          "name": "_state",
          "type": "string"
        },
        {
          "internalType": "string",
          "name": "_stateUpdateDate",
          "type": "string"
        }
      ],
      "name": "updatePhase",
      "outputs": [
        {
          "internalType": "bool",
          "name": "",
          "type": "bool"
        }
      ],
      "stateMutability": "nonpayable",
      "type": "function"
    },
    {
      "inputs": [
        {
          "internalType": "uint256",
          "name": "_id",
          "type": "uint256"
        },
        {
          "internalType": "string",
          "name": "_phase",
          "type": "string"
        },
        {
          "internalType": "string",
          "name": "_state",
          "type": "string"
        },
        {
          "internalType": "string",
          "name": "_stateUpdateDate",
          "type": "string"
        },
        {
          "internalType": "string",
          "name": "_technicalReport",
          "type": "string"
        },
        {
          "internalType": "string",
          "name": "_executiveReport",
          "type": "string"
        }
      ],
      "name": "updatePresentationPhase",
      "outputs": [
        {
          "internalType": "bool",
          "name": "",
          "type": "bool"
        }
      ],
      "stateMutability": "nonpayable",
      "type": "function"
    }
  ],
  "bytecode": "0x60806040523480156200001157600080fd5b506040518060800160405280604f8152602001620053c4604f9139600290816200003c919062000305565b5033600160006101000a81548173ffffffffffffffffffffffffffffffffffffffff021916908373ffffffffffffffffffffffffffffffffffffffff16021790555060008081905550620003ec565b600081519050919050565b7f4e487b7100000000000000000000000000000000000000000000000000000000600052604160045260246000fd5b7f4e487b7100000000000000000000000000000000000000000000000000000000600052602260045260246000fd5b600060028204905060018216806200010d57607f821691505b602082108103620001235762000122620000c5565b5b50919050565b60008190508160005260206000209050919050565b60006020601f8301049050919050565b600082821b905092915050565b6000600883026200018d7fffffffffffffffffffffffffffffffffffffffffffffffffffffffffffffffff826200014e565b6200019986836200014e565b95508019841693508086168417925050509392505050565b6000819050919050565b6000819050919050565b6000620001e6620001e0620001da84620001b1565b620001bb565b620001b1565b9050919050565b6000819050919050565b6200020283620001c5565b6200021a6200021182620001ed565b8484546200015b565b825550505050565b600090565b6200023162000222565b6200023e818484620001f7565b505050565b5b8181101562000266576200025a60008262000227565b60018101905062000244565b5050565b601f821115620002b5576200027f8162000129565b6200028a846200013e565b810160208510156200029a578190505b620002b2620002a9856200013e565b83018262000243565b50505b505050565b600082821c905092915050565b6000620002da60001984600802620002ba565b1980831691505092915050565b6000620002f58383620002c7565b9150826002028217905092915050565b62000310826200008b565b67ffffffffffffffff8111156200032c576200032b62000096565b5b620003388254620000f4565b620003458282856200026a565b600060209050601f8311600181146200037d576000841562000368578287015190505b620003748582620002e7565b865550620003e4565b601f1984166200038d8662000129565b60005b82811015620003b75784890151825560018201915060208501945060208101905062000390565b86831015620003d75784890151620003d3601f891682620002c7565b8355505b6001600288020188555050505b505050505050565b614fc880620003fc6000396000f3fe608060405234801561001057600080fd5b506004361061010b5760003560e01c80638c6fb849116100a2578063d13a12da11610071578063d13a12da14610330578063e55300461461034e578063ebc981171461037e578063f68d6330146103ae578063f732a42b146103cc5761010b565b80638c6fb849146102805780639acf2933146102b05780639f095648146102ce578063cb782a66146102fe5761010b565b806344c9af28116100de57806344c9af28146101c0578063486436bd146101f057806351747ce81461022057806375a999ad146102505761010b565b8063031367831461011057806312194e301461014057806316ef376b14610172578063188ff6f1146101a2575b600080fd5b61012a60048036038101906101259190613769565b6103fc565b6040516101379190613826565b60405180910390f35b61015a60048036038101906101559190613769565b6104f8565b60405161016993929190613aab565b60405180910390f35b61018c60048036038101906101879190613769565b610e8f565b6040516101999190613826565b60405180910390f35b6101aa610f8b565b6040516101b79190613b38565b60405180910390f35b6101da60048036038101906101d59190613769565b611045565b6040516101e79190613826565b60405180910390f35b61020a60048036038101906102059190613769565b611141565b6040516102179190613826565b60405180910390f35b61023a60048036038101906102359190613769565b61123d565b6040516102479190613826565b60405180910390f35b61026a60048036038101906102659190613769565b611339565b6040516102779190613b62565b60405180910390f35b61029a60048036038101906102959190614072565b6113ac565b6040516102a79190614134565b60405180910390f35b6102b8611a39565b6040516102c59190613b62565b60405180910390f35b6102e860048036038101906102e3919061414f565b611a42565b6040516102f59190614134565b60405180910390f35b61031860048036038101906103139190613769565b611da4565b60405161032793929190613aab565b60405180910390f35b61033861272b565b6040516103459190614534565b60405180910390f35b61036860048036038101906103639190613769565b613105565b6040516103759190613826565b60405180910390f35b61039860048036038101906103939190613769565b613201565b6040516103a59190613b62565b60405180910390f35b6103b6613273565b6040516103c39190613826565b60405180910390f35b6103e660048036038101906103e19190614556565b613305565b6040516103f39190614134565b60405180910390f35b606060008210158015610410575060005482105b61044f576040517f08c379a0000000000000000000000000000000000000000000000000000000008152600401610446906146bb565b60405180910390fd5b6003600083815260200190815260200160002060000160050180546104739061470a565b80601f016020809104026020016040519081016040528092919081815260200182805461049f9061470a565b80156104ec5780601f106104c1576101008083540402835291602001916104ec565b820191906000526020600020905b8154815290600101906020018083116104cf57829003601f168201915b50505050509050919050565b6004818154811061050857600080fd5b9060005260206000209060130201600091509050806000016040518061010001604052908160008201548152602001600182015481526020016002820180546105509061470a565b80601f016020809104026020016040519081016040528092919081815260200182805461057c9061470a565b80156105c95780601f1061059e576101008083540402835291602001916105c9565b820191906000526020600020905b8154815290600101906020018083116105ac57829003601f168201915b505050505081526020016003820180546105e29061470a565b80601f016020809104026020016040519081016040528092919081815260200182805461060e9061470a565b801561065b5780601f106106305761010080835404028352916020019161065b565b820191906000526020600020905b81548152906001019060200180831161063e57829003601f168201915b505050505081526020016004820180546106749061470a565b80601f01602080910402602001604051908101604052809291908181526020018280546106a09061470a565b80156106ed5780601f106106c2576101008083540402835291602001916106ed565b820191906000526020600020905b8154815290600101906020018083116106d057829003601f168201915b505050505081526020016005820180546107069061470a565b80601f01602080910402602001604051908101604052809291908181526020018280546107329061470a565b801561077f5780601f106107545761010080835404028352916020019161077f565b820191906000526020600020905b81548152906001019060200180831161076257829003601f168201915b505050505081526020016006820180546107989061470a565b80601f01602080910402602001604051908101604052809291908181526020018280546107c49061470a565b80156108115780601f106107e657610100808354040283529160200191610811565b820191906000526020600020905b8154815290600101906020018083116107f457829003601f168201915b5050505050815260200160078201805461082a9061470a565b80601f01602080910402602001604051908101604052809291908181526020018280546108569061470a565b80156108a35780601f10610878576101008083540402835291602001916108a3565b820191906000526020600020905b81548152906001019060200180831161088657829003601f168201915b50505050508152505090806008016040518060c00160405290816000820180546108cc9061470a565b80601f01602080910402602001604051908101604052809291908181526020018280546108f89061470a565b80156109455780601f1061091a57610100808354040283529160200191610945565b820191906000526020600020905b81548152906001019060200180831161092857829003601f168201915b5050505050815260200160018201805461095e9061470a565b80601f016020809104026020016040519081016040528092919081815260200182805461098a9061470a565b80156109d75780601f106109ac576101008083540402835291602001916109d7565b820191906000526020600020905b8154815290600101906020018083116109ba57829003601f168201915b50505050508152602001600282015481526020016003820180546109fa9061470a565b80601f0160208091040260200160405190810160405280929190818152602001828054610a269061470a565b8015610a735780601f10610a4857610100808354040283529160200191610a73565b820191906000526020600020905b815481529060010190602001808311610a5657829003601f168201915b50505050508152602001600482018054610a8c9061470a565b80601f0160208091040260200160405190810160405280929190818152602001828054610ab89061470a565b8015610b055780601f10610ada57610100808354040283529160200191610b05565b820191906000526020600020905b815481529060010190602001808311610ae857829003601f168201915b50505050508152602001600582018054610b1e9061470a565b80601f0160208091040260200160405190810160405280929190818152602001828054610b4a9061470a565b8015610b975780601f10610b6c57610100808354040283529160200191610b97565b820191906000526020600020905b815481529060010190602001808311610b7a57829003601f168201915b5050505050815250509080600e016040518060a0016040529081600082018054610bc09061470a565b80601f0160208091040260200160405190810160405280929190818152602001828054610bec9061470a565b8015610c395780601f10610c0e57610100808354040283529160200191610c39565b820191906000526020600020905b815481529060010190602001808311610c1c57829003601f168201915b50505050508152602001600182018054610c529061470a565b80601f0160208091040260200160405190810160405280929190818152602001828054610c7e9061470a565b8015610ccb5780601f10610ca057610100808354040283529160200191610ccb565b820191906000526020600020905b815481529060010190602001808311610cae57829003601f168201915b50505050508152602001600282018054610ce49061470a565b80601f0160208091040260200160405190810160405280929190818152602001828054610d109061470a565b8015610d5d5780601f10610d3257610100808354040283529160200191610d5d565b820191906000526020600020905b815481529060010190602001808311610d4057829003601f168201915b50505050508152602001600382018054610d769061470a565b80601f0160208091040260200160405190810160405280929190818152602001828054610da29061470a565b8015610def5780601f10610dc457610100808354040283529160200191610def565b820191906000526020600020905b815481529060010190602001808311610dd257829003601f168201915b50505050508152602001600482018054610e089061470a565b80601f0160208091040260200160405190810160405280929190818152602001828054610e349061470a565b8015610e815780601f10610e5657610100808354040283529160200191610e81565b820191906000526020600020905b815481529060010190602001808311610e6457829003601f168201915b505050505081525050905083565b606060008210158015610ea3575060005482105b610ee2576040517f08c379a0000000000000000000000000000000000000000000000000000000008152600401610ed9906146bb565b60405180910390fd5b60036000838152602001908152602001600020600e016000018054610f069061470a565b80601f0160208091040260200160405190810160405280929190818152602001828054610f329061470a565b8015610f7f5780601f10610f5457610100808354040283529160200191610f7f565b820191906000526020600020905b815481529060010190602001808311610f6257829003601f168201915b50505050509050919050565b6000600160009054906101000a900473ffffffffffffffffffffffffffffffffffffffff1673ffffffffffffffffffffffffffffffffffffffff163373ffffffffffffffffffffffffffffffffffffffff161461101d576040517f08c379a0000000000000000000000000000000000000000000000000000000008152600401611014906147ad565b60405180910390fd5b600160009054906101000a900473ffffffffffffffffffffffffffffffffffffffff16905090565b606060008210158015611059575060005482105b611098576040517f08c379a000000000000000000000000000000000000000000000000000000000815260040161108f906146bb565b60405180910390fd5b60036000838152602001908152602001600020600e0160010180546110bc9061470a565b80601f01602080910402602001604051908101604052809291908181526020018280546110e89061470a565b80156111355780601f1061110a57610100808354040283529160200191611135565b820191906000526020600020905b81548152906001019060200180831161111857829003601f168201915b50505050509050919050565b606060008210158015611155575060005482105b611194576040517f08c379a000000000000000000000000000000000000000000000000000000000815260040161118b906146bb565b60405180910390fd5b6003600083815260200190815260200160002060000160060180546111b89061470a565b80601f01602080910402602001604051908101604052809291908181526020018280546111e49061470a565b80156112315780601f1061120657610100808354040283529160200191611231565b820191906000526020600020905b81548152906001019060200180831161121457829003601f168201915b50505050509050919050565b606060008210158015611251575060005482105b611290576040517f08c379a0000000000000000000000000000000000000000000000000000000008152600401611287906146bb565b60405180910390fd5b6003600083815260200190815260200160002060000160070180546112b49061470a565b80601f01602080910402602001604051908101604052809291908181526020018280546112e09061470a565b801561132d5780601f106113025761010080835404028352916020019161132d565b820191906000526020600020905b81548152906001019060200180831161131057829003601f168201915b50505050509050919050565b600080821015801561134c575060005482105b61138b576040517f08c379a0000000000000000000000000000000000000000000000000000000008152600401611382906146bb565b60405180910390fd5b60036000838152602001908152602001600020600001600101549050919050565b6000808460c001515114806113c5575060008460200151145b806113d557506000846040015151145b806113e557506000846060015151145b806113f557506000846080015151145b80611405575060008460a0015151145b80611415575060008460e0015151145b8061142557506000836000015151145b8061143557506000836020015151145b80611444575060008360400151145b8061145457506000836060015151145b8061146457506000836080015151145b80611474575060008360a0015151145b8061148457506000826040015151145b156114925760009050611a32565b600080549050808560000181815250506040518060400160405280600c81526020017f507265736572766174696f6e000000000000000000000000000000000000000081525083600001819052506040518060400160405280600781526020017f437573746f64790000000000000000000000000000000000000000000000000081525083602001819052506040518060400160405280600e81526020017f6e6f46696c655465636e6963616c00000000000000000000000000000000000081525083606001819052506040518060400160405280600f81526020017f6e6f46696c6545786563757469766500000000000000000000000000000000008152508360800181905250600060405180606001604052808781526020018681526020018581525090508060036000848152602001908152602001600020600082015181600001600082015181600001556020820151816001015560408201518160020190816115ff9190614979565b5060608201518160030190816116159190614979565b50608082015181600401908161162b9190614979565b5060a08201518160050190816116419190614979565b5060c08201518160060190816116579190614979565b5060e082015181600701908161166d9190614979565b505050602082015181600801600082015181600001908161168e9190614979565b5060208201518160010190816116a49190614979565b506040820151816002015560608201518160030190816116c49190614979565b5060808201518160040190816116da9190614979565b5060a08201518160050190816116f09190614979565b505050604082015181600e0160008201518160000190816117119190614979565b5060208201518160010190816117279190614979565b50604082015181600201908161173d9190614979565b5060608201518160030190816117539190614979565b5060808201518160040190816117699190614979565b5050509050506004819080600181540180825580915050600190039060005260206000209060130201600090919091909150600082015181600001600082015181600001556020820151816001015560408201518160020190816117cd9190614979565b5060608201518160030190816117e39190614979565b5060808201518160040190816117f99190614979565b5060a082015181600501908161180f9190614979565b5060c08201518160060190816118259190614979565b5060e082015181600701908161183b9190614979565b505050602082015181600801600082015181600001908161185c9190614979565b5060208201518160010190816118729190614979565b506040820151816002015560608201518160030190816118929190614979565b5060808201518160040190816118a89190614979565b5060a08201518160050190816118be9190614979565b505050604082015181600e0160008201518160000190816118df9190614979565b5060208201518160010190816118f59190614979565b50604082015181600201908161190b9190614979565b5060608201518160030190816119219190614979565b5060808201518160040190816119379190614979565b5050505050817f161395770ac6d9c5fd5a4046fb9a88fd23c3397573963e8e4780ecef5b2085e48760200151886040015189606001518a608001518b60a001518c60c001518d60e001518d600001518e602001516040516119a099989796959493929190614a4b565b60405180910390a2817f602870bcf9a976134164ca3df6b5e3c6b7d8942ce27dd14fa8a92f4fe4a7d6388660400151876060015188608001518960a0015189600001518a602001518b604001518c606001518d60800151604051611a0c99989796959493929190614a4b565b60405180910390a2600080815480929190611a2690614b3f565b91905055506001925050505b9392505050565b60008054905090565b600080548510611a87576040517f08c379a0000000000000000000000000000000000000000000000000000000008152600401611a7e906146bb565b60405180910390fd5b6000845111611acb576040517f08c379a0000000000000000000000000000000000000000000000000000000008152600401611ac290614bd3565b60405180910390fd5b6000835111611b0f576040517f08c379a0000000000000000000000000000000000000000000000000000000008152600401611b0690614c3f565b60405180910390fd5b6000825111611b53576040517f08c379a0000000000000000000000000000000000000000000000000000000008152600401611b4a90614cab565b60405180910390fd5b60006003600087815260200190815260200160002090508481600e016000019081611b7e9190614979565b508381600e016001019081611b939190614979565b508281600e016002019081611ba89190614979565b508060048781548110611bbe57611bbd614ccb565b5b90600052602060002090601302016000820181600001600082015481600001556001820154816001015560028201816002019081611bfc9190614d10565b5060038201816003019081611c119190614d10565b5060048201816004019081611c269190614d10565b5060058201816005019081611c3b9190614d10565b5060068201816006019081611c509190614d10565b5060078201816007019081611c659190614d10565b505050600882018160080160008201816000019081611c849190614d10565b5060018201816001019081611c999190614d10565b506002820154816002015560038201816003019081611cb89190614d10565b5060048201816004019081611ccd9190614d10565b5060058201816005019081611ce29190614d10565b505050600e820181600e0160008201816000019081611d019190614d10565b5060018201816001019081611d169190614d10565b5060028201816002019081611d2b9190614d10565b5060038201816003019081611d409190614d10565b5060048201816004019081611d559190614d10565b505050905050857f7ac38281920bcf5a241a541acec18eda1feafa87291424e5fef5d71c67cfef85868686604051611d8f93929190614df8565b60405180910390a26001915050949350505050565b600360205280600052604060002060009150905080600001604051806101000160405290816000820154815260200160018201548152602001600282018054611dec9061470a565b80601f0160208091040260200160405190810160405280929190818152602001828054611e189061470a565b8015611e655780601f10611e3a57610100808354040283529160200191611e65565b820191906000526020600020905b815481529060010190602001808311611e4857829003601f168201915b50505050508152602001600382018054611e7e9061470a565b80601f0160208091040260200160405190810160405280929190818152602001828054611eaa9061470a565b8015611ef75780601f10611ecc57610100808354040283529160200191611ef7565b820191906000526020600020905b815481529060010190602001808311611eda57829003601f168201915b50505050508152602001600482018054611f109061470a565b80601f0160208091040260200160405190810160405280929190818152602001828054611f3c9061470a565b8015611f895780601f10611f5e57610100808354040283529160200191611f89565b820191906000526020600020905b815481529060010190602001808311611f6c57829003601f168201915b50505050508152602001600582018054611fa29061470a565b80601f0160208091040260200160405190810160405280929190818152602001828054611fce9061470a565b801561201b5780601f10611ff05761010080835404028352916020019161201b565b820191906000526020600020905b815481529060010190602001808311611ffe57829003601f168201915b505050505081526020016006820180546120349061470a565b80601f01602080910402602001604051908101604052809291908181526020018280546120609061470a565b80156120ad5780601f10612082576101008083540402835291602001916120ad565b820191906000526020600020905b81548152906001019060200180831161209057829003601f168201915b505050505081526020016007820180546120c69061470a565b80601f01602080910402602001604051908101604052809291908181526020018280546120f29061470a565b801561213f5780601f106121145761010080835404028352916020019161213f565b820191906000526020600020905b81548152906001019060200180831161212257829003601f168201915b50505050508152505090806008016040518060c00160405290816000820180546121689061470a565b80601f01602080910402602001604051908101604052809291908181526020018280546121949061470a565b80156121e15780601f106121b6576101008083540402835291602001916121e1565b820191906000526020600020905b8154815290600101906020018083116121c457829003601f168201915b505050505081526020016001820180546121fa9061470a565b80601f01602080910402602001604051908101604052809291908181526020018280546122269061470a565b80156122735780601f1061224857610100808354040283529160200191612273565b820191906000526020600020905b81548152906001019060200180831161225657829003601f168201915b50505050508152602001600282015481526020016003820180546122969061470a565b80601f01602080910402602001604051908101604052809291908181526020018280546122c29061470a565b801561230f5780601f106122e45761010080835404028352916020019161230f565b820191906000526020600020905b8154815290600101906020018083116122f257829003601f168201915b505050505081526020016004820180546123289061470a565b80601f01602080910402602001604051908101604052809291908181526020018280546123549061470a565b80156123a15780601f10612376576101008083540402835291602001916123a1565b820191906000526020600020905b81548152906001019060200180831161238457829003601f168201915b505050505081526020016005820180546123ba9061470a565b80601f01602080910402602001604051908101604052809291908181526020018280546123e69061470a565b80156124335780601f1061240857610100808354040283529160200191612433565b820191906000526020600020905b81548152906001019060200180831161241657829003601f168201915b5050505050815250509080600e016040518060a001604052908160008201805461245c9061470a565b80601f01602080910402602001604051908101604052809291908181526020018280546124889061470a565b80156124d55780601f106124aa576101008083540402835291602001916124d5565b820191906000526020600020905b8154815290600101906020018083116124b857829003601f168201915b505050505081526020016001820180546124ee9061470a565b80601f016020809104026020016040519081016040528092919081815260200182805461251a9061470a565b80156125675780601f1061253c57610100808354040283529160200191612567565b820191906000526020600020905b81548152906001019060200180831161254a57829003601f168201915b505050505081526020016002820180546125809061470a565b80601f01602080910402602001604051908101604052809291908181526020018280546125ac9061470a565b80156125f95780601f106125ce576101008083540402835291602001916125f9565b820191906000526020600020905b8154815290600101906020018083116125dc57829003601f168201915b505050505081526020016003820180546126129061470a565b80601f016020809104026020016040519081016040528092919081815260200182805461263e9061470a565b801561268b5780601f106126605761010080835404028352916020019161268b565b820191906000526020600020905b81548152906001019060200180831161266e57829003601f168201915b505050505081526020016004820180546126a49061470a565b80601f01602080910402602001604051908101604052809291908181526020018280546126d09061470a565b801561271d5780601f106126f25761010080835404028352916020019161271d565b820191906000526020600020905b81548152906001019060200180831161270057829003601f168201915b505050505081525050905083565b60606004805480602002602001604051908101604052809291908181526020016000905b828210156130fc5783829060005260206000209060130201604051806060016040529081600082016040518061010001604052908160008201548152602001600182015481526020016002820180546127a79061470a565b80601f01602080910402602001604051908101604052809291908181526020018280546127d39061470a565b80156128205780601f106127f557610100808354040283529160200191612820565b820191906000526020600020905b81548152906001019060200180831161280357829003601f168201915b505050505081526020016003820180546128399061470a565b80601f01602080910402602001604051908101604052809291908181526020018280546128659061470a565b80156128b25780601f10612887576101008083540402835291602001916128b2565b820191906000526020600020905b81548152906001019060200180831161289557829003601f168201915b505050505081526020016004820180546128cb9061470a565b80601f01602080910402602001604051908101604052809291908181526020018280546128f79061470a565b80156129445780601f1061291957610100808354040283529160200191612944565b820191906000526020600020905b81548152906001019060200180831161292757829003601f168201915b5050505050815260200160058201805461295d9061470a565b80601f01602080910402602001604051908101604052809291908181526020018280546129899061470a565b80156129d65780601f106129ab576101008083540402835291602001916129d6565b820191906000526020600020905b8154815290600101906020018083116129b957829003601f168201915b505050505081526020016006820180546129ef9061470a565b80601f0160208091040260200160405190810160405280929190818152602001828054612a1b9061470a565b8015612a685780601f10612a3d57610100808354040283529160200191612a68565b820191906000526020600020905b815481529060010190602001808311612a4b57829003601f168201915b50505050508152602001600782018054612a819061470a565b80601f0160208091040260200160405190810160405280929190818152602001828054612aad9061470a565b8015612afa5780601f10612acf57610100808354040283529160200191612afa565b820191906000526020600020905b815481529060010190602001808311612add57829003601f168201915b5050505050815250508152602001600882016040518060c0016040529081600082018054612b279061470a565b80601f0160208091040260200160405190810160405280929190818152602001828054612b539061470a565b8015612ba05780601f10612b7557610100808354040283529160200191612ba0565b820191906000526020600020905b815481529060010190602001808311612b8357829003601f168201915b50505050508152602001600182018054612bb99061470a565b80601f0160208091040260200160405190810160405280929190818152602001828054612be59061470a565b8015612c325780601f10612c0757610100808354040283529160200191612c32565b820191906000526020600020905b815481529060010190602001808311612c1557829003601f168201915b5050505050815260200160028201548152602001600382018054612c559061470a565b80601f0160208091040260200160405190810160405280929190818152602001828054612c819061470a565b8015612cce5780601f10612ca357610100808354040283529160200191612cce565b820191906000526020600020905b815481529060010190602001808311612cb157829003601f168201915b50505050508152602001600482018054612ce79061470a565b80601f0160208091040260200160405190810160405280929190818152602001828054612d139061470a565b8015612d605780601f10612d3557610100808354040283529160200191612d60565b820191906000526020600020905b815481529060010190602001808311612d4357829003601f168201915b50505050508152602001600582018054612d799061470a565b80601f0160208091040260200160405190810160405280929190818152602001828054612da59061470a565b8015612df25780601f10612dc757610100808354040283529160200191612df2565b820191906000526020600020905b815481529060010190602001808311612dd557829003601f168201915b5050505050815250508152602001600e82016040518060a0016040529081600082018054612e1f9061470a565b80601f0160208091040260200160405190810160405280929190818152602001828054612e4b9061470a565b8015612e985780601f10612e6d57610100808354040283529160200191612e98565b820191906000526020600020905b815481529060010190602001808311612e7b57829003601f168201915b50505050508152602001600182018054612eb19061470a565b80601f0160208091040260200160405190810160405280929190818152602001828054612edd9061470a565b8015612f2a5780601f10612eff57610100808354040283529160200191612f2a565b820191906000526020600020905b815481529060010190602001808311612f0d57829003601f168201915b50505050508152602001600282018054612f439061470a565b80601f0160208091040260200160405190810160405280929190818152602001828054612f6f9061470a565b8015612fbc5780601f10612f9157610100808354040283529160200191612fbc565b820191906000526020600020905b815481529060010190602001808311612f9f57829003601f168201915b50505050508152602001600382018054612fd59061470a565b80601f01602080910402602001604051908101604052809291908181526020018280546130019061470a565b801561304e5780601f106130235761010080835404028352916020019161304e565b820191906000526020600020905b81548152906001019060200180831161303157829003601f168201915b505050505081526020016004820180546130679061470a565b80601f01602080910402602001604051908101604052809291908181526020018280546130939061470a565b80156130e05780601f106130b5576101008083540402835291602001916130e0565b820191906000526020600020905b8154815290600101906020018083116130c357829003601f168201915b505050505081525050815250508152602001906001019061274f565b50505050905090565b606060008210158015613119575060005482105b613158576040517f08c379a000000000000000000000000000000000000000000000000000000000815260040161314f906146bb565b60405180910390fd5b60036000838152602001908152602001600020600e01600201805461317c9061470a565b80601f01602080910402602001604051908101604052809291908181526020018280546131a89061470a565b80156131f55780601f106131ca576101008083540402835291602001916131f5565b820191906000526020600020905b8154815290600101906020018083116131d857829003601f168201915b50505050509050919050565b60008082118015613213575060005482105b613252576040517f08c379a0000000000000000000000000000000000000000000000000000000008152600401613249906146bb565b60405180910390fd5b60036000838152602001908152602001600020600801600201549050919050565b6060600280546132829061470a565b80601f01602080910402602001604051908101604052809291908181526020018280546132ae9061470a565b80156132fb5780601f106132d0576101008083540402835291602001916132fb565b820191906000526020600020905b8154815290600101906020018083116132de57829003601f168201915b5050505050905090565b60008054871061334a576040517f08c379a0000000000000000000000000000000000000000000000000000000008152600401613341906146bb565b60405180910390fd5b600086511161338e576040517f08c379a000000000000000000000000000000000000000000000000000000000815260040161338590614bd3565b60405180910390fd5b60008551116133d2576040517f08c379a00000000000000000000000000000000000000000000000000000000081526004016133c990614c3f565b60405180910390fd5b6000845111613416576040517f08c379a000000000000000000000000000000000000000000000000000000000815260040161340d90614cab565b60405180910390fd5b600083511161345a576040517f08c379a000000000000000000000000000000000000000000000000000000000815260040161345190614e90565b60405180910390fd5b600082511161349e576040517f08c379a000000000000000000000000000000000000000000000000000000000815260040161349590614efc565b60405180910390fd5b60006003600089815260200190815260200160002090508681600e0160000190816134c99190614979565b508581600e0160010190816134de9190614979565b508481600e0160020190816134f39190614979565b508381600e0160030190816135089190614979565b508281600e01600401908161351d9190614979565b50806004898154811061353357613532614ccb565b5b906000526020600020906013020160008201816000016000820154816000015560018201548160010155600282018160020190816135719190614d10565b50600382018160030190816135869190614d10565b506004820181600401908161359b9190614d10565b50600582018160050190816135b09190614d10565b50600682018160060190816135c59190614d10565b50600782018160070190816135da9190614d10565b5050506008820181600801600082018160000190816135f99190614d10565b506001820181600101908161360e9190614d10565b50600282015481600201556003820181600301908161362d9190614d10565b50600482018160040190816136429190614d10565b50600582018160050190816136579190614d10565b505050600e820181600e01600082018160000190816136769190614d10565b506001820181600101908161368b9190614d10565b50600282018160020190816136a09190614d10565b50600382018160030190816136b59190614d10565b50600482018160040190816136ca9190614d10565b505050905050877fdbe4f4b96a4bee1da1257d93ed50ec17bc04f5353b33466b0b882e9a77a34d9f8888888888604051613708959493929190614f1c565b60405180910390a260019150509695505050505050565b6000604051905090565b600080fd5b600080fd5b6000819050919050565b61374681613733565b811461375157600080fd5b50565b6000813590506137638161373d565b92915050565b60006020828403121561377f5761377e613729565b5b600061378d84828501613754565b91505092915050565b600081519050919050565b600082825260208201905092915050565b60005b838110156137d05780820151818401526020810190506137b5565b60008484015250505050565b6000601f19601f8301169050919050565b60006137f882613796565b61380281856137a1565b93506138128185602086016137b2565b61381b816137dc565b840191505092915050565b6000602082019050818103600083015261384081846137ed565b905092915050565b61385181613733565b82525050565b600082825260208201905092915050565b600061387382613796565b61387d8185613857565b935061388d8185602086016137b2565b613896816137dc565b840191505092915050565b6000610100830160008301516138ba6000860182613848565b5060208301516138cd6020860182613848565b50604083015184820360408601526138e58282613868565b915050606083015184820360608601526138ff8282613868565b915050608083015184820360808601526139198282613868565b91505060a083015184820360a08601526139338282613868565b91505060c083015184820360c086015261394d8282613868565b91505060e083015184820360e08601526139678282613868565b9150508091505092915050565b600060c08301600083015184820360008601526139918282613868565b915050602083015184820360208601526139ab8282613868565b91505060408301516139c06040860182613848565b50606083015184820360608601526139d88282613868565b915050608083015184820360808601526139f28282613868565b91505060a083015184820360a0860152613a0c8282613868565b9150508091505092915050565b600060a0830160008301518482036000860152613a368282613868565b91505060208301518482036020860152613a508282613868565b91505060408301518482036040860152613a6a8282613868565b91505060608301518482036060860152613a848282613868565b91505060808301518482036080860152613a9e8282613868565b9150508091505092915050565b60006060820190508181036000830152613ac581866138a1565b90508181036020830152613ad98185613974565b90508181036040830152613aed8184613a19565b9050949350505050565b600073ffffffffffffffffffffffffffffffffffffffff82169050919050565b6000613b2282613af7565b9050919050565b613b3281613b17565b82525050565b6000602082019050613b4d6000830184613b29565b92915050565b613b5c81613733565b82525050565b6000602082019050613b776000830184613b53565b92915050565b600080fd5b7f4e487b7100000000000000000000000000000000000000000000000000000000600052604160045260246000fd5b613bba826137dc565b810181811067ffffffffffffffff82111715613bd957613bd8613b82565b5b80604052505050565b6000613bec61371f565b9050613bf88282613bb1565b919050565b600080fd5b600080fd5b600080fd5b600067ffffffffffffffff821115613c2757613c26613b82565b5b613c30826137dc565b9050602081019050919050565b82818337600083830152505050565b6000613c5f613c5a84613c0c565b613be2565b905082815260208101848484011115613c7b57613c7a613c07565b5b613c86848285613c3d565b509392505050565b600082601f830112613ca357613ca2613c02565b5b8135613cb3848260208601613c4c565b91505092915050565b60006101008284031215613cd357613cd2613b7d565b5b613cde610100613be2565b90506000613cee84828501613754565b6000830152506020613d0284828501613754565b602083015250604082013567ffffffffffffffff811115613d2657613d25613bfd565b5b613d3284828501613c8e565b604083015250606082013567ffffffffffffffff811115613d5657613d55613bfd565b5b613d6284828501613c8e565b606083015250608082013567ffffffffffffffff811115613d8657613d85613bfd565b5b613d9284828501613c8e565b60808301525060a082013567ffffffffffffffff811115613db657613db5613bfd565b5b613dc284828501613c8e565b60a08301525060c082013567ffffffffffffffff811115613de657613de5613bfd565b5b613df284828501613c8e565b60c08301525060e082013567ffffffffffffffff811115613e1657613e15613bfd565b5b613e2284828501613c8e565b60e08301525092915050565b600060c08284031215613e4457613e43613b7d565b5b613e4e60c0613be2565b9050600082013567ffffffffffffffff811115613e6e57613e6d613bfd565b5b613e7a84828501613c8e565b600083015250602082013567ffffffffffffffff811115613e9e57613e9d613bfd565b5b613eaa84828501613c8e565b6020830152506040613ebe84828501613754565b604083015250606082013567ffffffffffffffff811115613ee257613ee1613bfd565b5b613eee84828501613c8e565b606083015250608082013567ffffffffffffffff811115613f1257613f11613bfd565b5b613f1e84828501613c8e565b60808301525060a082013567ffffffffffffffff811115613f4257613f41613bfd565b5b613f4e84828501613c8e565b60a08301525092915050565b600060a08284031215613f7057613f6f613b7d565b5b613f7a60a0613be2565b9050600082013567ffffffffffffffff811115613f9a57613f99613bfd565b5b613fa684828501613c8e565b600083015250602082013567ffffffffffffffff811115613fca57613fc9613bfd565b5b613fd684828501613c8e565b602083015250604082013567ffffffffffffffff811115613ffa57613ff9613bfd565b5b61400684828501613c8e565b604083015250606082013567ffffffffffffffff81111561402a57614029613bfd565b5b61403684828501613c8e565b606083015250608082013567ffffffffffffffff81111561405a57614059613bfd565b5b61406684828501613c8e565b60808301525092915050565b60008060006060848603121561408b5761408a613729565b5b600084013567ffffffffffffffff8111156140a9576140a861372e565b5b6140b586828701613cbc565b935050602084013567ffffffffffffffff8111156140d6576140d561372e565b5b6140e286828701613e2e565b925050604084013567ffffffffffffffff8111156141035761410261372e565b5b61410f86828701613f5a565b9150509250925092565b60008115159050919050565b61412e81614119565b82525050565b60006020820190506141496000830184614125565b92915050565b6000806000806080858703121561416957614168613729565b5b600061417787828801613754565b945050602085013567ffffffffffffffff8111156141985761419761372e565b5b6141a487828801613c8e565b935050604085013567ffffffffffffffff8111156141c5576141c461372e565b5b6141d187828801613c8e565b925050606085013567ffffffffffffffff8111156141f2576141f161372e565b5b6141fe87828801613c8e565b91505092959194509250565b600081519050919050565b600082825260208201905092915050565b6000819050602082019050919050565b60006101008301600083015161424f6000860182613848565b5060208301516142626020860182613848565b506040830151848203604086015261427a8282613868565b915050606083015184820360608601526142948282613868565b915050608083015184820360808601526142ae8282613868565b91505060a083015184820360a08601526142c88282613868565b91505060c083015184820360c08601526142e28282613868565b91505060e083015184820360e08601526142fc8282613868565b9150508091505092915050565b600060c08301600083015184820360008601526143268282613868565b915050602083015184820360208601526143408282613868565b91505060408301516143556040860182613848565b506060830151848203606086015261436d8282613868565b915050608083015184820360808601526143878282613868565b91505060a083015184820360a08601526143a18282613868565b9150508091505092915050565b600060a08301600083015184820360008601526143cb8282613868565b915050602083015184820360208601526143e58282613868565b915050604083015184820360408601526143ff8282613868565b915050606083015184820360608601526144198282613868565b915050608083015184820360808601526144338282613868565b9150508091505092915050565b6000606083016000830151848203600086015261445d8282614236565b915050602083015184820360208601526144778282614309565b9150506040830151848203604086015261449182826143ae565b9150508091505092915050565b60006144aa8383614440565b905092915050565b6000602082019050919050565b60006144ca8261420a565b6144d48185614215565b9350836020820285016144e685614226565b8060005b858110156145225784840389528151614503858261449e565b945061450e836144b2565b925060208a019950506001810190506144ea565b50829750879550505050505092915050565b6000602082019050818103600083015261454e81846144bf565b905092915050565b60008060008060008060c0878903121561457357614572613729565b5b600061458189828a01613754565b965050602087013567ffffffffffffffff8111156145a2576145a161372e565b5b6145ae89828a01613c8e565b955050604087013567ffffffffffffffff8111156145cf576145ce61372e565b5b6145db89828a01613c8e565b945050606087013567ffffffffffffffff8111156145fc576145fb61372e565b5b61460889828a01613c8e565b935050608087013567ffffffffffffffff8111156146295761462861372e565b5b61463589828a01613c8e565b92505060a087013567ffffffffffffffff8111156146565761465561372e565b5b61466289828a01613c8e565b9150509295509295509295565b7f4e6f207265636f726420666f756e6420666f722074686520676976656e204944600082015250565b60006146a56020836137a1565b91506146b08261466f565b602082019050919050565b600060208201905081810360008301526146d481614698565b9050919050565b7f4e487b7100000000000000000000000000000000000000000000000000000000600052602260045260246000fd5b6000600282049050600182168061472257607f821691505b602082108103614735576147346146db565b5b50919050565b7f4f6e6c7920746865206f776e65722063616e207265636f72642064696769746160008201527f6c2065766964656e636500000000000000000000000000000000000000000000602082015250565b6000614797602a836137a1565b91506147a28261473b565b604082019050919050565b600060208201905081810360008301526147c68161478a565b9050919050565b60008190508160005260206000209050919050565b60006020601f8301049050919050565b600082821b905092915050565b60006008830261482f7fffffffffffffffffffffffffffffffffffffffffffffffffffffffffffffffff826147f2565b61483986836147f2565b95508019841693508086168417925050509392505050565b6000819050919050565b600061487661487161486c84613733565b614851565b613733565b9050919050565b6000819050919050565b6148908361485b565b6148a461489c8261487d565b8484546147ff565b825550505050565b600090565b6148b96148ac565b6148c4818484614887565b505050565b5b818110156148e8576148dd6000826148b1565b6001810190506148ca565b5050565b601f82111561492d576148fe816147cd565b614907846147e2565b81016020851015614916578190505b61492a614922856147e2565b8301826148c9565b50505b505050565b600082821c905092915050565b600061495060001984600802614932565b1980831691505092915050565b6000614969838361493f565b9150826002028217905092915050565b61498282613796565b67ffffffffffffffff81111561499b5761499a613b82565b5b6149a5825461470a565b6149b08282856148ec565b600060209050601f8311600181146149e357600084156149d1578287015190505b6149db858261495d565b865550614a43565b601f1984166149f1866147cd565b60005b82811015614a19578489015182556001820191506020850194506020810190506149f4565b86831015614a365784890151614a32601f89168261493f565b8355505b6001600288020188555050505b505050505050565b600061012082019050614a61600083018c613b53565b8181036020830152614a73818b6137ed565b90508181036040830152614a87818a6137ed565b90508181036060830152614a9b81896137ed565b90508181036080830152614aaf81886137ed565b905081810360a0830152614ac381876137ed565b905081810360c0830152614ad781866137ed565b905081810360e0830152614aeb81856137ed565b9050818103610100830152614b0081846137ed565b90509a9950505050505050505050565b7f4e487b7100000000000000000000000000000000000000000000000000000000600052601160045260246000fd5b6000614b4a82613733565b91507fffffffffffffffffffffffffffffffffffffffffffffffffffffffffffffffff8203614b7c57614b7b614b10565b5b600182019050919050565b7f50686173652063616e6e6f7420626520656d7074790000000000000000000000600082015250565b6000614bbd6015836137a1565b9150614bc882614b87565b602082019050919050565b60006020820190508181036000830152614bec81614bb0565b9050919050565b7f53746174652063616e6e6f7420626520656d7074790000000000000000000000600082015250565b6000614c296015836137a1565b9150614c3482614bf3565b602082019050919050565b60006020820190508181036000830152614c5881614c1c565b9050919050565b7f5374617465557064617465446174652063616e6e6f7420626520656d70747900600082015250565b6000614c95601f836137a1565b9150614ca082614c5f565b602082019050919050565b60006020820190508181036000830152614cc481614c88565b9050919050565b7f4e487b7100000000000000000000000000000000000000000000000000000000600052603260045260246000fd5b600081549050614d098161470a565b9050919050565b818103614d1e575050614df6565b614d2782614cfa565b67ffffffffffffffff811115614d4057614d3f613b82565b5b614d4a825461470a565b614d558282856148ec565b6000601f831160018114614d845760008415614d72578287015490505b614d7c858261495d565b865550614def565b601f198416614d92876147cd565b9650614d9d866147cd565b60005b82811015614dc557848901548255600182019150600185019450602081019050614da0565b86831015614de25784890154614dde601f89168261493f565b8355505b6001600288020188555050505b5050505050505b565b60006060820190508181036000830152614e1281866137ed565b90508181036020830152614e2681856137ed565b90508181036040830152614e3a81846137ed565b9050949350505050565b7f546563686e6963616c5265706f72742063616e6e6f7420626520656d70747900600082015250565b6000614e7a601f836137a1565b9150614e8582614e44565b602082019050919050565b60006020820190508181036000830152614ea981614e6d565b9050919050565b7f4578656375746976655265706f72742063616e6e6f7420626520656d70747900600082015250565b6000614ee6601f836137a1565b9150614ef182614eb0565b602082019050919050565b60006020820190508181036000830152614f1581614ed9565b9050919050565b600060a0820190508181036000830152614f3681886137ed565b90508181036020830152614f4a81876137ed565b90508181036040830152614f5e81866137ed565b90508181036060830152614f7281856137ed565b90508181036080830152614f8681846137ed565b9050969550505050505056fea26469706673582212206c5afff0d2e9c7eb0638b3334d0369bb0abe77e80c664629d843f9ae562bb39764736f6c63430008180033536d61727420636f6e747261637420666f72207265636f7264696e672c20707265736572766174696f6e20616e6420766572696669636174696f6e206f66206469676974616c2065766964656e6365",
  "linkReferences": {},
  "deployedLinkReferences": {}
}